{
  "address": "0x18ECd27d8888d2aC08eb872C9f8d21f19fa61c81",
  "abi": [
    {
      "inputs": [],
      "name": "Auction__InvalidAuctionId",
      "type": "error"
    },
    {
      "inputs": [],
      "name": "Auction__InvalidAuctionTime",
      "type": "error"
    },
    {
      "inputs": [],
      "name": "Auction__InvalidBidAmount",
      "type": "error"
    },
    {
      "inputs": [],
      "name": "Auction__InvalidDepositAmount",
      "type": "error"
    },
    {
      "inputs": [],
      "name": "Auction__InvalidDuePaymentTime",
      "type": "error"
    },
    {
      "inputs": [],
      "name": "Auction__InvalidPriceStep",
      "type": "error"
    },
    {
      "inputs": [],
      "name": "Auction__InvalidRegistrationFee",
      "type": "error"
    },
    {
      "inputs": [],
      "name": "Auction__InvalidRegistrationTime",
      "type": "error"
    },
    {
      "inputs": [],
      "name": "Auction__InvalidStartAuctionTime",
      "type": "error"
    },
    {
      "inputs": [],
      "name": "Auction__InvalidStartBid",
      "type": "error"
    },
    {
      "inputs": [],
      "name": "Auction__NotRegisteredBidder",
      "type": "error"
    },
    {
      "inputs": [],
      "name": "Auction__OutOfAuctionTime",
      "type": "error"
    },
    {
      "inputs": [],
      "name": "Auction__OutOfRegistrationTime",
      "type": "error"
    },
    {
      "inputs": [
        {
          "internalType": "uint256",
          "name": "auctionId",
          "type": "uint256"
        },
        {
          "internalType": "uint256",
          "name": "requireAmountToRegister",
          "type": "uint256"
        }
      ],
      "name": "Auction__RequireAmountToRegisterNotMet",
      "type": "error"
    },
    {
      "anonymous": false,
      "inputs": [
        {
          "indexed": false,
          "internalType": "uint256",
          "name": "startRegistrationTime",
          "type": "uint256"
        },
        {
          "indexed": false,
          "internalType": "uint256",
          "name": "endRegistrationTime",
          "type": "uint256"
        },
        {
          "indexed": false,
          "internalType": "uint256",
          "name": "startAuctionTime",
          "type": "uint256"
        },
        {
          "indexed": false,
          "internalType": "uint256",
          "name": "endAuctionTime",
          "type": "uint256"
        },
        {
          "indexed": false,
          "internalType": "uint256",
          "name": "duePaymentTime",
          "type": "uint256"
        },
        {
          "indexed": false,
          "internalType": "uint256",
          "name": "registrationFee",
          "type": "uint256"
        },
        {
          "indexed": false,
          "internalType": "uint256",
          "name": "depositAmount",
          "type": "uint256"
        },
        {
          "indexed": false,
          "internalType": "uint256",
          "name": "startBid",
          "type": "uint256"
        },
        {
          "indexed": false,
          "internalType": "uint256",
          "name": "priceStep",
          "type": "uint256"
        }
      ],
      "name": "AddedAuction",
      "type": "event"
    },
    {
      "anonymous": false,
      "inputs": [
        {
          "indexed": false,
          "internalType": "uint256",
          "name": "auctionId",
          "type": "uint256"
        },
        {
          "indexed": false,
          "internalType": "address",
          "name": "bidder",
          "type": "address"
        },
        {
          "indexed": false,
          "internalType": "uint256",
          "name": "bidAmount",
          "type": "uint256"
        }
      ],
      "name": "PlacedBid",
      "type": "event"
    },
    {
      "anonymous": false,
      "inputs": [
        {
          "indexed": false,
          "internalType": "uint256",
          "name": "auctionId",
          "type": "uint256"
        },
        {
          "indexed": false,
          "internalType": "address",
          "name": "bidder",
          "type": "address"
        }
      ],
      "name": "RegisteredToBid",
      "type": "event"
    },
    {
      "inputs": [],
      "name": "closeAuction",
      "outputs": [],
      "stateMutability": "nonpayable",
      "type": "function"
    },
    {
      "inputs": [
        {
          "internalType": "uint256",
          "name": "auctionId",
          "type": "uint256"
        },
        {
          "internalType": "uint256",
          "name": "startRegistrationTime",
          "type": "uint256"
        },
        {
          "internalType": "uint256",
          "name": "endRegistrationTime",
          "type": "uint256"
        },
        {
          "internalType": "uint256",
          "name": "startAuctionTime",
          "type": "uint256"
        },
        {
          "internalType": "uint256",
          "name": "endAuctionTime",
          "type": "uint256"
        },
        {
          "internalType": "uint256",
          "name": "duePaymentTime",
          "type": "uint256"
        },
        {
          "internalType": "uint256",
          "name": "registrationFee",
          "type": "uint256"
        },
        {
          "internalType": "uint256",
          "name": "depositAmount",
          "type": "uint256"
        },
        {
          "internalType": "uint256",
          "name": "startBid",
          "type": "uint256"
        },
        {
          "internalType": "uint256",
          "name": "priceStep",
          "type": "uint256"
        }
      ],
      "name": "createAuction",
      "outputs": [],
      "stateMutability": "nonpayable",
      "type": "function"
    },
    {
      "inputs": [
        {
          "internalType": "uint256",
          "name": "auctionId",
          "type": "uint256"
        }
      ],
      "name": "getHightestBidOfAuction",
      "outputs": [
        {
          "internalType": "uint256",
          "name": "",
          "type": "uint256"
        }
      ],
      "stateMutability": "view",
      "type": "function"
    },
    {
      "inputs": [
        {
          "internalType": "uint256",
          "name": "auctionId",
          "type": "uint256"
        }
      ],
      "name": "getIndexOfBidder",
      "outputs": [
        {
          "internalType": "uint256",
          "name": "",
          "type": "uint256"
        }
      ],
      "stateMutability": "view",
      "type": "function"
    },
    {
      "inputs": [
        {
          "internalType": "uint256",
          "name": "auctionId",
          "type": "uint256"
        },
        {
          "internalType": "uint256",
          "name": "bidAmount",
          "type": "uint256"
        }
      ],
      "name": "placeBid",
      "outputs": [],
      "stateMutability": "payable",
      "type": "function"
    },
    {
      "inputs": [
        {
          "internalType": "uint256",
          "name": "auctionId",
          "type": "uint256"
        }
      ],
      "name": "registerToBid",
      "outputs": [],
      "stateMutability": "payable",
      "type": "function"
    },
    {
      "inputs": [
        {
          "internalType": "uint256",
          "name": "",
          "type": "uint256"
        }
      ],
      "name": "s_auctionInfomations",
      "outputs": [
        {
          "internalType": "uint256",
          "name": "startRegistrationTime",
          "type": "uint256"
        },
        {
          "internalType": "uint256",
          "name": "endRegistrationTime",
          "type": "uint256"
        },
        {
          "internalType": "uint256",
          "name": "startAuctionTime",
          "type": "uint256"
        },
        {
          "internalType": "uint256",
          "name": "endAuctionTime",
          "type": "uint256"
        },
        {
          "internalType": "uint256",
          "name": "duePaymentTime",
          "type": "uint256"
        },
        {
          "internalType": "uint256",
          "name": "registrationFee",
          "type": "uint256"
        },
        {
          "internalType": "uint256",
          "name": "depositAmount",
          "type": "uint256"
        },
        {
          "internalType": "uint256",
          "name": "startBid",
          "type": "uint256"
        },
        {
          "internalType": "uint256",
          "name": "priceStep",
          "type": "uint256"
        }
      ],
      "stateMutability": "view",
      "type": "function"
    },
    {
      "inputs": [
        {
          "internalType": "uint256",
          "name": "",
          "type": "uint256"
        },
        {
          "internalType": "uint256",
          "name": "",
          "type": "uint256"
        }
      ],
      "name": "s_bidInfomations",
      "outputs": [
        {
          "internalType": "address",
          "name": "bidder",
          "type": "address"
        },
        {
          "internalType": "uint256",
          "name": "bidAmount",
          "type": "uint256"
        }
      ],
      "stateMutability": "view",
      "type": "function"
    },
    {
      "inputs": [],
      "name": "withdaw",
      "outputs": [],
      "stateMutability": "nonpayable",
      "type": "function"
    }
  ],
  "transactionHash": "0x7f7c77c2d3f50fe2a9bfa1de531f65dad2b719b5327ae796809c62086a8ed884",
  "args": [],
  "numDeployments": 2,
  "solcInputHash": "108e9c09aaac47074db34b77ae1ad703",
  "bytecode": "0x608060405234801561001057600080fd5b506111e6806100206000396000f3fe6080604052600436106100865760003560e01c8063485f422211610059578063485f42221461016257806357c90de51461018b57806365dfc368146101a7578063c73a090a146101be578063c832aae8146101fb57610086565b806316e349191461008b5780632109db40146100d0578063378252f21461010e5780634206250814610125575b600080fd5b34801561009757600080fd5b506100b260048036038101906100ad9190610de0565b610217565b6040516100c799989796959493929190610e1c565b60405180910390f35b3480156100dc57600080fd5b506100f760048036038101906100f29190610ea9565b610265565b604051610105929190610f2a565b60405180910390f35b34801561011a57600080fd5b506101236102c6565b005b34801561013157600080fd5b5061014c60048036038101906101479190610de0565b6102c8565b6040516101599190610f53565b60405180910390f35b34801561016e57600080fd5b5061018960048036038101906101849190610f6e565b610385565b005b6101a560048036038101906101a09190610ea9565b6104ef565b005b3480156101b357600080fd5b506101bc610802565b005b3480156101ca57600080fd5b506101e560048036038101906101e09190610de0565b610804565b6040516101f29190610f53565b60405180910390f35b61021560048036038101906102109190610de0565b6108da565b005b60016020528060005260406000206000915090508060000154908060010154908060020154908060030154908060040154908060050154908060060154908060070154908060080154905089565b6002602052816000526040600020818154811061028157600080fd5b9060005260206000209060020201600091509150508060000160009054906101000a900473ffffffffffffffffffffffffffffffffffffffff16908060010154905082565b565b6000806000905060005b600260008581526020019081526020016000208054905081101561037b57816002600086815260200190815260200160002082815481106103165761031561104d565b5b9060005260206000209060020201600101541115610368576002600085815260200190815260200160002081815481106103535761035261104d565b5b90600052602060002090600202016001015491505b8080610373906110ab565b9150506102d2565b5080915050919050565b6103978a8a8a8a8a8a8a8a8a8a610af6565b156104e3576103a4610d59565b8981600001818152505088816020018181525050878160400181815250508681606001818152505085816080018181525050848160a0018181525050838160c0018181525050828160e0018181525050818161010001818152505080600160008d8152602001908152602001600020600082015181600001556020820151816001015560408201518160020155606082015181600301556080820151816004015560a0820151816005015560c0820151816006015560e08201518160070155610100820151816008015590505060008b90806001815401808255809150506001900390600052602060002001600090919091909150557f5e5349425087c1238d28e708f531b922272667303d666c67b1186d9b6848f25a8a8a8a8a8a8a8a8a8a6040516104d999989796959493929190610e1c565b60405180910390a1505b50505050505050505050565b81600080600090505b600080549050811015610526578180610510906110ab565b925050808061051e906110ab565b9150506104f8565b506000805490508103610565576040517f6b9108f800000000000000000000000000000000000000000000000000000000815260040160405180910390fd5b83426001600083815260200190815260200160002060020154108061059f5750426001600083815260200190815260200160002060030154115b156105d6576040517f355d234800000000000000000000000000000000000000000000000000000000815260040160405180910390fd5b846000805b60026000848152602001908152602001600020805490508110156106a4573373ffffffffffffffffffffffffffffffffffffffff166002600085815260200190815260200160002082815481106106355761063461104d565b5b906000526020600020906002020160000160009054906101000a900473ffffffffffffffffffffffffffffffffffffffff1673ffffffffffffffffffffffffffffffffffffffff161461069157818061068d906110ab565b9250505b808061069c906110ab565b9150506105db565b50600260008381526020019081526020016000208054905081036106f4576040517f2ffd4a0c00000000000000000000000000000000000000000000000000000000815260040160405180910390fd5b8686600160008381526020019081526020016000206006015481108061074257506001600083815260200190815260200160002060080154610735836102c8565b61073f91906110f3565b81105b15610779576040517fabdda60f00000000000000000000000000000000000000000000000000000000815260040160405180910390fd5b87600260008b81526020019081526020016000206107968b610804565b815481106107a7576107a661104d565b5b9060005260206000209060020201600101819055507f897645643062f7e221aec187272e76020e3832294b4bf87b8f683c4e3ef8aa6d89338a6040516107ef93929190611127565b60405180910390a1505050505050505050565b565b600080600090505b60026000848152602001908152602001600020805490508110156108cf573373ffffffffffffffffffffffffffffffffffffffff166002600085815260200190815260200160002082815481106108665761086561104d565b5b906000526020600020906002020160000160009054906101000a900473ffffffffffffffffffffffffffffffffffffffff1673ffffffffffffffffffffffffffffffffffffffff16036108bc57809150506108d5565b80806108c7906110ab565b91505061080c565b50600090505b919050565b8060005b60008054905081101561093757808203610924576040517f6b9108f800000000000000000000000000000000000000000000000000000000815260040160405180910390fd5b808061092f906110ab565b9150506108de565b508142600160008381526020019081526020016000206000015410806109725750426001600083815260200190815260200160002060010154115b156109a9576040517f60acd97900000000000000000000000000000000000000000000000000000000815260040160405180910390fd5b6000600160008581526020019081526020016000206006015460016000868152602001908152602001600020600501546109e391906110f3565b905080341015610a2c5783816040517ffea0958a000000000000000000000000000000000000000000000000000000008152600401610a2392919061115e565b60405180910390fd5b3360026000868152602001908152602001600020600260008781526020019081526020016000208054905081548110610a6857610a6761104d565b5b906000526020600020906002020160000160006101000a81548173ffffffffffffffffffffffffffffffffffffffff021916908373ffffffffffffffffffffffffffffffffffffffff1602179055507fc8e8a52ec1fa7775a3d2e5e7a7f1173441f31b9ee4047c62482192a3d497a2778433604051610ae8929190611187565b60405180910390a150505050565b60008a60005b600080549050811015610b5557808203610b42576040517f6b9108f800000000000000000000000000000000000000000000000000000000815260040160405180910390fd5b8080610b4d906110ab565b915050610afc565b508a8a42821080610b665750808210155b15610b9d576040517f5e83d5f800000000000000000000000000000000000000000000000000000000815260040160405180910390fd5b8b8b808210610bd8576040517f7a9971e800000000000000000000000000000000000000000000000000000000815260040160405180910390fd5b8c8c808210610c13576040517fe2049fa500000000000000000000000000000000000000000000000000000000815260040160405180910390fd5b8d8d808210610c4e576040517fcc2116a000000000000000000000000000000000000000000000000000000000815260040160405180910390fd5b8d60008111610c89576040517fb25c88c500000000000000000000000000000000000000000000000000000000815260040160405180910390fd5b8d60008111610cc4576040517fb0f07a6300000000000000000000000000000000000000000000000000000000815260040160405180910390fd5b8d60008111610cff576040517ffb833a9900000000000000000000000000000000000000000000000000000000815260040160405180910390fd5b8d60008111610d3a576040517fa9ed13a300000000000000000000000000000000000000000000000000000000815260040160405180910390fd5b60019d50505050505050505050505050509a9950505050505050505050565b6040518061012001604052806000815260200160008152602001600081526020016000815260200160008152602001600081526020016000815260200160008152602001600081525090565b600080fd5b6000819050919050565b610dbd81610daa565b8114610dc857600080fd5b50565b600081359050610dda81610db4565b92915050565b600060208284031215610df657610df5610da5565b5b6000610e0484828501610dcb565b91505092915050565b610e1681610daa565b82525050565b600061012082019050610e32600083018c610e0d565b610e3f602083018b610e0d565b610e4c604083018a610e0d565b610e596060830189610e0d565b610e666080830188610e0d565b610e7360a0830187610e0d565b610e8060c0830186610e0d565b610e8d60e0830185610e0d565b610e9b610100830184610e0d565b9a9950505050505050505050565b60008060408385031215610ec057610ebf610da5565b5b6000610ece85828601610dcb565b9250506020610edf85828601610dcb565b9150509250929050565b600073ffffffffffffffffffffffffffffffffffffffff82169050919050565b6000610f1482610ee9565b9050919050565b610f2481610f09565b82525050565b6000604082019050610f3f6000830185610f1b565b610f4c6020830184610e0d565b9392505050565b6000602082019050610f686000830184610e0d565b92915050565b6000806000806000806000806000806101408b8d031215610f9257610f91610da5565b5b6000610fa08d828e01610dcb565b9a50506020610fb18d828e01610dcb565b9950506040610fc28d828e01610dcb565b9850506060610fd38d828e01610dcb565b9750506080610fe48d828e01610dcb565b96505060a0610ff58d828e01610dcb565b95505060c06110068d828e01610dcb565b94505060e06110178d828e01610dcb565b9350506101006110298d828e01610dcb565b92505061012061103b8d828e01610dcb565b9150509295989b9194979a5092959850565b7f4e487b7100000000000000000000000000000000000000000000000000000000600052603260045260246000fd5b7f4e487b7100000000000000000000000000000000000000000000000000000000600052601160045260246000fd5b60006110b682610daa565b91507fffffffffffffffffffffffffffffffffffffffffffffffffffffffffffffffff82036110e8576110e761107c565b5b600182019050919050565b60006110fe82610daa565b915061110983610daa565b92508282019050808211156111215761112061107c565b5b92915050565b600060608201905061113c6000830186610e0d565b6111496020830185610f1b565b6111566040830184610e0d565b949350505050565b60006040820190506111736000830185610e0d565b6111806020830184610e0d565b9392505050565b600060408201905061119c6000830185610e0d565b6111a96020830184610f1b565b939250505056fea2646970667358221220c8219b41ab6c66a46a36bcbf125204dac397088975bc6fd76ffa441e2ae5dc1a64736f6c63430008110033",
  "devdoc": {
    "kind": "dev",
    "methods": {},
    "version": 1
  },
  "userdoc": {
    "kind": "user",
    "methods": {},
    "version": 1
  },
  "storageLayout": {
    "storage": [
      {
        "astId": 38,
        "contract": "contracts/Auction.sol:Auction",
        "label": "s_auctionList",
        "offset": 0,
        "slot": "0",
        "type": "t_array(t_uint256)dyn_storage"
      },
      {
        "astId": 104,
        "contract": "contracts/Auction.sol:Auction",
        "label": "s_auctionInfomations",
        "offset": 0,
        "slot": "1",
        "type": "t_mapping(t_uint256,t_struct(AuctionInfomation)60_storage)"
      },
      {
        "astId": 110,
        "contract": "contracts/Auction.sol:Auction",
        "label": "s_bidInfomations",
        "offset": 0,
        "slot": "2",
        "type": "t_mapping(t_uint256,t_array(t_struct(BidInfomation)65_storage)dyn_storage)"
      }
    ],
    "types": {
      "t_address": {
        "encoding": "inplace",
        "label": "address",
        "numberOfBytes": "20"
      },
      "t_array(t_struct(BidInfomation)65_storage)dyn_storage": {
        "base": "t_struct(BidInfomation)65_storage",
        "encoding": "dynamic_array",
        "label": "struct Auction.BidInfomation[]",
        "numberOfBytes": "32"
      },
      "t_array(t_uint256)dyn_storage": {
        "base": "t_uint256",
        "encoding": "dynamic_array",
        "label": "uint256[]",
        "numberOfBytes": "32"
      },
      "t_mapping(t_uint256,t_array(t_struct(BidInfomation)65_storage)dyn_storage)": {
        "encoding": "mapping",
        "key": "t_uint256",
        "label": "mapping(uint256 => struct Auction.BidInfomation[])",
        "numberOfBytes": "32",
        "value": "t_array(t_struct(BidInfomation)65_storage)dyn_storage"
      },
      "t_mapping(t_uint256,t_struct(AuctionInfomation)60_storage)": {
        "encoding": "mapping",
        "key": "t_uint256",
        "label": "mapping(uint256 => struct Auction.AuctionInfomation)",
        "numberOfBytes": "32",
        "value": "t_struct(AuctionInfomation)60_storage"
      },
      "t_struct(AuctionInfomation)60_storage": {
        "encoding": "inplace",
        "label": "struct Auction.AuctionInfomation",
        "members": [
          {
            "astId": 43,
            "contract": "contracts/Auction.sol:Auction",
            "label": "startRegistrationTime",
            "offset": 0,
            "slot": "0",
            "type": "t_uint256"
          },
          {
            "astId": 45,
            "contract": "contracts/Auction.sol:Auction",
            "label": "endRegistrationTime",
            "offset": 0,
            "slot": "1",
            "type": "t_uint256"
          },
          {
            "astId": 47,
            "contract": "contracts/Auction.sol:Auction",
            "label": "startAuctionTime",
            "offset": 0,
            "slot": "2",
            "type": "t_uint256"
          },
          {
            "astId": 49,
            "contract": "contracts/Auction.sol:Auction",
            "label": "endAuctionTime",
            "offset": 0,
            "slot": "3",
            "type": "t_uint256"
          },
          {
            "astId": 51,
            "contract": "contracts/Auction.sol:Auction",
            "label": "duePaymentTime",
            "offset": 0,
            "slot": "4",
            "type": "t_uint256"
          },
          {
            "astId": 53,
            "contract": "contracts/Auction.sol:Auction",
            "label": "registrationFee",
            "offset": 0,
            "slot": "5",
            "type": "t_uint256"
          },
          {
            "astId": 55,
            "contract": "contracts/Auction.sol:Auction",
            "label": "depositAmount",
            "offset": 0,
            "slot": "6",
            "type": "t_uint256"
          },
          {
            "astId": 57,
            "contract": "contracts/Auction.sol:Auction",
            "label": "startBid",
            "offset": 0,
            "slot": "7",
            "type": "t_uint256"
          },
          {
            "astId": 59,
            "contract": "contracts/Auction.sol:Auction",
            "label": "priceStep",
            "offset": 0,
            "slot": "8",
            "type": "t_uint256"
          }
        ],
        "numberOfBytes": "288"
      },
      "t_struct(BidInfomation)65_storage": {
        "encoding": "inplace",
        "label": "struct Auction.BidInfomation",
        "members": [
          {
            "astId": 62,
            "contract": "contracts/Auction.sol:Auction",
            "label": "bidder",
            "offset": 0,
            "slot": "0",
            "type": "t_address"
          },
          {
            "astId": 64,
            "contract": "contracts/Auction.sol:Auction",
            "label": "bidAmount",
            "offset": 0,
            "slot": "1",
            "type": "t_uint256"
          }
        ],
        "numberOfBytes": "64"
      },
      "t_uint256": {
        "encoding": "inplace",
        "label": "uint256",
        "numberOfBytes": "32"
      }
    }
  }
}