{
  "address": "0x125453B6e98aBC534Cdee0d983E89C06641c637D",
  "abi": [
    {
      "inputs": [],
      "name": "Auction__ConfirmationTimeout",
      "type": "error"
    },
    {
      "inputs": [],
      "name": "Auction__InvalidAuctionId",
      "type": "error"
    },
    {
      "inputs": [],
      "name": "Auction__InvalidAuctionTime",
      "type": "error"
    },
    {
      "inputs": [],
      "name": "Auction__InvalidBidAmount",
      "type": "error"
    },
    {
      "inputs": [],
      "name": "Auction__InvalidDepositAmount",
      "type": "error"
    },
    {
      "inputs": [],
      "name": "Auction__InvalidDuePaymentTime",
      "type": "error"
    },
    {
      "inputs": [],
      "name": "Auction__InvalidPriceStep",
      "type": "error"
    },
    {
      "inputs": [],
      "name": "Auction__InvalidRegistrationFee",
      "type": "error"
    },
    {
      "inputs": [],
      "name": "Auction__InvalidRegistrationTime",
      "type": "error"
    },
    {
      "inputs": [],
      "name": "Auction__InvalidStartAuctionTime",
      "type": "error"
    },
    {
      "inputs": [],
      "name": "Auction__InvalidStartBid",
      "type": "error"
    },
    {
      "inputs": [],
      "name": "Auction__NotExistAuctionId",
      "type": "error"
    },
    {
      "inputs": [],
      "name": "Auction__NotRegisteredBidder",
      "type": "error"
    },
    {
      "inputs": [],
      "name": "Auction__NotWinnerOfAuction",
      "type": "error"
    },
    {
      "inputs": [],
      "name": "Auction__OutOfAuctionTime",
      "type": "error"
    },
    {
      "inputs": [],
      "name": "Auction__OutOfRegistrationTime",
      "type": "error"
    },
    {
      "inputs": [
        {
          "internalType": "uint256",
          "name": "auctionId",
          "type": "uint256"
        },
        {
          "internalType": "uint256",
          "name": "requirePaymentAmount",
          "type": "uint256"
        }
      ],
      "name": "Auction__RequireAmountToPaymentNotMet",
      "type": "error"
    },
    {
      "inputs": [
        {
          "internalType": "uint256",
          "name": "auctionId",
          "type": "uint256"
        },
        {
          "internalType": "uint256",
          "name": "requireAmountToRegister",
          "type": "uint256"
        }
      ],
      "name": "Auction__RequireAmountToRegisterNotMet",
      "type": "error"
    },
    {
      "anonymous": false,
      "inputs": [
        {
          "indexed": false,
          "internalType": "uint256",
          "name": "auctionId",
          "type": "uint256"
        },
        {
          "indexed": false,
          "internalType": "address",
          "name": "bidder",
          "type": "address"
        },
        {
          "indexed": false,
          "internalType": "enum Auction.BidderState",
          "name": "bidderState",
          "type": "uint8"
        }
      ],
      "name": "CanceledAuctionResult",
      "type": "event"
    },
    {
      "anonymous": false,
      "inputs": [
        {
          "indexed": false,
          "internalType": "uint256",
          "name": "auctionId",
          "type": "uint256"
        }
      ],
      "name": "ClosedAuction",
      "type": "event"
    },
    {
      "anonymous": false,
      "inputs": [
        {
          "indexed": false,
          "internalType": "uint256",
          "name": "auctionId",
          "type": "uint256"
        },
        {
          "indexed": false,
          "internalType": "address",
          "name": "bidder",
          "type": "address"
        },
        {
          "indexed": false,
          "internalType": "uint256",
          "name": "paidAmount",
          "type": "uint256"
        }
      ],
      "name": "ClosedAuctionSucessfully",
      "type": "event"
    },
    {
      "anonymous": false,
      "inputs": [
        {
          "indexed": false,
          "internalType": "uint256",
          "name": "auctionId",
          "type": "uint256"
        },
        {
          "indexed": false,
          "internalType": "uint256",
          "name": "startRegistrationTime",
          "type": "uint256"
        },
        {
          "indexed": false,
          "internalType": "uint256",
          "name": "endRegistrationTime",
          "type": "uint256"
        },
        {
          "indexed": false,
          "internalType": "uint256",
          "name": "startAuctionTime",
          "type": "uint256"
        },
        {
          "indexed": false,
          "internalType": "uint256",
          "name": "endAuctionTime",
          "type": "uint256"
        },
        {
          "indexed": false,
          "internalType": "uint256",
          "name": "duePaymentTime",
          "type": "uint256"
        },
        {
          "indexed": false,
          "internalType": "uint256",
          "name": "registrationFee",
          "type": "uint256"
        },
        {
          "indexed": false,
          "internalType": "uint256",
          "name": "depositAmount",
          "type": "uint256"
        },
        {
          "indexed": false,
          "internalType": "uint256",
          "name": "startBid",
          "type": "uint256"
        },
        {
          "indexed": false,
          "internalType": "uint256",
          "name": "priceStep",
          "type": "uint256"
        }
      ],
      "name": "CreatedAuction",
      "type": "event"
    },
    {
      "anonymous": false,
      "inputs": [
        {
          "indexed": false,
          "internalType": "uint256",
          "name": "auctionId",
          "type": "uint256"
        },
        {
          "indexed": false,
          "internalType": "address",
          "name": "bidder",
          "type": "address"
        },
        {
          "indexed": false,
          "internalType": "uint256",
          "name": "bidAmount",
          "type": "uint256"
        }
      ],
      "name": "PlacedBid",
      "type": "event"
    },
    {
      "anonymous": false,
      "inputs": [
        {
          "indexed": false,
          "internalType": "uint256",
          "name": "auctionId",
          "type": "uint256"
        },
        {
          "indexed": false,
          "internalType": "address",
          "name": "bidder",
          "type": "address"
        },
        {
          "indexed": false,
          "internalType": "enum Auction.BidderState",
          "name": "bidderState",
          "type": "uint8"
        }
      ],
      "name": "RegisteredToBid",
      "type": "event"
    },
    {
      "anonymous": false,
      "inputs": [
        {
          "indexed": false,
          "internalType": "uint256",
          "name": "auctionId",
          "type": "uint256"
        },
        {
          "indexed": false,
          "internalType": "address",
          "name": "bidder",
          "type": "address"
        }
      ],
      "name": "Withdrew",
      "type": "event"
    },
    {
      "inputs": [
        {
          "internalType": "uint256",
          "name": "auctionId",
          "type": "uint256"
        }
      ],
      "name": "cancelAuctionResult",
      "outputs": [],
      "stateMutability": "payable",
      "type": "function"
    },
    {
      "inputs": [
        {
          "internalType": "uint256",
          "name": "auctionId",
          "type": "uint256"
        }
      ],
      "name": "closeAuction",
      "outputs": [],
      "stateMutability": "nonpayable",
      "type": "function"
    },
    {
      "inputs": [
        {
          "internalType": "uint256",
          "name": "auctionId",
          "type": "uint256"
        },
        {
          "internalType": "uint256",
          "name": "startRegistrationTime",
          "type": "uint256"
        },
        {
          "internalType": "uint256",
          "name": "endRegistrationTime",
          "type": "uint256"
        },
        {
          "internalType": "uint256",
          "name": "startAuctionTime",
          "type": "uint256"
        },
        {
          "internalType": "uint256",
          "name": "endAuctionTime",
          "type": "uint256"
        },
        {
          "internalType": "uint256",
          "name": "duePaymentTime",
          "type": "uint256"
        },
        {
          "internalType": "uint256",
          "name": "registrationFee",
          "type": "uint256"
        },
        {
          "internalType": "uint256",
          "name": "depositAmount",
          "type": "uint256"
        },
        {
          "internalType": "uint256",
          "name": "startBid",
          "type": "uint256"
        },
        {
          "internalType": "uint256",
          "name": "priceStep",
          "type": "uint256"
        }
      ],
      "name": "createAuction",
      "outputs": [],
      "stateMutability": "nonpayable",
      "type": "function"
    },
    {
      "inputs": [
        {
          "internalType": "uint256",
          "name": "auctionId",
          "type": "uint256"
        }
      ],
      "name": "getAuctionInformationById",
      "outputs": [
        {
          "components": [
            {
              "internalType": "uint256",
              "name": "startRegistrationTime",
              "type": "uint256"
            },
            {
              "internalType": "uint256",
              "name": "endRegistrationTime",
              "type": "uint256"
            },
            {
              "internalType": "uint256",
              "name": "startAuctionTime",
              "type": "uint256"
            },
            {
              "internalType": "uint256",
              "name": "endAuctionTime",
              "type": "uint256"
            },
            {
              "internalType": "uint256",
              "name": "duePaymentTime",
              "type": "uint256"
            },
            {
              "internalType": "uint256",
              "name": "registrationFee",
              "type": "uint256"
            },
            {
              "internalType": "uint256",
              "name": "depositAmount",
              "type": "uint256"
            },
            {
              "internalType": "uint256",
              "name": "startBid",
              "type": "uint256"
            },
            {
              "internalType": "uint256",
              "name": "priceStep",
              "type": "uint256"
            }
          ],
          "internalType": "struct Auction.AuctionInformation",
          "name": "",
          "type": "tuple"
        }
      ],
      "stateMutability": "view",
      "type": "function"
    },
    {
      "inputs": [
        {
          "internalType": "uint256",
          "name": "auctionId",
          "type": "uint256"
        }
      ],
      "name": "getBidInformationByAuctionId",
      "outputs": [
        {
          "components": [
            {
              "internalType": "address",
              "name": "bidder",
              "type": "address"
            },
            {
              "internalType": "uint256",
              "name": "bidAmount",
              "type": "uint256"
            },
            {
              "internalType": "enum Auction.BidderState",
              "name": "bidderState",
              "type": "uint8"
            }
          ],
          "internalType": "struct Auction.BidInformation[]",
          "name": "",
          "type": "tuple[]"
        }
      ],
      "stateMutability": "view",
      "type": "function"
    },
    {
      "inputs": [
        {
          "internalType": "uint256",
          "name": "auctionId",
          "type": "uint256"
        }
      ],
      "name": "getHightestBidOfAuction",
      "outputs": [
        {
          "internalType": "uint256",
          "name": "",
          "type": "uint256"
        }
      ],
      "stateMutability": "view",
      "type": "function"
    },
    {
      "inputs": [
        {
          "internalType": "uint256",
          "name": "auctionId",
          "type": "uint256"
        }
      ],
      "name": "getIndexOfHighestBidOfAuction",
      "outputs": [
        {
          "internalType": "uint256",
          "name": "",
          "type": "uint256"
        }
      ],
      "stateMutability": "view",
      "type": "function"
    },
    {
      "inputs": [
        {
          "internalType": "uint256",
          "name": "auctionId",
          "type": "uint256"
        }
      ],
      "name": "getIndexOfSecondWinnerOfAuction",
      "outputs": [
        {
          "internalType": "uint256",
          "name": "",
          "type": "uint256"
        }
      ],
      "stateMutability": "nonpayable",
      "type": "function"
    },
    {
      "inputs": [],
      "name": "getListAuctionId",
      "outputs": [
        {
          "internalType": "uint256[]",
          "name": "",
          "type": "uint256[]"
        }
      ],
      "stateMutability": "view",
      "type": "function"
    },
    {
      "inputs": [
        {
          "internalType": "uint256",
          "name": "auctionId",
          "type": "uint256"
        }
      ],
      "name": "payment",
      "outputs": [],
      "stateMutability": "payable",
      "type": "function"
    },
    {
      "inputs": [
        {
          "internalType": "uint256",
          "name": "auctionId",
          "type": "uint256"
        },
        {
          "internalType": "uint256",
          "name": "bidAmount",
          "type": "uint256"
        }
      ],
      "name": "placeBid",
      "outputs": [],
      "stateMutability": "payable",
      "type": "function"
    },
    {
      "inputs": [
        {
          "internalType": "uint256",
          "name": "auctionId",
          "type": "uint256"
        }
      ],
      "name": "registerToBid",
      "outputs": [],
      "stateMutability": "payable",
      "type": "function"
    }
  ],
  "transactionHash": "0xaf6383bb4f8b68bf8b77044b82e863fc6edcdb359fb9c4b19eabaca0ceaa9095",
  "args": [],
  "numDeployments": 14,
  "solcInputHash": "dfaabcf5edf273cf1a4a02b21f87dfd8",
  "bytecode": "0x608060405234801561001057600080fd5b5061273f806100206000396000f3fe6080604052600436106100a75760003560e01c8063485f422211610064578063485f4222146101d3578063497c3cc6146101fc57806357c90de5146102395780638b3c99e314610255578063a9b0957714610271578063c832aae8146102ae576100a7565b806319315db2146100ac5780631c46583b146100c8578063236ed8f3146100f3578063237e81801461011c57806332a1b8ad146101595780634206250814610196575b600080fd5b6100c660048036038101906100c19190611f3c565b6102ca565b005b3480156100d457600080fd5b506100dd6107c9565b6040516100ea9190612027565b60405180910390f35b3480156100ff57600080fd5b5061011a60048036038101906101159190611f3c565b610821565b005b34801561012857600080fd5b50610143600480360381019061013e9190611f3c565b610adf565b6040516101509190612058565b60405180910390f35b34801561016557600080fd5b50610180600480360381019061017b9190611f3c565b610bd6565b60405161018d9190612058565b60405180910390f35b3480156101a257600080fd5b506101bd60048036038101906101b89190611f3c565b610dde565b6040516101ca9190612058565b60405180910390f35b3480156101df57600080fd5b506101fa60048036038101906101f59190612073565b610f0f565b005b34801561020857600080fd5b50610223600480360381019061021e9190611f3c565b61107b565b60405161023091906122fb565b60405180910390f35b610253600480360381019061024e919061231d565b611222565b005b61026f600480360381019061026a9190611f3c565b611535565b005b34801561027d57600080fd5b5061029860048036038101906102939190611f3c565b611732565b6040516102a59190612414565b60405180910390f35b6102c860048036038101906102c39190611f3c565b611854565b005b80600260008281526020019081526020016000206102e782610adf565b815481106102f8576102f7612430565b5b906000526020600020906003020160000160009054906101000a900473ffffffffffffffffffffffffffffffffffffffff1673ffffffffffffffffffffffffffffffffffffffff163373ffffffffffffffffffffffffffffffffffffffff16036103c457600061012c61ffff166001600084815260200190815260200160002060030154610386919061248e565b9050428111156103c2576040517f49107ff700000000000000000000000000000000000000000000000000000000815260040160405180910390fd5b505b600260008281526020019081526020016000206103e082610bd6565b815481106103f1576103f0612430565b5b906000526020600020906003020160000160009054906101000a900473ffffffffffffffffffffffffffffffffffffffff1673ffffffffffffffffffffffffffffffffffffffff163373ffffffffffffffffffffffffffffffffffffffff16036104c9576000600261012c61046691906124d0565b61ffff16600160008481526020019081526020016000206003015461048b919061248e565b9050428111156104c7576040517f49107ff700000000000000000000000000000000000000000000000000000000815260040160405180910390fd5b505b81600260068111156104de576104dd6121bf565b5b600260008381526020019081526020016000206104fa83611b5e565b8154811061050b5761050a612430565b5b906000526020600020906003020160020160009054906101000a900460ff16600681111561053c5761053b6121bf565b5b14610573576040517f7963b56f00000000000000000000000000000000000000000000000000000000815260040160405180910390fd5b6002600084815260200190815260200160002061058f84610adf565b815481106105a05761059f612430565b5b906000526020600020906003020160000160009054906101000a900473ffffffffffffffffffffffffffffffffffffffff1673ffffffffffffffffffffffffffffffffffffffff163373ffffffffffffffffffffffffffffffffffffffff16036106d65760046002600085815260200190815260200160002061062285610adf565b8154811061063357610632612430565b5b906000526020600020906003020160020160006101000a81548160ff02191690836006811115610666576106656121bf565b5b0217905550600280600085815260200190815260200160002061068885610bd6565b8154811061069957610698612430565b5b906000526020600020906003020160020160006101000a81548160ff021916908360068111156106cc576106cb6121bf565b5b021790555061073e565b6004600260008581526020019081526020016000206106f485610bd6565b8154811061070557610704612430565b5b906000526020600020906003020160020160006101000a81548160ff02191690836006811115610738576107376121bf565b5b02179055505b7f1b356cc706b6c1f5ac4ad77235bdfbec3ba7a0bf33c4f3b6130ce36ccac429f983336002600087815260200190815260200160002061077d87611b5e565b8154811061078e5761078d612430565b5b906000526020600020906003020160020160009054906101000a900460ff166040516107bc9392919061252b565b60405180910390a1505050565b6060600080548060200260200160405190810160405280929190818152602001828054801561081757602002820191906000526020600020905b815481526020019060010190808311610803575b5050505050905090565b806000805b60008054905081101561087a576000818154811061084757610846612430565b5b9060005260206000200154831461086757818061086390612562565b9250505b808061087290612562565b915050610826565b5060008054905081036108b9576040517fc1c7f9a100000000000000000000000000000000000000000000000000000000815260040160405180910390fd5b60006108c484610adf565b9050600280600086815260200190815260200160002082815481106108ec576108eb612430565b5b906000526020600020906003020160020160006101000a81548160ff0219169083600681111561091f5761091e6121bf565b5b0217905550600061092f85610bd6565b9050600160026000878152602001908152602001600020828154811061095857610957612430565b5b906000526020600020906003020160020160006101000a81548160ff0219169083600681111561098b5761098a6121bf565b5b021790555060005b6002600087815260200190815260200160002080549050811015610aa057600060068111156109c5576109c46121bf565b5b6002600088815260200190815260200160002082815481106109ea576109e9612430565b5b906000526020600020906003020160020160009054906101000a900460ff166006811115610a1b57610a1a6121bf565b5b03610a8d5760036006811115610a3457610a336121bf565b5b600260008881526020019081526020016000208281548110610a5957610a58612430565b5b906000526020600020906003020160020160009054906101000a900460ff166006811115610a8a57610a896121bf565b5b50505b8080610a9890612562565b915050610993565b507f279c403f9207a168d9dff1055d3fc145405e25a2b26bf9e1f230366f65a651d985604051610ad09190612058565b60405180910390a15050505050565b60008060005b6002600085815260200190815260200160002080549050811015610bcc57600260008581526020019081526020016000208181548110610b2857610b27612430565b5b90600052602060002090600302016001015482108015610bb0575060046006811115610b5757610b566121bf565b5b600260008681526020019081526020016000208281548110610b7c57610b7b612430565b5b906000526020600020906003020160020160009054906101000a900460ff166006811115610bad57610bac6121bf565b5b14155b15610bb9578091505b8080610bc490612562565b915050610ae5565b5080915050919050565b6000806002600084815260200190815260200160002090506000610bf984610dde565b905081805490508110610c0b57600080fd5b8160018380549050610c1d91906125aa565b81548110610c2e57610c2d612430565b5b9060005260206000209060030201828281548110610c4f57610c4e612430565b5b90600052602060002090600302016000820160009054906101000a900473ffffffffffffffffffffffffffffffffffffffff168160000160006101000a81548173ffffffffffffffffffffffffffffffffffffffff021916908373ffffffffffffffffffffffffffffffffffffffff160217905550600182015481600101556002820160009054906101000a900460ff168160020160006101000a81548160ff02191690836006811115610d0657610d056121bf565b5b021790555090505081805480610d1f57610d1e6125de565b5b6001900381819060005260206000209060030201600080820160006101000a81549073ffffffffffffffffffffffffffffffffffffffff021916905560018201600090556002820160006101000a81549060ff021916905550509055600080600090505b8380549050811015610dd257838181548110610da257610da1612430565b5b906000526020600020906003020160010154821015610dbf578091505b8080610dca90612562565b915050610d83565b50809350505050919050565b6000806000905060005b6002600085815260200190815260200160002080549050811015610f055781600260008681526020019081526020016000208281548110610e2c57610e2b612430565b5b906000526020600020906003020160010154118015610eb3575060046006811115610e5a57610e596121bf565b5b600260008681526020019081526020016000208281548110610e7f57610e7e612430565b5b906000526020600020906003020160020160009054906101000a900460ff166006811115610eb057610eaf6121bf565b5b14155b15610ef257600260008581526020019081526020016000208181548110610edd57610edc612430565b5b90600052602060002090600302016001015491505b8080610efd90612562565b915050610de8565b5080915050919050565b610f218a8a8a8a8a8a8a8a8a8a611c34565b1561106f57610f2e611eb5565b8981600001818152505088816020018181525050878160400181815250508681606001818152505085816080018181525050848160a0018181525050838160c0018181525050828160e0018181525050818161010001818152505080600160008d8152602001908152602001600020600082015181600001556020820151816001015560408201518160020155606082015181600301556080820151816004015560a0820151816005015560c0820151816006015560e08201518160070155610100820151816008015590505060008b90806001815401808255809150506001900390600052602060002001600090919091909150557fbf32ac378b094c01cee4de6b05076ce3628ad0310a89fc49de1a56ff1729b9828b8b8b8b8b8b8b8b8b8b6040516110659a9998979695949392919061260d565b60405180910390a1505b50505050505050505050565b6060816000805b6000805490508110156110d657600081815481106110a3576110a2612430565b5b906000526020600020015483146110c35781806110bf90612562565b9250505b80806110ce90612562565b915050611082565b506000805490508103611115576040517fc1c7f9a100000000000000000000000000000000000000000000000000000000815260040160405180910390fd5b60026000858152602001908152602001600020805480602002602001604051908101604052809291908181526020016000905b8282101561121557838290600052602060002090600302016040518060600160405290816000820160009054906101000a900473ffffffffffffffffffffffffffffffffffffffff1673ffffffffffffffffffffffffffffffffffffffff1673ffffffffffffffffffffffffffffffffffffffff168152602001600182015481526020016002820160009054906101000a900460ff1660068111156111f0576111ef6121bf565b5b6006811115611202576112016121bf565b5b8152505081526020019060010190611148565b5050505092505050919050565b81600080600090505b60008054905081101561125957818061124390612562565b925050808061125190612562565b91505061122b565b506000805490508103611298576040517f6b9108f800000000000000000000000000000000000000000000000000000000815260040160405180910390fd5b8342600160008381526020019081526020016000206002015410806112d25750426001600083815260200190815260200160002060030154115b15611309576040517f355d234800000000000000000000000000000000000000000000000000000000815260040160405180910390fd5b846000805b60026000848152602001908152602001600020805490508110156113d7573373ffffffffffffffffffffffffffffffffffffffff1660026000858152602001908152602001600020828154811061136857611367612430565b5b906000526020600020906003020160000160009054906101000a900473ffffffffffffffffffffffffffffffffffffffff1673ffffffffffffffffffffffffffffffffffffffff16146113c45781806113c090612562565b9250505b80806113cf90612562565b91505061130e565b5060026000838152602001908152602001600020805490508103611427576040517f2ffd4a0c00000000000000000000000000000000000000000000000000000000815260040160405180910390fd5b868660016000838152602001908152602001600020600601548110806114755750600160008381526020019081526020016000206008015461146883610dde565b611472919061248e565b81105b156114ac576040517fabdda60f00000000000000000000000000000000000000000000000000000000815260040160405180910390fd5b87600260008b81526020019081526020016000206114c98b611b5e565b815481106114da576114d9612430565b5b9060005260206000209060030201600101819055507f897645643062f7e221aec187272e76020e3832294b4bf87b8f683c4e3ef8aa6d89338a604051611522939291906126a9565b60405180910390a1505050505050505050565b806002600681111561154a576115496121bf565b5b6002600083815260200190815260200160002061156683611b5e565b8154811061157757611576612430565b5b906000526020600020906003020160020160009054906101000a900460ff1660068111156115a8576115a76121bf565b5b146115df576040517f7963b56f00000000000000000000000000000000000000000000000000000000815260040160405180910390fd5b81600060016000838152602001908152602001600020600601546002600084815260200190815260200160002061161584611b5e565b8154811061162657611625612430565b5b90600052602060002090600302016001015461164291906125aa565b905080341461168a5781816040517f6b1fb6fc0000000000000000000000000000000000000000000000000000000081526004016116819291906126e0565b60405180910390fd5b6006600260008681526020019081526020016000206116a886611b5e565b815481106116b9576116b8612430565b5b906000526020600020906003020160020160006101000a81548160ff021916908360068111156116ec576116eb6121bf565b5b02179055507f7b5ceba626af36d16f2f87203d946e0ecfb9750e22b32fc636681b9eeeac1fcd843334604051611724939291906126a9565b60405180910390a150505050565b61173a611eb5565b816000805b60008054905081101561179357600081815481106117605761175f612430565b5b9060005260206000200154831461178057818061177c90612562565b9250505b808061178b90612562565b91505061173f565b5060008054905081036117d2576040517fc1c7f9a100000000000000000000000000000000000000000000000000000000815260040160405180910390fd5b6001600085815260200190815260200160002060405180610120016040529081600082015481526020016001820154815260200160028201548152602001600382015481526020016004820154815260200160058201548152602001600682015481526020016007820154815260200160088201548152505092505050919050565b8060005b6000805490508110156118cf576000818154811061187957611878612430565b5b906000526020600020015482036118bc576040517f6b9108f800000000000000000000000000000000000000000000000000000000815260040160405180910390fd5b80806118c790612562565b915050611858565b5081426001600083815260200190815260200160002060000154108061190a5750426001600083815260200190815260200160002060010154115b15611941576040517f60acd97900000000000000000000000000000000000000000000000000000000815260040160405180910390fd5b60006001600085815260200190815260200160002060060154600160008681526020019081526020016000206005015461197b919061248e565b9050803410156119c45783816040517ffea0958a0000000000000000000000000000000000000000000000000000000081526004016119bb9291906126e0565b60405180910390fd5b3360026000868152602001908152602001600020600260008781526020019081526020016000208054905081548110611a00576119ff612430565b5b906000526020600020906003020160000160006101000a81548173ffffffffffffffffffffffffffffffffffffffff021916908373ffffffffffffffffffffffffffffffffffffffff160217905550600060026000868152602001908152602001600020600260008781526020019081526020016000208054905081548110611a8c57611a8b612430565b5b906000526020600020906003020160020160006101000a81548160ff02191690836006811115611abf57611abe6121bf565b5b02179055507fea2bf18cdaf74f8bd6d3fc5c7d0e89165af029961e99d76595e7b03c374aa6b9843360026000888152602001908152602001600020600260008981526020019081526020016000208054905081548110611b2257611b21612430565b5b906000526020600020906003020160020160009054906101000a900460ff16604051611b509392919061252b565b60405180910390a150505050565b600080600090505b6002600084815260200190815260200160002080549050811015611c29573373ffffffffffffffffffffffffffffffffffffffff16600260008581526020019081526020016000208281548110611bc057611bbf612430565b5b906000526020600020906003020160000160009054906101000a900473ffffffffffffffffffffffffffffffffffffffff1673ffffffffffffffffffffffffffffffffffffffff1603611c165780915050611c2f565b8080611c2190612562565b915050611b66565b50600090505b919050565b60008a60005b600080549050811015611cb15760008181548110611c5b57611c5a612430565b5b90600052602060002001548203611c9e576040517f6b9108f800000000000000000000000000000000000000000000000000000000815260040160405180910390fd5b8080611ca990612562565b915050611c3a565b508a8a42821080611cc25750808210155b15611cf9576040517f5e83d5f800000000000000000000000000000000000000000000000000000000815260040160405180910390fd5b8b8b808210611d34576040517f7a9971e800000000000000000000000000000000000000000000000000000000815260040160405180910390fd5b8c8c808210611d6f576040517fe2049fa500000000000000000000000000000000000000000000000000000000815260040160405180910390fd5b8d8d808210611daa576040517fcc2116a000000000000000000000000000000000000000000000000000000000815260040160405180910390fd5b8d60008111611de5576040517fb25c88c500000000000000000000000000000000000000000000000000000000815260040160405180910390fd5b8d60008111611e20576040517fb0f07a6300000000000000000000000000000000000000000000000000000000815260040160405180910390fd5b8d60008111611e5b576040517ffb833a9900000000000000000000000000000000000000000000000000000000815260040160405180910390fd5b8d60008111611e96576040517fa9ed13a300000000000000000000000000000000000000000000000000000000815260040160405180910390fd5b60019d50505050505050505050505050509a9950505050505050505050565b6040518061012001604052806000815260200160008152602001600081526020016000815260200160008152602001600081526020016000815260200160008152602001600081525090565b600080fd5b6000819050919050565b611f1981611f06565b8114611f2457600080fd5b50565b600081359050611f3681611f10565b92915050565b600060208284031215611f5257611f51611f01565b5b6000611f6084828501611f27565b91505092915050565b600081519050919050565b600082825260208201905092915050565b6000819050602082019050919050565b611f9e81611f06565b82525050565b6000611fb08383611f95565b60208301905092915050565b6000602082019050919050565b6000611fd482611f69565b611fde8185611f74565b9350611fe983611f85565b8060005b8381101561201a5781516120018882611fa4565b975061200c83611fbc565b925050600181019050611fed565b5085935050505092915050565b600060208201905081810360008301526120418184611fc9565b905092915050565b61205281611f06565b82525050565b600060208201905061206d6000830184612049565b92915050565b6000806000806000806000806000806101408b8d03121561209757612096611f01565b5b60006120a58d828e01611f27565b9a505060206120b68d828e01611f27565b99505060406120c78d828e01611f27565b98505060606120d88d828e01611f27565b97505060806120e98d828e01611f27565b96505060a06120fa8d828e01611f27565b95505060c061210b8d828e01611f27565b94505060e061211c8d828e01611f27565b93505061010061212e8d828e01611f27565b9250506101206121408d828e01611f27565b9150509295989b9194979a5092959850565b600081519050919050565b600082825260208201905092915050565b6000819050602082019050919050565b600073ffffffffffffffffffffffffffffffffffffffff82169050919050565b60006121a98261217e565b9050919050565b6121b98161219e565b82525050565b7f4e487b7100000000000000000000000000000000000000000000000000000000600052602160045260246000fd5b600781106121ff576121fe6121bf565b5b50565b6000819050612210826121ee565b919050565b600061222082612202565b9050919050565b61223081612215565b82525050565b60608201600082015161224c60008501826121b0565b50602082015161225f6020850182611f95565b5060408201516122726040850182612227565b50505050565b60006122848383612236565b60608301905092915050565b6000602082019050919050565b60006122a882612152565b6122b2818561215d565b93506122bd8361216e565b8060005b838110156122ee5781516122d58882612278565b97506122e083612290565b9250506001810190506122c1565b5085935050505092915050565b60006020820190508181036000830152612315818461229d565b905092915050565b6000806040838503121561233457612333611f01565b5b600061234285828601611f27565b925050602061235385828601611f27565b9150509250929050565b610120820160008201516123746000850182611f95565b5060208201516123876020850182611f95565b50604082015161239a6040850182611f95565b5060608201516123ad6060850182611f95565b5060808201516123c06080850182611f95565b5060a08201516123d360a0850182611f95565b5060c08201516123e660c0850182611f95565b5060e08201516123f960e0850182611f95565b5061010082015161240e610100850182611f95565b50505050565b60006101208201905061242a600083018461235d565b92915050565b7f4e487b7100000000000000000000000000000000000000000000000000000000600052603260045260246000fd5b7f4e487b7100000000000000000000000000000000000000000000000000000000600052601160045260246000fd5b600061249982611f06565b91506124a483611f06565b92508282019050808211156124bc576124bb61245f565b5b92915050565b600061ffff82169050919050565b60006124db826124c2565b91506124e6836124c2565b92508282026124f4816124c2565b91508082146125065761250561245f565b5b5092915050565b6125168161219e565b82525050565b61252581612215565b82525050565b60006060820190506125406000830186612049565b61254d602083018561250d565b61255a604083018461251c565b949350505050565b600061256d82611f06565b91507fffffffffffffffffffffffffffffffffffffffffffffffffffffffffffffffff820361259f5761259e61245f565b5b600182019050919050565b60006125b582611f06565b91506125c083611f06565b92508282039050818111156125d8576125d761245f565b5b92915050565b7f4e487b7100000000000000000000000000000000000000000000000000000000600052603160045260246000fd5b600061014082019050612623600083018d612049565b612630602083018c612049565b61263d604083018b612049565b61264a606083018a612049565b6126576080830189612049565b61266460a0830188612049565b61267160c0830187612049565b61267e60e0830186612049565b61268c610100830185612049565b61269a610120830184612049565b9b9a5050505050505050505050565b60006060820190506126be6000830186612049565b6126cb602083018561250d565b6126d86040830184612049565b949350505050565b60006040820190506126f56000830185612049565b6127026020830184612049565b939250505056fea2646970667358221220af78751923ada650587f9420aaf6639087737f7c2269f26648a38b606097f56764736f6c63430008110033",
  "devdoc": {
    "author": "Nguyen Thanh Trung",
    "details": "This implements the auctioneer job",
    "kind": "dev",
    "methods": {},
    "title": "Decentralized Auction",
    "version": 1
  },
  "userdoc": {
    "kind": "user",
    "methods": {},
    "notice": "This contract is for Decentralized Auction Platform",
    "version": 1
  },
  "storageLayout": {
    "storage": [
      {
        "astId": 53,
        "contract": "contracts/Auction.sol:Auction",
        "label": "s_auctionList",
        "offset": 0,
        "slot": "0",
        "type": "t_array(t_uint256)dyn_storage"
      },
      {
        "astId": 162,
        "contract": "contracts/Auction.sol:Auction",
        "label": "s_AuctionInformations",
        "offset": 0,
        "slot": "1",
        "type": "t_mapping(t_uint256,t_struct(AuctionInformation)83_storage)"
      },
      {
        "astId": 168,
        "contract": "contracts/Auction.sol:Auction",
        "label": "s_BidInformations",
        "offset": 0,
        "slot": "2",
        "type": "t_mapping(t_uint256,t_array(t_struct(BidInformation)91_storage)dyn_storage)"
      }
    ],
    "types": {
      "t_address": {
        "encoding": "inplace",
        "label": "address",
        "numberOfBytes": "20"
      },
      "t_array(t_struct(BidInformation)91_storage)dyn_storage": {
        "base": "t_struct(BidInformation)91_storage",
        "encoding": "dynamic_array",
        "label": "struct Auction.BidInformation[]",
        "numberOfBytes": "32"
      },
      "t_array(t_uint256)dyn_storage": {
        "base": "t_uint256",
        "encoding": "dynamic_array",
        "label": "uint256[]",
        "numberOfBytes": "32"
      },
      "t_enum(BidderState)64": {
        "encoding": "inplace",
        "label": "enum Auction.BidderState",
        "numberOfBytes": "1"
      },
      "t_mapping(t_uint256,t_array(t_struct(BidInformation)91_storage)dyn_storage)": {
        "encoding": "mapping",
        "key": "t_uint256",
        "label": "mapping(uint256 => struct Auction.BidInformation[])",
        "numberOfBytes": "32",
        "value": "t_array(t_struct(BidInformation)91_storage)dyn_storage"
      },
      "t_mapping(t_uint256,t_struct(AuctionInformation)83_storage)": {
        "encoding": "mapping",
        "key": "t_uint256",
        "label": "mapping(uint256 => struct Auction.AuctionInformation)",
        "numberOfBytes": "32",
        "value": "t_struct(AuctionInformation)83_storage"
      },
      "t_struct(AuctionInformation)83_storage": {
        "encoding": "inplace",
        "label": "struct Auction.AuctionInformation",
        "members": [
          {
            "astId": 66,
            "contract": "contracts/Auction.sol:Auction",
            "label": "startRegistrationTime",
            "offset": 0,
            "slot": "0",
            "type": "t_uint256"
          },
          {
            "astId": 68,
            "contract": "contracts/Auction.sol:Auction",
            "label": "endRegistrationTime",
            "offset": 0,
            "slot": "1",
            "type": "t_uint256"
          },
          {
            "astId": 70,
            "contract": "contracts/Auction.sol:Auction",
            "label": "startAuctionTime",
            "offset": 0,
            "slot": "2",
            "type": "t_uint256"
          },
          {
            "astId": 72,
            "contract": "contracts/Auction.sol:Auction",
            "label": "endAuctionTime",
            "offset": 0,
            "slot": "3",
            "type": "t_uint256"
          },
          {
            "astId": 74,
            "contract": "contracts/Auction.sol:Auction",
            "label": "duePaymentTime",
            "offset": 0,
            "slot": "4",
            "type": "t_uint256"
          },
          {
            "astId": 76,
            "contract": "contracts/Auction.sol:Auction",
            "label": "registrationFee",
            "offset": 0,
            "slot": "5",
            "type": "t_uint256"
          },
          {
            "astId": 78,
            "contract": "contracts/Auction.sol:Auction",
            "label": "depositAmount",
            "offset": 0,
            "slot": "6",
            "type": "t_uint256"
          },
          {
            "astId": 80,
            "contract": "contracts/Auction.sol:Auction",
            "label": "startBid",
            "offset": 0,
            "slot": "7",
            "type": "t_uint256"
          },
          {
            "astId": 82,
            "contract": "contracts/Auction.sol:Auction",
            "label": "priceStep",
            "offset": 0,
            "slot": "8",
            "type": "t_uint256"
          }
        ],
        "numberOfBytes": "288"
      },
      "t_struct(BidInformation)91_storage": {
        "encoding": "inplace",
        "label": "struct Auction.BidInformation",
        "members": [
          {
            "astId": 85,
            "contract": "contracts/Auction.sol:Auction",
            "label": "bidder",
            "offset": 0,
            "slot": "0",
            "type": "t_address"
          },
          {
            "astId": 87,
            "contract": "contracts/Auction.sol:Auction",
            "label": "bidAmount",
            "offset": 0,
            "slot": "1",
            "type": "t_uint256"
          },
          {
            "astId": 90,
            "contract": "contracts/Auction.sol:Auction",
            "label": "bidderState",
            "offset": 0,
            "slot": "2",
            "type": "t_enum(BidderState)64"
          }
        ],
        "numberOfBytes": "96"
      },
      "t_uint256": {
        "encoding": "inplace",
        "label": "uint256",
        "numberOfBytes": "32"
      }
    }
  }
}