{
  "address": "0x5FbDB2315678afecb367f032d93F642f64180aa3",
  "abi": [
    {
      "inputs": [],
      "name": "Auction__InvalidAuctionId",
      "type": "error"
    },
    {
      "inputs": [],
      "name": "Auction__InvalidAuctionTime",
      "type": "error"
    },
    {
      "inputs": [],
      "name": "Auction__InvalidBidAmount",
      "type": "error"
    },
    {
      "inputs": [],
      "name": "Auction__InvalidDepositAmount",
      "type": "error"
    },
    {
      "inputs": [],
      "name": "Auction__InvalidDuePaymentTime",
      "type": "error"
    },
    {
      "inputs": [],
      "name": "Auction__InvalidPriceStep",
      "type": "error"
    },
    {
      "inputs": [],
      "name": "Auction__InvalidRegistrationFee",
      "type": "error"
    },
    {
      "inputs": [],
      "name": "Auction__InvalidRegistrationTime",
      "type": "error"
    },
    {
      "inputs": [],
      "name": "Auction__InvalidStartAuctionTime",
      "type": "error"
    },
    {
      "inputs": [],
      "name": "Auction__InvalidStartBid",
      "type": "error"
    },
    {
      "inputs": [],
      "name": "Auction__NotRegisteredBidder",
      "type": "error"
    },
    {
      "inputs": [],
      "name": "Auction__OutOfAuctionTime",
      "type": "error"
    },
    {
      "inputs": [],
      "name": "Auction__OutOfRegistrationTime",
      "type": "error"
    },
    {
      "inputs": [
        {
          "internalType": "uint256",
          "name": "auctionId",
          "type": "uint256"
        },
        {
          "internalType": "uint256",
          "name": "requireAmountToRegister",
          "type": "uint256"
        }
      ],
      "name": "Auction__RequireAmountToRegisterNotMet",
      "type": "error"
    },
    {
      "anonymous": false,
      "inputs": [
        {
          "indexed": false,
          "internalType": "uint256",
          "name": "startRegistrationTime",
          "type": "uint256"
        },
        {
          "indexed": false,
          "internalType": "uint256",
          "name": "endRegistrationTime",
          "type": "uint256"
        },
        {
          "indexed": false,
          "internalType": "uint256",
          "name": "startAuctionTime",
          "type": "uint256"
        },
        {
          "indexed": false,
          "internalType": "uint256",
          "name": "endAuctionTime",
          "type": "uint256"
        },
        {
          "indexed": false,
          "internalType": "uint256",
          "name": "duePaymentTime",
          "type": "uint256"
        },
        {
          "indexed": false,
          "internalType": "uint256",
          "name": "registrationFee",
          "type": "uint256"
        },
        {
          "indexed": false,
          "internalType": "uint256",
          "name": "depositAmount",
          "type": "uint256"
        },
        {
          "indexed": false,
          "internalType": "uint256",
          "name": "startBid",
          "type": "uint256"
        },
        {
          "indexed": false,
          "internalType": "uint256",
          "name": "priceStep",
          "type": "uint256"
        }
      ],
      "name": "CreatedAuction",
      "type": "event"
    },
    {
      "anonymous": false,
      "inputs": [
        {
          "indexed": false,
          "internalType": "uint256",
          "name": "auctionId",
          "type": "uint256"
        },
        {
          "indexed": false,
          "internalType": "address",
          "name": "bidder",
          "type": "address"
        },
        {
          "indexed": false,
          "internalType": "uint256",
          "name": "bidAmount",
          "type": "uint256"
        }
      ],
      "name": "PlacedBid",
      "type": "event"
    },
    {
      "anonymous": false,
      "inputs": [
        {
          "indexed": false,
          "internalType": "uint256",
          "name": "auctionId",
          "type": "uint256"
        },
        {
          "indexed": false,
          "internalType": "address",
          "name": "bidder",
          "type": "address"
        }
      ],
      "name": "RegisteredToBid",
      "type": "event"
    },
    {
      "inputs": [],
      "name": "closeAuction",
      "outputs": [],
      "stateMutability": "nonpayable",
      "type": "function"
    },
    {
      "inputs": [
        {
          "internalType": "uint256",
          "name": "auctionId",
          "type": "uint256"
        },
        {
          "internalType": "uint256",
          "name": "startRegistrationTime",
          "type": "uint256"
        },
        {
          "internalType": "uint256",
          "name": "endRegistrationTime",
          "type": "uint256"
        },
        {
          "internalType": "uint256",
          "name": "startAuctionTime",
          "type": "uint256"
        },
        {
          "internalType": "uint256",
          "name": "endAuctionTime",
          "type": "uint256"
        },
        {
          "internalType": "uint256",
          "name": "duePaymentTime",
          "type": "uint256"
        },
        {
          "internalType": "uint256",
          "name": "registrationFee",
          "type": "uint256"
        },
        {
          "internalType": "uint256",
          "name": "depositAmount",
          "type": "uint256"
        },
        {
          "internalType": "uint256",
          "name": "startBid",
          "type": "uint256"
        },
        {
          "internalType": "uint256",
          "name": "priceStep",
          "type": "uint256"
        }
      ],
      "name": "createAuction",
      "outputs": [],
      "stateMutability": "payable",
      "type": "function"
    },
    {
      "inputs": [
        {
          "internalType": "uint256",
          "name": "auctionId",
          "type": "uint256"
        }
      ],
      "name": "getHightestBidOfAuction",
      "outputs": [
        {
          "internalType": "uint256",
          "name": "",
          "type": "uint256"
        }
      ],
      "stateMutability": "view",
      "type": "function"
    },
    {
      "inputs": [
        {
          "internalType": "uint256",
          "name": "auctionId",
          "type": "uint256"
        }
      ],
      "name": "getIndexOfBidder",
      "outputs": [
        {
          "internalType": "uint256",
          "name": "",
          "type": "uint256"
        }
      ],
      "stateMutability": "view",
      "type": "function"
    },
    {
      "inputs": [
        {
          "internalType": "uint256",
          "name": "auctionId",
          "type": "uint256"
        },
        {
          "internalType": "uint256",
          "name": "bidAmount",
          "type": "uint256"
        }
      ],
      "name": "placeBid",
      "outputs": [],
      "stateMutability": "payable",
      "type": "function"
    },
    {
      "inputs": [
        {
          "internalType": "uint256",
          "name": "auctionId",
          "type": "uint256"
        }
      ],
      "name": "registerToBid",
      "outputs": [],
      "stateMutability": "payable",
      "type": "function"
    },
    {
      "inputs": [
        {
          "internalType": "uint256",
          "name": "",
          "type": "uint256"
        }
      ],
      "name": "s_auctionInfomations",
      "outputs": [
        {
          "internalType": "uint256",
          "name": "startRegistrationTime",
          "type": "uint256"
        },
        {
          "internalType": "uint256",
          "name": "endRegistrationTime",
          "type": "uint256"
        },
        {
          "internalType": "uint256",
          "name": "startAuctionTime",
          "type": "uint256"
        },
        {
          "internalType": "uint256",
          "name": "endAuctionTime",
          "type": "uint256"
        },
        {
          "internalType": "uint256",
          "name": "duePaymentTime",
          "type": "uint256"
        },
        {
          "internalType": "uint256",
          "name": "registrationFee",
          "type": "uint256"
        },
        {
          "internalType": "uint256",
          "name": "depositAmount",
          "type": "uint256"
        },
        {
          "internalType": "uint256",
          "name": "startBid",
          "type": "uint256"
        },
        {
          "internalType": "uint256",
          "name": "priceStep",
          "type": "uint256"
        }
      ],
      "stateMutability": "view",
      "type": "function"
    },
    {
      "inputs": [
        {
          "internalType": "uint256",
          "name": "",
          "type": "uint256"
        },
        {
          "internalType": "uint256",
          "name": "",
          "type": "uint256"
        }
      ],
      "name": "s_bidInfomations",
      "outputs": [
        {
          "internalType": "address",
          "name": "bidder",
          "type": "address"
        },
        {
          "internalType": "uint256",
          "name": "bidAmount",
          "type": "uint256"
        }
      ],
      "stateMutability": "view",
      "type": "function"
    },
    {
      "inputs": [],
      "name": "withdaw",
      "outputs": [],
      "stateMutability": "nonpayable",
      "type": "function"
    }
  ],
  "transactionHash": "0x8cee6ce6c25175e1913b526fbf098e8e0de4fd6bc8b0105116aed93db16a833c",
  "args": [],
  "numDeployments": 1,
  "solcInputHash": "151a4b3e33a46f3f5f2a43f67424b6d4",
  "bytecode": "0x608060405234801561001057600080fd5b506111d9806100206000396000f3fe6080604052600436106100865760003560e01c8063485f422211610059578063485f42221461016257806357c90de51461017e57806365dfc3681461019a578063c73a090a146101b1578063c832aae8146101ee57610086565b806316e349191461008b5780632109db40146100d0578063378252f21461010e5780634206250814610125575b600080fd5b34801561009757600080fd5b506100b260048036038101906100ad9190610dd3565b61020a565b6040516100c799989796959493929190610e0f565b60405180910390f35b3480156100dc57600080fd5b506100f760048036038101906100f29190610e9c565b610258565b604051610105929190610f1d565b60405180910390f35b34801561011a57600080fd5b506101236102b9565b005b34801561013157600080fd5b5061014c60048036038101906101479190610dd3565b6102bb565b6040516101599190610f46565b60405180910390f35b61017c60048036038101906101779190610f61565b610378565b005b61019860048036038101906101939190610e9c565b6104e2565b005b3480156101a657600080fd5b506101af6107f5565b005b3480156101bd57600080fd5b506101d860048036038101906101d39190610dd3565b6107f7565b6040516101e59190610f46565b60405180910390f35b61020860048036038101906102039190610dd3565b6108cd565b005b60016020528060005260406000206000915090508060000154908060010154908060020154908060030154908060040154908060050154908060060154908060070154908060080154905089565b6002602052816000526040600020818154811061027457600080fd5b9060005260206000209060020201600091509150508060000160009054906101000a900473ffffffffffffffffffffffffffffffffffffffff16908060010154905082565b565b6000806000905060005b600260008581526020019081526020016000208054905081101561036e578160026000868152602001908152602001600020828154811061030957610308611040565b5b906000526020600020906002020160010154111561035b5760026000858152602001908152602001600020818154811061034657610345611040565b5b90600052602060002090600202016001015491505b80806103669061109e565b9150506102c5565b5080915050919050565b61038a8a8a8a8a8a8a8a8a8a8a610ae9565b156104d657610397610d4c565b8981600001818152505088816020018181525050878160400181815250508681606001818152505085816080018181525050848160a0018181525050838160c0018181525050828160e0018181525050818161010001818152505080600160008d8152602001908152602001600020600082015181600001556020820151816001015560408201518160020155606082015181600301556080820151816004015560a0820151816005015560c0820151816006015560e08201518160070155610100820151816008015590505060008b90806001815401808255809150506001900390600052602060002001600090919091909150557f6ae42676b4dce76bd4ec1e32af30902b805a98ca736a9194ceadb4f954adc20e8a8a8a8a8a8a8a8a8a6040516104cc99989796959493929190610e0f565b60405180910390a1505b50505050505050505050565b81600080600090505b6000805490508110156105195781806105039061109e565b92505080806105119061109e565b9150506104eb565b506000805490508103610558576040517f6b9108f800000000000000000000000000000000000000000000000000000000815260040160405180910390fd5b8342600160008381526020019081526020016000206002015410806105925750426001600083815260200190815260200160002060030154115b156105c9576040517f355d234800000000000000000000000000000000000000000000000000000000815260040160405180910390fd5b846000805b6002600084815260200190815260200160002080549050811015610697573373ffffffffffffffffffffffffffffffffffffffff1660026000858152602001908152602001600020828154811061062857610627611040565b5b906000526020600020906002020160000160009054906101000a900473ffffffffffffffffffffffffffffffffffffffff1673ffffffffffffffffffffffffffffffffffffffff16146106845781806106809061109e565b9250505b808061068f9061109e565b9150506105ce565b50600260008381526020019081526020016000208054905081036106e7576040517f2ffd4a0c00000000000000000000000000000000000000000000000000000000815260040160405180910390fd5b8686600160008381526020019081526020016000206006015481108061073557506001600083815260200190815260200160002060080154610728836102bb565b61073291906110e6565b81105b1561076c576040517fabdda60f00000000000000000000000000000000000000000000000000000000815260040160405180910390fd5b87600260008b81526020019081526020016000206107898b6107f7565b8154811061079a57610799611040565b5b9060005260206000209060020201600101819055507f897645643062f7e221aec187272e76020e3832294b4bf87b8f683c4e3ef8aa6d89338a6040516107e29392919061111a565b60405180910390a1505050505050505050565b565b600080600090505b60026000848152602001908152602001600020805490508110156108c2573373ffffffffffffffffffffffffffffffffffffffff1660026000858152602001908152602001600020828154811061085957610858611040565b5b906000526020600020906002020160000160009054906101000a900473ffffffffffffffffffffffffffffffffffffffff1673ffffffffffffffffffffffffffffffffffffffff16036108af57809150506108c8565b80806108ba9061109e565b9150506107ff565b50600090505b919050565b8060005b60008054905081101561092a57808203610917576040517f6b9108f800000000000000000000000000000000000000000000000000000000815260040160405180910390fd5b80806109229061109e565b9150506108d1565b508142600160008381526020019081526020016000206000015410806109655750426001600083815260200190815260200160002060010154115b1561099c576040517f60acd97900000000000000000000000000000000000000000000000000000000815260040160405180910390fd5b6000600160008581526020019081526020016000206006015460016000868152602001908152602001600020600501546109d691906110e6565b905080341015610a1f5783816040517ffea0958a000000000000000000000000000000000000000000000000000000008152600401610a16929190611151565b60405180910390fd5b3360026000868152602001908152602001600020600260008781526020019081526020016000208054905081548110610a5b57610a5a611040565b5b906000526020600020906002020160000160006101000a81548173ffffffffffffffffffffffffffffffffffffffff021916908373ffffffffffffffffffffffffffffffffffffffff1602179055507fc8e8a52ec1fa7775a3d2e5e7a7f1173441f31b9ee4047c62482192a3d497a2778433604051610adb92919061117a565b60405180910390a150505050565b60008a60005b600080549050811015610b4857808203610b35576040517f6b9108f800000000000000000000000000000000000000000000000000000000815260040160405180910390fd5b8080610b409061109e565b915050610aef565b508a8a42821080610b595750808210155b15610b90576040517f5e83d5f800000000000000000000000000000000000000000000000000000000815260040160405180910390fd5b8b8b808210610bcb576040517f7a9971e800000000000000000000000000000000000000000000000000000000815260040160405180910390fd5b8c8c808210610c06576040517fe2049fa500000000000000000000000000000000000000000000000000000000815260040160405180910390fd5b8d8d808210610c41576040517fcc2116a000000000000000000000000000000000000000000000000000000000815260040160405180910390fd5b8d60008111610c7c576040517fb25c88c500000000000000000000000000000000000000000000000000000000815260040160405180910390fd5b8d60008111610cb7576040517fb0f07a6300000000000000000000000000000000000000000000000000000000815260040160405180910390fd5b8d60008111610cf2576040517ffb833a9900000000000000000000000000000000000000000000000000000000815260040160405180910390fd5b8d60008111610d2d576040517fa9ed13a300000000000000000000000000000000000000000000000000000000815260040160405180910390fd5b60019d50505050505050505050505050509a9950505050505050505050565b6040518061012001604052806000815260200160008152602001600081526020016000815260200160008152602001600081526020016000815260200160008152602001600081525090565b600080fd5b6000819050919050565b610db081610d9d565b8114610dbb57600080fd5b50565b600081359050610dcd81610da7565b92915050565b600060208284031215610de957610de8610d98565b5b6000610df784828501610dbe565b91505092915050565b610e0981610d9d565b82525050565b600061012082019050610e25600083018c610e00565b610e32602083018b610e00565b610e3f604083018a610e00565b610e4c6060830189610e00565b610e596080830188610e00565b610e6660a0830187610e00565b610e7360c0830186610e00565b610e8060e0830185610e00565b610e8e610100830184610e00565b9a9950505050505050505050565b60008060408385031215610eb357610eb2610d98565b5b6000610ec185828601610dbe565b9250506020610ed285828601610dbe565b9150509250929050565b600073ffffffffffffffffffffffffffffffffffffffff82169050919050565b6000610f0782610edc565b9050919050565b610f1781610efc565b82525050565b6000604082019050610f326000830185610f0e565b610f3f6020830184610e00565b9392505050565b6000602082019050610f5b6000830184610e00565b92915050565b6000806000806000806000806000806101408b8d031215610f8557610f84610d98565b5b6000610f938d828e01610dbe565b9a50506020610fa48d828e01610dbe565b9950506040610fb58d828e01610dbe565b9850506060610fc68d828e01610dbe565b9750506080610fd78d828e01610dbe565b96505060a0610fe88d828e01610dbe565b95505060c0610ff98d828e01610dbe565b94505060e061100a8d828e01610dbe565b93505061010061101c8d828e01610dbe565b92505061012061102e8d828e01610dbe565b9150509295989b9194979a5092959850565b7f4e487b7100000000000000000000000000000000000000000000000000000000600052603260045260246000fd5b7f4e487b7100000000000000000000000000000000000000000000000000000000600052601160045260246000fd5b60006110a982610d9d565b91507fffffffffffffffffffffffffffffffffffffffffffffffffffffffffffffffff82036110db576110da61106f565b5b600182019050919050565b60006110f182610d9d565b91506110fc83610d9d565b92508282019050808211156111145761111361106f565b5b92915050565b600060608201905061112f6000830186610e00565b61113c6020830185610f0e565b6111496040830184610e00565b949350505050565b60006040820190506111666000830185610e00565b6111736020830184610e00565b9392505050565b600060408201905061118f6000830185610e00565b61119c6020830184610f0e565b939250505056fea2646970667358221220554fa850aba05196008cb4ce5ac937bb09778d78e0d8651458991f826dd5b3cb64736f6c63430008110033",
  "devdoc": {
    "kind": "dev",
    "methods": {},
    "version": 1
  },
  "userdoc": {
    "kind": "user",
    "methods": {},
    "version": 1
  },
  "storageLayout": {
    "storage": [
      {
        "astId": 38,
        "contract": "contracts/Auction.sol:Auction",
        "label": "s_auctionList",
        "offset": 0,
        "slot": "0",
        "type": "t_array(t_uint256)dyn_storage"
      },
      {
        "astId": 104,
        "contract": "contracts/Auction.sol:Auction",
        "label": "s_auctionInfomations",
        "offset": 0,
        "slot": "1",
        "type": "t_mapping(t_uint256,t_struct(AuctionInfomation)60_storage)"
      },
      {
        "astId": 110,
        "contract": "contracts/Auction.sol:Auction",
        "label": "s_bidInfomations",
        "offset": 0,
        "slot": "2",
        "type": "t_mapping(t_uint256,t_array(t_struct(BidInfomation)65_storage)dyn_storage)"
      }
    ],
    "types": {
      "t_address": {
        "encoding": "inplace",
        "label": "address",
        "numberOfBytes": "20"
      },
      "t_array(t_struct(BidInfomation)65_storage)dyn_storage": {
        "base": "t_struct(BidInfomation)65_storage",
        "encoding": "dynamic_array",
        "label": "struct Auction.BidInfomation[]",
        "numberOfBytes": "32"
      },
      "t_array(t_uint256)dyn_storage": {
        "base": "t_uint256",
        "encoding": "dynamic_array",
        "label": "uint256[]",
        "numberOfBytes": "32"
      },
      "t_mapping(t_uint256,t_array(t_struct(BidInfomation)65_storage)dyn_storage)": {
        "encoding": "mapping",
        "key": "t_uint256",
        "label": "mapping(uint256 => struct Auction.BidInfomation[])",
        "numberOfBytes": "32",
        "value": "t_array(t_struct(BidInfomation)65_storage)dyn_storage"
      },
      "t_mapping(t_uint256,t_struct(AuctionInfomation)60_storage)": {
        "encoding": "mapping",
        "key": "t_uint256",
        "label": "mapping(uint256 => struct Auction.AuctionInfomation)",
        "numberOfBytes": "32",
        "value": "t_struct(AuctionInfomation)60_storage"
      },
      "t_struct(AuctionInfomation)60_storage": {
        "encoding": "inplace",
        "label": "struct Auction.AuctionInfomation",
        "members": [
          {
            "astId": 43,
            "contract": "contracts/Auction.sol:Auction",
            "label": "startRegistrationTime",
            "offset": 0,
            "slot": "0",
            "type": "t_uint256"
          },
          {
            "astId": 45,
            "contract": "contracts/Auction.sol:Auction",
            "label": "endRegistrationTime",
            "offset": 0,
            "slot": "1",
            "type": "t_uint256"
          },
          {
            "astId": 47,
            "contract": "contracts/Auction.sol:Auction",
            "label": "startAuctionTime",
            "offset": 0,
            "slot": "2",
            "type": "t_uint256"
          },
          {
            "astId": 49,
            "contract": "contracts/Auction.sol:Auction",
            "label": "endAuctionTime",
            "offset": 0,
            "slot": "3",
            "type": "t_uint256"
          },
          {
            "astId": 51,
            "contract": "contracts/Auction.sol:Auction",
            "label": "duePaymentTime",
            "offset": 0,
            "slot": "4",
            "type": "t_uint256"
          },
          {
            "astId": 53,
            "contract": "contracts/Auction.sol:Auction",
            "label": "registrationFee",
            "offset": 0,
            "slot": "5",
            "type": "t_uint256"
          },
          {
            "astId": 55,
            "contract": "contracts/Auction.sol:Auction",
            "label": "depositAmount",
            "offset": 0,
            "slot": "6",
            "type": "t_uint256"
          },
          {
            "astId": 57,
            "contract": "contracts/Auction.sol:Auction",
            "label": "startBid",
            "offset": 0,
            "slot": "7",
            "type": "t_uint256"
          },
          {
            "astId": 59,
            "contract": "contracts/Auction.sol:Auction",
            "label": "priceStep",
            "offset": 0,
            "slot": "8",
            "type": "t_uint256"
          }
        ],
        "numberOfBytes": "288"
      },
      "t_struct(BidInfomation)65_storage": {
        "encoding": "inplace",
        "label": "struct Auction.BidInfomation",
        "members": [
          {
            "astId": 62,
            "contract": "contracts/Auction.sol:Auction",
            "label": "bidder",
            "offset": 0,
            "slot": "0",
            "type": "t_address"
          },
          {
            "astId": 64,
            "contract": "contracts/Auction.sol:Auction",
            "label": "bidAmount",
            "offset": 0,
            "slot": "1",
            "type": "t_uint256"
          }
        ],
        "numberOfBytes": "64"
      },
      "t_uint256": {
        "encoding": "inplace",
        "label": "uint256",
        "numberOfBytes": "32"
      }
    }
  }
}