{
  "address": "0x5FbDB2315678afecb367f032d93F642f64180aa3",
  "abi": [
    {
      "inputs": [],
      "name": "Auction__InvalidAuctionId",
      "type": "error"
    },
    {
      "inputs": [],
      "name": "Auction__InvalidAuctionTime",
      "type": "error"
    },
    {
      "inputs": [],
      "name": "Auction__InvalidBidAmount",
      "type": "error"
    },
    {
      "inputs": [],
      "name": "Auction__InvalidDepositAmount",
      "type": "error"
    },
    {
      "inputs": [],
      "name": "Auction__InvalidDuePaymentTime",
      "type": "error"
    },
    {
      "inputs": [],
      "name": "Auction__InvalidPriceStep",
      "type": "error"
    },
    {
      "inputs": [],
      "name": "Auction__InvalidRegistrationFee",
      "type": "error"
    },
    {
      "inputs": [],
      "name": "Auction__InvalidRegistrationTime",
      "type": "error"
    },
    {
      "inputs": [],
      "name": "Auction__InvalidStartAuctionTime",
      "type": "error"
    },
    {
      "inputs": [],
      "name": "Auction__InvalidStartBid",
      "type": "error"
    },
    {
      "inputs": [],
      "name": "Auction__NotExistAuctionId",
      "type": "error"
    },
    {
      "inputs": [],
      "name": "Auction__NotRegisteredBidder",
      "type": "error"
    },
    {
      "inputs": [],
      "name": "Auction__OutOfAuctionTime",
      "type": "error"
    },
    {
      "inputs": [],
      "name": "Auction__OutOfRegistrationTime",
      "type": "error"
    },
    {
      "inputs": [
        {
          "internalType": "uint256",
          "name": "auctionId",
          "type": "uint256"
        },
        {
          "internalType": "uint256",
          "name": "requireAmountToRegister",
          "type": "uint256"
        }
      ],
      "name": "Auction__RequireAmountToRegisterNotMet",
      "type": "error"
    },
    {
      "anonymous": false,
      "inputs": [
        {
          "indexed": false,
          "internalType": "uint256",
          "name": "auctionId",
          "type": "uint256"
        },
        {
          "indexed": false,
          "internalType": "uint256",
          "name": "startRegistrationTime",
          "type": "uint256"
        },
        {
          "indexed": false,
          "internalType": "uint256",
          "name": "endRegistrationTime",
          "type": "uint256"
        },
        {
          "indexed": false,
          "internalType": "uint256",
          "name": "startAuctionTime",
          "type": "uint256"
        },
        {
          "indexed": false,
          "internalType": "uint256",
          "name": "endAuctionTime",
          "type": "uint256"
        },
        {
          "indexed": false,
          "internalType": "uint256",
          "name": "duePaymentTime",
          "type": "uint256"
        },
        {
          "indexed": false,
          "internalType": "uint256",
          "name": "registrationFee",
          "type": "uint256"
        },
        {
          "indexed": false,
          "internalType": "uint256",
          "name": "depositAmount",
          "type": "uint256"
        },
        {
          "indexed": false,
          "internalType": "uint256",
          "name": "startBid",
          "type": "uint256"
        },
        {
          "indexed": false,
          "internalType": "uint256",
          "name": "priceStep",
          "type": "uint256"
        }
      ],
      "name": "CreatedAuction",
      "type": "event"
    },
    {
      "anonymous": false,
      "inputs": [
        {
          "indexed": false,
          "internalType": "uint256",
          "name": "auctionId",
          "type": "uint256"
        },
        {
          "indexed": false,
          "internalType": "address",
          "name": "bidder",
          "type": "address"
        },
        {
          "indexed": false,
          "internalType": "uint256",
          "name": "bidAmount",
          "type": "uint256"
        }
      ],
      "name": "PlacedBid",
      "type": "event"
    },
    {
      "anonymous": false,
      "inputs": [
        {
          "indexed": false,
          "internalType": "uint256",
          "name": "auctionId",
          "type": "uint256"
        },
        {
          "indexed": false,
          "internalType": "address",
          "name": "bidder",
          "type": "address"
        }
      ],
      "name": "RegisteredToBid",
      "type": "event"
    },
    {
      "inputs": [
        {
          "internalType": "uint256",
          "name": "auctionId",
          "type": "uint256"
        }
      ],
      "name": "closeAuction",
      "outputs": [],
      "stateMutability": "nonpayable",
      "type": "function"
    },
    {
      "inputs": [
        {
          "internalType": "uint256",
          "name": "auctionId",
          "type": "uint256"
        },
        {
          "internalType": "uint256",
          "name": "startRegistrationTime",
          "type": "uint256"
        },
        {
          "internalType": "uint256",
          "name": "endRegistrationTime",
          "type": "uint256"
        },
        {
          "internalType": "uint256",
          "name": "startAuctionTime",
          "type": "uint256"
        },
        {
          "internalType": "uint256",
          "name": "endAuctionTime",
          "type": "uint256"
        },
        {
          "internalType": "uint256",
          "name": "duePaymentTime",
          "type": "uint256"
        },
        {
          "internalType": "uint256",
          "name": "registrationFee",
          "type": "uint256"
        },
        {
          "internalType": "uint256",
          "name": "depositAmount",
          "type": "uint256"
        },
        {
          "internalType": "uint256",
          "name": "startBid",
          "type": "uint256"
        },
        {
          "internalType": "uint256",
          "name": "priceStep",
          "type": "uint256"
        }
      ],
      "name": "createAuction",
      "outputs": [],
      "stateMutability": "payable",
      "type": "function"
    },
    {
      "inputs": [
        {
          "internalType": "uint256",
          "name": "auctionId",
          "type": "uint256"
        }
      ],
      "name": "getHightestBidOfAuction",
      "outputs": [
        {
          "internalType": "uint256",
          "name": "",
          "type": "uint256"
        }
      ],
      "stateMutability": "view",
      "type": "function"
    },
    {
      "inputs": [
        {
          "internalType": "uint256",
          "name": "auctionId",
          "type": "uint256"
        }
      ],
      "name": "getIndexOfBidder",
      "outputs": [
        {
          "internalType": "uint256",
          "name": "",
          "type": "uint256"
        }
      ],
      "stateMutability": "view",
      "type": "function"
    },
    {
      "inputs": [],
      "name": "getListAuctionId",
      "outputs": [
        {
          "internalType": "uint256[]",
          "name": "",
          "type": "uint256[]"
        }
      ],
      "stateMutability": "view",
      "type": "function"
    },
    {
      "inputs": [
        {
          "internalType": "uint256",
          "name": "auctionId",
          "type": "uint256"
        }
      ],
      "name": "getListAuctionInformationById",
      "outputs": [
        {
          "components": [
            {
              "internalType": "uint256",
              "name": "startRegistrationTime",
              "type": "uint256"
            },
            {
              "internalType": "uint256",
              "name": "endRegistrationTime",
              "type": "uint256"
            },
            {
              "internalType": "uint256",
              "name": "startAuctionTime",
              "type": "uint256"
            },
            {
              "internalType": "uint256",
              "name": "endAuctionTime",
              "type": "uint256"
            },
            {
              "internalType": "uint256",
              "name": "duePaymentTime",
              "type": "uint256"
            },
            {
              "internalType": "uint256",
              "name": "registrationFee",
              "type": "uint256"
            },
            {
              "internalType": "uint256",
              "name": "depositAmount",
              "type": "uint256"
            },
            {
              "internalType": "uint256",
              "name": "startBid",
              "type": "uint256"
            },
            {
              "internalType": "uint256",
              "name": "priceStep",
              "type": "uint256"
            }
          ],
          "internalType": "struct Auction.AuctionInformation",
          "name": "",
          "type": "tuple"
        }
      ],
      "stateMutability": "view",
      "type": "function"
    },
    {
      "inputs": [
        {
          "internalType": "uint256",
          "name": "auctionId",
          "type": "uint256"
        },
        {
          "internalType": "uint256",
          "name": "bidAmount",
          "type": "uint256"
        }
      ],
      "name": "placeBid",
      "outputs": [],
      "stateMutability": "payable",
      "type": "function"
    },
    {
      "inputs": [
        {
          "internalType": "uint256",
          "name": "auctionId",
          "type": "uint256"
        }
      ],
      "name": "registerToBid",
      "outputs": [],
      "stateMutability": "payable",
      "type": "function"
    },
    {
      "inputs": [],
      "name": "withdaw",
      "outputs": [],
      "stateMutability": "nonpayable",
      "type": "function"
    }
  ],
  "transactionHash": "0xb72d9d3aed3f4b9311ac87c633e0e5122e5afe49b358f0ce2047db3f52ddd699",
  "args": [],
  "numDeployments": 1,
  "solcInputHash": "d10690152e1998750a93ec0a50184d19",
  "bytecode": "0x608060405234801561001057600080fd5b50611473806100206000396000f3fe6080604052600436106100865760003560e01c806357c90de51161005957806357c90de51461013857806365dfc36814610154578063c73a090a1461016b578063c832aae8146101a8578063e23d03e6146101c457610086565b80631c46583b1461008b578063236ed8f3146100b657806342062508146100df578063485f42221461011c575b600080fd5b34801561009757600080fd5b506100a0610201565b6040516100ad9190610f61565b60405180910390f35b3480156100c257600080fd5b506100dd60048036038101906100d89190610fb4565b610259565b005b3480156100eb57600080fd5b5061010660048036038101906101019190610fb4565b61025c565b6040516101139190610ff0565b60405180910390f35b6101366004803603810190610131919061100b565b610319565b005b610152600480360381019061014d91906110ea565b610485565b005b34801561016057600080fd5b50610169610798565b005b34801561017757600080fd5b50610192600480360381019061018d9190610fb4565b61079a565b60405161019f9190610ff0565b60405180910390f35b6101c260048036038101906101bd9190610fb4565b610870565b005b3480156101d057600080fd5b506101eb60048036038101906101e69190610fb4565b610aaa565b6040516101f891906111e1565b60405180910390f35b6060600080548060200260200160405190810160405280929190818152602001828054801561024f57602002820191906000526020600020905b81548152602001906001019080831161023b575b5050505050905090565b50565b6000806000905060005b600260008581526020019081526020016000208054905081101561030f57816002600086815260200190815260200160002082815481106102aa576102a96111fd565b5b90600052602060002090600202016001015411156102fc576002600085815260200190815260200160002081815481106102e7576102e66111fd565b5b90600052602060002090600202016001015491505b80806103079061125b565b915050610266565b5080915050919050565b61032b8a8a8a8a8a8a8a8a8a8a610bcc565b1561047957610338610e4d565b8981600001818152505088816020018181525050878160400181815250508681606001818152505085816080018181525050848160a0018181525050838160c0018181525050828160e0018181525050818161010001818152505080600160008d8152602001908152602001600020600082015181600001556020820151816001015560408201518160020155606082015181600301556080820151816004015560a0820151816005015560c0820151816006015560e08201518160070155610100820151816008015590505060008b90806001815401808255809150506001900390600052602060002001600090919091909150557fbf32ac378b094c01cee4de6b05076ce3628ad0310a89fc49de1a56ff1729b9828b8b8b8b8b8b8b8b8b8b60405161046f9a999897969594939291906112a3565b60405180910390a1505b50505050505050505050565b81600080600090505b6000805490508110156104bc5781806104a69061125b565b92505080806104b49061125b565b91505061048e565b5060008054905081036104fb576040517f6b9108f800000000000000000000000000000000000000000000000000000000815260040160405180910390fd5b8342600160008381526020019081526020016000206002015410806105355750426001600083815260200190815260200160002060030154115b1561056c576040517f355d234800000000000000000000000000000000000000000000000000000000815260040160405180910390fd5b846000805b600260008481526020019081526020016000208054905081101561063a573373ffffffffffffffffffffffffffffffffffffffff166002600085815260200190815260200160002082815481106105cb576105ca6111fd565b5b906000526020600020906002020160000160009054906101000a900473ffffffffffffffffffffffffffffffffffffffff1673ffffffffffffffffffffffffffffffffffffffff16146106275781806106239061125b565b9250505b80806106329061125b565b915050610571565b506002600083815260200190815260200160002080549050810361068a576040517f2ffd4a0c00000000000000000000000000000000000000000000000000000000815260040160405180910390fd5b868660016000838152602001908152602001600020600601548110806106d8575060016000838152602001908152602001600020600801546106cb8361025c565b6106d5919061133f565b81105b1561070f576040517fabdda60f00000000000000000000000000000000000000000000000000000000815260040160405180910390fd5b87600260008b815260200190815260200160002061072c8b61079a565b8154811061073d5761073c6111fd565b5b9060005260206000209060020201600101819055507f897645643062f7e221aec187272e76020e3832294b4bf87b8f683c4e3ef8aa6d89338a604051610785939291906113b4565b60405180910390a1505050505050505050565b565b600080600090505b6002600084815260200190815260200160002080549050811015610865573373ffffffffffffffffffffffffffffffffffffffff166002600085815260200190815260200160002082815481106107fc576107fb6111fd565b5b906000526020600020906002020160000160009054906101000a900473ffffffffffffffffffffffffffffffffffffffff1673ffffffffffffffffffffffffffffffffffffffff1603610852578091505061086b565b808061085d9061125b565b9150506107a2565b50600090505b919050565b8060005b6000805490508110156108eb5760008181548110610895576108946111fd565b5b906000526020600020015482036108d8576040517f6b9108f800000000000000000000000000000000000000000000000000000000815260040160405180910390fd5b80806108e39061125b565b915050610874565b508142600160008381526020019081526020016000206000015410806109265750426001600083815260200190815260200160002060010154115b1561095d576040517f60acd97900000000000000000000000000000000000000000000000000000000815260040160405180910390fd5b600060016000858152602001908152602001600020600601546001600086815260200190815260200160002060050154610997919061133f565b9050803410156109e05783816040517ffea0958a0000000000000000000000000000000000000000000000000000000081526004016109d79291906113eb565b60405180910390fd5b3360026000868152602001908152602001600020600260008781526020019081526020016000208054905081548110610a1c57610a1b6111fd565b5b906000526020600020906002020160000160006101000a81548173ffffffffffffffffffffffffffffffffffffffff021916908373ffffffffffffffffffffffffffffffffffffffff1602179055507fc8e8a52ec1fa7775a3d2e5e7a7f1173441f31b9ee4047c62482192a3d497a2778433604051610a9c929190611414565b60405180910390a150505050565b610ab2610e4d565b816000805b600080549050811015610b0b5760008181548110610ad857610ad76111fd565b5b90600052602060002001548303610af8578180610af49061125b565b9250505b8080610b039061125b565b915050610ab7565b506000805490508103610b4a576040517fc1c7f9a100000000000000000000000000000000000000000000000000000000815260040160405180910390fd5b6001600085815260200190815260200160002060405180610120016040529081600082015481526020016001820154815260200160028201548152602001600382015481526020016004820154815260200160058201548152602001600682015481526020016007820154815260200160088201548152505092505050919050565b60008a60005b600080549050811015610c495760008181548110610bf357610bf26111fd565b5b90600052602060002001548203610c36576040517f6b9108f800000000000000000000000000000000000000000000000000000000815260040160405180910390fd5b8080610c419061125b565b915050610bd2565b508a8a42821080610c5a5750808210155b15610c91576040517f5e83d5f800000000000000000000000000000000000000000000000000000000815260040160405180910390fd5b8b8b808210610ccc576040517f7a9971e800000000000000000000000000000000000000000000000000000000815260040160405180910390fd5b8c8c808210610d07576040517fe2049fa500000000000000000000000000000000000000000000000000000000815260040160405180910390fd5b8d8d808210610d42576040517fcc2116a000000000000000000000000000000000000000000000000000000000815260040160405180910390fd5b8d60008111610d7d576040517fb25c88c500000000000000000000000000000000000000000000000000000000815260040160405180910390fd5b8d60008111610db8576040517fb0f07a6300000000000000000000000000000000000000000000000000000000815260040160405180910390fd5b8d60008111610df3576040517ffb833a9900000000000000000000000000000000000000000000000000000000815260040160405180910390fd5b8d60008111610e2e576040517fa9ed13a300000000000000000000000000000000000000000000000000000000815260040160405180910390fd5b60019d50505050505050505050505050509a9950505050505050505050565b6040518061012001604052806000815260200160008152602001600081526020016000815260200160008152602001600081526020016000815260200160008152602001600081525090565b600081519050919050565b600082825260208201905092915050565b6000819050602082019050919050565b6000819050919050565b610ed881610ec5565b82525050565b6000610eea8383610ecf565b60208301905092915050565b6000602082019050919050565b6000610f0e82610e99565b610f188185610ea4565b9350610f2383610eb5565b8060005b83811015610f54578151610f3b8882610ede565b9750610f4683610ef6565b925050600181019050610f27565b5085935050505092915050565b60006020820190508181036000830152610f7b8184610f03565b905092915050565b600080fd5b610f9181610ec5565b8114610f9c57600080fd5b50565b600081359050610fae81610f88565b92915050565b600060208284031215610fca57610fc9610f83565b5b6000610fd884828501610f9f565b91505092915050565b610fea81610ec5565b82525050565b60006020820190506110056000830184610fe1565b92915050565b6000806000806000806000806000806101408b8d03121561102f5761102e610f83565b5b600061103d8d828e01610f9f565b9a5050602061104e8d828e01610f9f565b995050604061105f8d828e01610f9f565b98505060606110708d828e01610f9f565b97505060806110818d828e01610f9f565b96505060a06110928d828e01610f9f565b95505060c06110a38d828e01610f9f565b94505060e06110b48d828e01610f9f565b9350506101006110c68d828e01610f9f565b9250506101206110d88d828e01610f9f565b9150509295989b9194979a5092959850565b6000806040838503121561110157611100610f83565b5b600061110f85828601610f9f565b925050602061112085828601610f9f565b9150509250929050565b610120820160008201516111416000850182610ecf565b5060208201516111546020850182610ecf565b5060408201516111676040850182610ecf565b50606082015161117a6060850182610ecf565b50608082015161118d6080850182610ecf565b5060a08201516111a060a0850182610ecf565b5060c08201516111b360c0850182610ecf565b5060e08201516111c660e0850182610ecf565b506101008201516111db610100850182610ecf565b50505050565b6000610120820190506111f7600083018461112a565b92915050565b7f4e487b7100000000000000000000000000000000000000000000000000000000600052603260045260246000fd5b7f4e487b7100000000000000000000000000000000000000000000000000000000600052601160045260246000fd5b600061126682610ec5565b91507fffffffffffffffffffffffffffffffffffffffffffffffffffffffffffffffff82036112985761129761122c565b5b600182019050919050565b6000610140820190506112b9600083018d610fe1565b6112c6602083018c610fe1565b6112d3604083018b610fe1565b6112e0606083018a610fe1565b6112ed6080830189610fe1565b6112fa60a0830188610fe1565b61130760c0830187610fe1565b61131460e0830186610fe1565b611322610100830185610fe1565b611330610120830184610fe1565b9b9a5050505050505050505050565b600061134a82610ec5565b915061135583610ec5565b925082820190508082111561136d5761136c61122c565b5b92915050565b600073ffffffffffffffffffffffffffffffffffffffff82169050919050565b600061139e82611373565b9050919050565b6113ae81611393565b82525050565b60006060820190506113c96000830186610fe1565b6113d660208301856113a5565b6113e36040830184610fe1565b949350505050565b60006040820190506114006000830185610fe1565b61140d6020830184610fe1565b9392505050565b60006040820190506114296000830185610fe1565b61143660208301846113a5565b939250505056fea2646970667358221220cf65d588523ca4fb563cca887dbb4045bc195f2fd034747e689c5093960acf6064736f6c63430008110033",
  "devdoc": {
    "kind": "dev",
    "methods": {},
    "version": 1
  },
  "userdoc": {
    "kind": "user",
    "methods": {},
    "version": 1
  },
  "storageLayout": {
    "storage": [
      {
        "astId": 40,
        "contract": "contracts/Auction.sol:Auction",
        "label": "s_auctionList",
        "offset": 0,
        "slot": "0",
        "type": "t_array(t_uint256)dyn_storage"
      },
      {
        "astId": 108,
        "contract": "contracts/Auction.sol:Auction",
        "label": "s_AuctionInformations",
        "offset": 0,
        "slot": "1",
        "type": "t_mapping(t_uint256,t_struct(AuctionInformation)62_storage)"
      },
      {
        "astId": 114,
        "contract": "contracts/Auction.sol:Auction",
        "label": "s_BidInformations",
        "offset": 0,
        "slot": "2",
        "type": "t_mapping(t_uint256,t_array(t_struct(BidInformation)67_storage)dyn_storage)"
      }
    ],
    "types": {
      "t_address": {
        "encoding": "inplace",
        "label": "address",
        "numberOfBytes": "20"
      },
      "t_array(t_struct(BidInformation)67_storage)dyn_storage": {
        "base": "t_struct(BidInformation)67_storage",
        "encoding": "dynamic_array",
        "label": "struct Auction.BidInformation[]",
        "numberOfBytes": "32"
      },
      "t_array(t_uint256)dyn_storage": {
        "base": "t_uint256",
        "encoding": "dynamic_array",
        "label": "uint256[]",
        "numberOfBytes": "32"
      },
      "t_mapping(t_uint256,t_array(t_struct(BidInformation)67_storage)dyn_storage)": {
        "encoding": "mapping",
        "key": "t_uint256",
        "label": "mapping(uint256 => struct Auction.BidInformation[])",
        "numberOfBytes": "32",
        "value": "t_array(t_struct(BidInformation)67_storage)dyn_storage"
      },
      "t_mapping(t_uint256,t_struct(AuctionInformation)62_storage)": {
        "encoding": "mapping",
        "key": "t_uint256",
        "label": "mapping(uint256 => struct Auction.AuctionInformation)",
        "numberOfBytes": "32",
        "value": "t_struct(AuctionInformation)62_storage"
      },
      "t_struct(AuctionInformation)62_storage": {
        "encoding": "inplace",
        "label": "struct Auction.AuctionInformation",
        "members": [
          {
            "astId": 45,
            "contract": "contracts/Auction.sol:Auction",
            "label": "startRegistrationTime",
            "offset": 0,
            "slot": "0",
            "type": "t_uint256"
          },
          {
            "astId": 47,
            "contract": "contracts/Auction.sol:Auction",
            "label": "endRegistrationTime",
            "offset": 0,
            "slot": "1",
            "type": "t_uint256"
          },
          {
            "astId": 49,
            "contract": "contracts/Auction.sol:Auction",
            "label": "startAuctionTime",
            "offset": 0,
            "slot": "2",
            "type": "t_uint256"
          },
          {
            "astId": 51,
            "contract": "contracts/Auction.sol:Auction",
            "label": "endAuctionTime",
            "offset": 0,
            "slot": "3",
            "type": "t_uint256"
          },
          {
            "astId": 53,
            "contract": "contracts/Auction.sol:Auction",
            "label": "duePaymentTime",
            "offset": 0,
            "slot": "4",
            "type": "t_uint256"
          },
          {
            "astId": 55,
            "contract": "contracts/Auction.sol:Auction",
            "label": "registrationFee",
            "offset": 0,
            "slot": "5",
            "type": "t_uint256"
          },
          {
            "astId": 57,
            "contract": "contracts/Auction.sol:Auction",
            "label": "depositAmount",
            "offset": 0,
            "slot": "6",
            "type": "t_uint256"
          },
          {
            "astId": 59,
            "contract": "contracts/Auction.sol:Auction",
            "label": "startBid",
            "offset": 0,
            "slot": "7",
            "type": "t_uint256"
          },
          {
            "astId": 61,
            "contract": "contracts/Auction.sol:Auction",
            "label": "priceStep",
            "offset": 0,
            "slot": "8",
            "type": "t_uint256"
          }
        ],
        "numberOfBytes": "288"
      },
      "t_struct(BidInformation)67_storage": {
        "encoding": "inplace",
        "label": "struct Auction.BidInformation",
        "members": [
          {
            "astId": 64,
            "contract": "contracts/Auction.sol:Auction",
            "label": "bidder",
            "offset": 0,
            "slot": "0",
            "type": "t_address"
          },
          {
            "astId": 66,
            "contract": "contracts/Auction.sol:Auction",
            "label": "bidAmount",
            "offset": 0,
            "slot": "1",
            "type": "t_uint256"
          }
        ],
        "numberOfBytes": "64"
      },
      "t_uint256": {
        "encoding": "inplace",
        "label": "uint256",
        "numberOfBytes": "32"
      }
    }
  }
}