{"contracts/Auction.sol":{"Auction":{"abi":[{"inputs":[],"name":"Auction__ConfirmationTimeout","type":"error"},{"inputs":[],"name":"Auction__InvalidAuctionId","type":"error"},{"inputs":[],"name":"Auction__InvalidAuctionTime","type":"error"},{"inputs":[],"name":"Auction__InvalidBidAmount","type":"error"},{"inputs":[],"name":"Auction__InvalidDepositAmount","type":"error"},{"inputs":[],"name":"Auction__InvalidDuePaymentTime","type":"error"},{"inputs":[],"name":"Auction__InvalidPriceStep","type":"error"},{"inputs":[],"name":"Auction__InvalidRegistrationFee","type":"error"},{"inputs":[],"name":"Auction__InvalidRegistrationTime","type":"error"},{"inputs":[],"name":"Auction__InvalidStartAuctionTime","type":"error"},{"inputs":[],"name":"Auction__InvalidStartBid","type":"error"},{"inputs":[],"name":"Auction__NotExistAuctionId","type":"error"},{"inputs":[],"name":"Auction__NotRegisteredBidder","type":"error"},{"inputs":[],"name":"Auction__NotWinnerOfAuction","type":"error"},{"inputs":[],"name":"Auction__OutOfAuctionTime","type":"error"},{"inputs":[],"name":"Auction__OutOfRegistrationTime","type":"error"},{"inputs":[{"internalType":"string","name":"auctionId","type":"string"},{"internalType":"uint256","name":"requirePaymentAmount","type":"uint256"}],"name":"Auction__RequireAmountToPaymentNotMet","type":"error"},{"inputs":[{"internalType":"string","name":"auctionId","type":"string"},{"internalType":"uint256","name":"requireAmountToRegister","type":"uint256"}],"name":"Auction__RequireAmountToRegisterNotMet","type":"error"},{"anonymous":false,"inputs":[{"indexed":false,"internalType":"string","name":"auctionId","type":"string"},{"indexed":false,"internalType":"address","name":"bidder","type":"address"},{"indexed":false,"internalType":"enum Auction.BidderState","name":"bidderState","type":"uint8"}],"name":"CanceledAuctionResult","type":"event"},{"anonymous":false,"inputs":[{"indexed":false,"internalType":"string","name":"auctionId","type":"string"}],"name":"ClosedAuction","type":"event"},{"anonymous":false,"inputs":[{"indexed":false,"internalType":"string","name":"auctionId","type":"string"},{"indexed":false,"internalType":"address","name":"bidder","type":"address"},{"indexed":false,"internalType":"uint256","name":"paidAmount","type":"uint256"}],"name":"ClosedAuctionSucessfully","type":"event"},{"anonymous":false,"inputs":[{"indexed":false,"internalType":"string","name":"auctionId","type":"string"},{"indexed":false,"internalType":"uint256","name":"startRegistrationTime","type":"uint256"},{"indexed":false,"internalType":"uint256","name":"endRegistrationTime","type":"uint256"},{"indexed":false,"internalType":"uint256","name":"startAuctionTime","type":"uint256"},{"indexed":false,"internalType":"uint256","name":"endAuctionTime","type":"uint256"},{"indexed":false,"internalType":"uint256","name":"duePaymentTime","type":"uint256"},{"indexed":false,"internalType":"uint256","name":"registrationFee","type":"uint256"},{"indexed":false,"internalType":"uint256","name":"depositAmount","type":"uint256"},{"indexed":false,"internalType":"uint256","name":"startBid","type":"uint256"},{"indexed":false,"internalType":"uint256","name":"priceStep","type":"uint256"}],"name":"CreatedAuction","type":"event"},{"anonymous":false,"inputs":[{"indexed":false,"internalType":"string","name":"auctionId","type":"string"},{"indexed":false,"internalType":"address","name":"bidder","type":"address"},{"indexed":false,"internalType":"uint256","name":"bidAmount","type":"uint256"}],"name":"PlacedBid","type":"event"},{"anonymous":false,"inputs":[{"indexed":false,"internalType":"string","name":"auctionId","type":"string"},{"indexed":false,"internalType":"address","name":"bidder","type":"address"},{"indexed":false,"internalType":"enum Auction.BidderState","name":"bidderState","type":"uint8"}],"name":"RegisteredToBid","type":"event"},{"anonymous":false,"inputs":[{"indexed":false,"internalType":"uint256","name":"k","type":"uint256"}],"name":"TestDB","type":"event"},{"anonymous":false,"inputs":[{"indexed":false,"internalType":"string","name":"auctionId","type":"string"},{"indexed":false,"internalType":"address","name":"bidder","type":"address"}],"name":"Withdrew","type":"event"},{"inputs":[{"internalType":"string","name":"auctionId","type":"string"}],"name":"cancelAuctionResult","outputs":[],"stateMutability":"payable","type":"function"},{"inputs":[{"internalType":"string","name":"auctionId","type":"string"}],"name":"closeAuction","outputs":[],"stateMutability":"nonpayable","type":"function"},{"inputs":[{"internalType":"string","name":"auctionId","type":"string"},{"internalType":"uint256","name":"startRegistrationTime","type":"uint256"},{"internalType":"uint256","name":"endRegistrationTime","type":"uint256"},{"internalType":"uint256","name":"startAuctionTime","type":"uint256"},{"internalType":"uint256","name":"endAuctionTime","type":"uint256"},{"internalType":"uint256","name":"duePaymentTime","type":"uint256"},{"internalType":"uint256","name":"registrationFee","type":"uint256"},{"internalType":"uint256","name":"depositAmount","type":"uint256"},{"internalType":"uint256","name":"startBid","type":"uint256"},{"internalType":"uint256","name":"priceStep","type":"uint256"}],"name":"createAuction","outputs":[],"stateMutability":"nonpayable","type":"function"},{"inputs":[{"internalType":"string","name":"auctionId","type":"string"}],"name":"getAuctionInformationById","outputs":[{"components":[{"internalType":"uint256","name":"startRegistrationTime","type":"uint256"},{"internalType":"uint256","name":"endRegistrationTime","type":"uint256"},{"internalType":"uint256","name":"startAuctionTime","type":"uint256"},{"internalType":"uint256","name":"endAuctionTime","type":"uint256"},{"internalType":"uint256","name":"duePaymentTime","type":"uint256"},{"internalType":"uint256","name":"registrationFee","type":"uint256"},{"internalType":"uint256","name":"depositAmount","type":"uint256"},{"internalType":"uint256","name":"startBid","type":"uint256"},{"internalType":"uint256","name":"priceStep","type":"uint256"}],"internalType":"struct Auction.AuctionInformation","name":"","type":"tuple"}],"stateMutability":"view","type":"function"},{"inputs":[{"internalType":"string","name":"auctionId","type":"string"}],"name":"getBidInformationByAuctionId","outputs":[{"components":[{"internalType":"address","name":"bidder","type":"address"},{"internalType":"uint256","name":"bidAmount","type":"uint256"},{"internalType":"enum Auction.BidderState","name":"bidderState","type":"uint8"}],"internalType":"struct Auction.BidInformation[]","name":"","type":"tuple[]"}],"stateMutability":"view","type":"function"},{"inputs":[{"internalType":"string","name":"auctionId","type":"string"}],"name":"getHightestBidOfAuction","outputs":[{"internalType":"uint256","name":"","type":"uint256"}],"stateMutability":"view","type":"function"},{"inputs":[{"internalType":"string","name":"auctionId","type":"string"}],"name":"getIndexOfHighestBidOfAuction","outputs":[{"internalType":"uint256","name":"","type":"uint256"}],"stateMutability":"view","type":"function"},{"inputs":[{"internalType":"string","name":"auctionId","type":"string"}],"name":"getIndexOfSecondWinnerOfAuction","outputs":[{"internalType":"uint256","name":"","type":"uint256"}],"stateMutability":"nonpayable","type":"function"},{"inputs":[],"name":"getListAuctionId","outputs":[{"internalType":"string[]","name":"","type":"string[]"}],"stateMutability":"view","type":"function"},{"inputs":[{"internalType":"string","name":"auctionId","type":"string"}],"name":"payment","outputs":[],"stateMutability":"payable","type":"function"},{"inputs":[{"internalType":"string","name":"auctionId","type":"string"},{"internalType":"uint256","name":"bidAmount","type":"uint256"}],"name":"placeBid","outputs":[],"stateMutability":"payable","type":"function"},{"inputs":[{"internalType":"string","name":"auctionId","type":"string"}],"name":"registerToBid","outputs":[],"stateMutability":"payable","type":"function"},{"inputs":[{"internalType":"uint256","name":"k","type":"uint256"}],"name":"testDB","outputs":[],"stateMutability":"nonpayable","type":"function"}],"devdoc":{"author":"Nguyen Thanh Trung","details":"This implements the auctioneer job","kind":"dev","methods":{},"title":"Decentralized Auction","version":1},"evm":{"bytecode":{"linkReferences":{},"object":"608060405234801561001057600080fd5b506132a2806100206000396000f3fe6080604052600436106100c25760003560e01c8063816669711161007f578063af6fd4a711610059578063af6fd4a71461027d578063b061097914610299578063daddf717146102d6578063f05981fa146102f2576100c2565b806381666971146101fb578063a7eaa24114610224578063a9a7dc6314610240576100c2565b80631c46583b146100c75780631d67fa3f146100f257806333a3b9bd1461012f578063615adb6a146101585780636821fe2214610195578063693dfca8146101d2575b600080fd5b3480156100d357600080fd5b506100dc61030e565b6040516100e991906124fb565b60405180910390f35b3480156100fe57600080fd5b5061011960048036038101906101149190612666565b6103e7565b60405161012691906126c8565b60405180910390f35b34801561013b57600080fd5b506101566004803603810190610151919061270f565b6105fa565b005b34801561016457600080fd5b5061017f600480360381019061017a9190612666565b610634565b60405161018c9190612802565b60405180910390f35b3480156101a157600080fd5b506101bc60048036038101906101b79190612666565b6107ac565b6040516101c991906129c7565b60405180910390f35b3480156101de57600080fd5b506101f960048036038101906101f49190612666565b6109a9565b005b34801561020757600080fd5b50610222600480360381019061021d91906129e9565b610ce9565b005b61023e60048036038101906102399190612ae4565b610e6c565b005b34801561024c57600080fd5b5061026760048036038101906102629190612666565b6111d7565b60405161027491906126c8565b60405180910390f35b61029760048036038101906102929190612666565b6112ef565b005b3480156102a557600080fd5b506102c060048036038101906102bb9190612666565b611518565b6040516102cd91906126c8565b60405180910390f35b6102f060048036038101906102eb9190612666565b611675565b005b61030c60048036038101906103079190612666565b611a38565b005b60606000805480602002602001604051908101604052809291908181526020016000905b828210156103de57838290600052602060002001805461035190612b6f565b80601f016020809104026020016040519081016040528092919081815260200182805461037d90612b6f565b80156103ca5780601f1061039f576101008083540402835291602001916103ca565b820191906000526020600020905b8154815290600101906020018083116103ad57829003601f168201915b505050505081526020019060010190610332565b50505050905090565b6000806002836040516103fa9190612bdc565b90815260200160405180910390209050600061041584611518565b90508180549050811061042757600080fd5b81600183805490506104399190612c22565b8154811061044a57610449612c56565b5b906000526020600020906003020182828154811061046b5761046a612c56565b5b90600052602060002090600302016000820160009054906101000a900473ffffffffffffffffffffffffffffffffffffffff168160000160006101000a81548173ffffffffffffffffffffffffffffffffffffffff021916908373ffffffffffffffffffffffffffffffffffffffff160217905550600182015481600101556002820160009054906101000a900460ff168160020160006101000a81548160ff021916908360068111156105225761052161288b565b5b02179055509050508180548061053b5761053a612c85565b5b6001900381819060005260206000209060030201600080820160006101000a81549073ffffffffffffffffffffffffffffffffffffffff021916905560018201600090556002820160006101000a81549060ff021916905550509055600080600090505b83805490508110156105ee578381815481106105be576105bd612c56565b5b9060005260206000209060030201600101548210156105db578091505b80806105e690612cb4565b91505061059f565b50809350505050919050565b7fd3e855657ba4c067a1799f69c531de26dc531d75eb43875d9b59152d9c5b79d18160405161062991906126c8565b60405180910390a150565b61063c61235d565b816000805b6000805490508110156106e0576000818154811061066257610661612c56565b5b9060005260206000200160405160200161067c9190612d94565b60405160208183030381529060405280519060200120836040516020016106a39190612bdc565b60405160208183030381529060405280519060200120146106cd5781806106c990612cb4565b9250505b80806106d890612cb4565b915050610641565b50600080549050810361071f576040517fc1c7f9a100000000000000000000000000000000000000000000000000000000815260040160405180910390fd5b60018460405161072f9190612bdc565b908152602001604051809103902060405180610120016040529081600082015481526020016001820154815260200160028201548152602001600382015481526020016004820154815260200160058201548152602001600682015481526020016007820154815260200160088201548152505092505050919050565b6060816000805b60008054905081101561085257600081815481106107d4576107d3612c56565b5b906000526020600020016040516020016107ee9190612d94565b60405160208183030381529060405280519060200120836040516020016108159190612bdc565b604051602081830303815290604052805190602001201461083f57818061083b90612cb4565b9250505b808061084a90612cb4565b9150506107b3565b506000805490508103610891576040517fc1c7f9a100000000000000000000000000000000000000000000000000000000815260040160405180910390fd5b6002846040516108a19190612bdc565b9081526020016040518091039020805480602002602001604051908101604052809291908181526020016000905b8282101561099c57838290600052602060002090600302016040518060600160405290816000820160009054906101000a900473ffffffffffffffffffffffffffffffffffffffff1673ffffffffffffffffffffffffffffffffffffffff1673ffffffffffffffffffffffffffffffffffffffff168152602001600182015481526020016002820160009054906101000a900460ff1660068111156109775761097661288b565b5b60068111156109895761098861288b565b5b81525050815260200190600101906108cf565b5050505092505050919050565b806000805b600080549050811015610a4d57600081815481106109cf576109ce612c56565b5b906000526020600020016040516020016109e99190612d94565b6040516020818303038152906040528051906020012083604051602001610a109190612bdc565b6040516020818303038152906040528051906020012014610a3a578180610a3690612cb4565b9250505b8080610a4590612cb4565b9150506109ae565b506000805490508103610a8c576040517fc1c7f9a100000000000000000000000000000000000000000000000000000000815260040160405180910390fd5b6000610a97846111d7565b905060028085604051610aaa9190612bdc565b90815260200160405180910390208281548110610aca57610ac9612c56565b5b906000526020600020906003020160020160006101000a81548160ff02191690836006811115610afd57610afc61288b565b5b02179055506000610b0d856103e7565b90506001600286604051610b219190612bdc565b90815260200160405180910390208281548110610b4157610b40612c56565b5b906000526020600020906003020160020160006101000a81548160ff02191690836006811115610b7457610b7361288b565b5b021790555060005b600286604051610b8c9190612bdc565b908152602001604051809103902080549050811015610caa5760006006811115610bb957610bb861288b565b5b600287604051610bc99190612bdc565b90815260200160405180910390208281548110610be957610be8612c56565b5b906000526020600020906003020160020160009054906101000a900460ff166006811115610c1a57610c1961288b565b5b03610c975760036006811115610c3357610c3261288b565b5b600287604051610c439190612bdc565b90815260200160405180910390208281548110610c6357610c62612c56565b5b906000526020600020906003020160020160009054906101000a900460ff166006811115610c9457610c9361288b565b5b50505b8080610ca290612cb4565b915050610b7c565b507f9d8c4bda31461c9a9300697c59318bac02cc954037b51c5db3ae52347042d2bc85604051610cda9190612df5565b60405180910390a15050505050565b610cfb8a8a8a8a8a8a8a8a8a8a611fa5565b15610e6057610d0861235d565b8981600001818152505088816020018181525050878160400181815250508681606001818152505085816080018181525050848160a0018181525050838160c0018181525050828160e001818152505081816101000181815250508060018c604051610d749190612bdc565b9081526020016040518091039020600082015181600001556020820151816001015560408201518160020155606082015181600301556080820151816004015560a0820151816005015560c0820151816006015560e08201518160070155610100820151816008015590505060008b908060018154018082558091505060019003906000526020600020016000909190919091509081610e149190612fae565b507fe5549b694e8ea655c231f5d255127cf7c0f14997a411ccdf6577e3b9911674428b8b8b8b8b8b8b8b8b8b604051610e569a99989796959493929190613080565b60405180910390a1505b50505050505050505050565b81600080600090505b600080549050811015610ea3578180610e8d90612cb4565b9250508080610e9b90612cb4565b915050610e75565b506000805490508103610ee2576040517f6b9108f800000000000000000000000000000000000000000000000000000000815260040160405180910390fd5b8342600182604051610ef49190612bdc565b9081526020016040518091039020600201541080610f32575042600182604051610f1e9190612bdc565b908152602001604051809103902060030154115b15610f69576040517f355d234800000000000000000000000000000000000000000000000000000000815260040160405180910390fd5b846000805b600283604051610f7e9190612bdc565b90815260200160405180910390208054905081101561104d573373ffffffffffffffffffffffffffffffffffffffff16600284604051610fbe9190612bdc565b90815260200160405180910390208281548110610fde57610fdd612c56565b5b906000526020600020906003020160000160009054906101000a900473ffffffffffffffffffffffffffffffffffffffff1673ffffffffffffffffffffffffffffffffffffffff161461103a57818061103690612cb4565b9250505b808061104590612cb4565b915050610f6e565b5060028260405161105e9190612bdc565b90815260200160405180910390208054905081036110a8576040517f2ffd4a0c00000000000000000000000000000000000000000000000000000000815260040160405180910390fd5b86866001826040516110ba9190612bdc565b90815260200160405180910390206006015481108061110c57506001826040516110e49190612bdc565b9081526020016040518091039020600801546110ff83611518565b6111099190613123565b81105b15611143576040517fabdda60f00000000000000000000000000000000000000000000000000000000815260040160405180910390fd5b8760028a6040516111549190612bdc565b908152602001604051809103902061116b8b612271565b8154811061117c5761117b612c56565b5b9060005260206000209060030201600101819055507fe886416816c234ad984c20a40b4480b0e1dc31a4da3edbab50626e575b7dbe0589338a6040516111c493929190613166565b60405180910390a1505050505050505050565b60008060005b6002846040516111ed9190612bdc565b9081526020016040518091039020805490508110156112e5576002846040516112169190612bdc565b9081526020016040518091039020818154811061123657611235612c56565b5b906000526020600020906003020160010154821080156112c95750600460068111156112655761126461288b565b5b6002856040516112759190612bdc565b9081526020016040518091039020828154811061129557611294612c56565b5b906000526020600020906003020160020160009054906101000a900460ff1660068111156112c6576112c561288b565b5b14155b156112d2578091505b80806112dd90612cb4565b9150506111dd565b5080915050919050565b80600260068111156113045761130361288b565b5b6002826040516113149190612bdc565b908152602001604051809103902061132b83612271565b8154811061133c5761133b612c56565b5b906000526020600020906003020160020160009054906101000a900460ff16600681111561136d5761136c61288b565b5b146113a4576040517f7963b56f00000000000000000000000000000000000000000000000000000000815260040160405180910390fd5b8160006001826040516113b79190612bdc565b9081526020016040518091039020600601546002836040516113d99190612bdc565b90815260200160405180910390206113f084612271565b8154811061140157611400612c56565b5b90600052602060002090600302016001015461141d9190612c22565b90508034146114655781816040517f1abcbf8700000000000000000000000000000000000000000000000000000000815260040161145c9291906131a4565b60405180910390fd5b60066002856040516114779190612bdc565b908152602001604051809103902061148e86612271565b8154811061149f5761149e612c56565b5b906000526020600020906003020160020160006101000a81548160ff021916908360068111156114d2576114d161288b565b5b02179055507f2951e1d2e4f526e0e6f563c03b8940da36e4616bbc2ec1933479f7d649e0016484333460405161150a93929190613166565b60405180910390a150505050565b6000806000905060005b6002846040516115329190612bdc565b90815260200160405180910390208054905081101561166b578160028560405161155c9190612bdc565b9081526020016040518091039020828154811061157c5761157b612c56565b5b90600052602060002090600302016001015411801561160e5750600460068111156115aa576115a961288b565b5b6002856040516115ba9190612bdc565b908152602001604051809103902082815481106115da576115d9612c56565b5b906000526020600020906003020160020160009054906101000a900460ff16600681111561160b5761160a61288b565b5b14155b15611658576002846040516116239190612bdc565b9081526020016040518091039020818154811061164357611642612c56565b5b90600052602060002090600302016001015491505b808061166390612cb4565b915050611522565b5080915050919050565b8060005b60008054905081101561173b576000818154811061169a57611699612c56565b5b906000526020600020016040516020016116b49190612d94565b60405160208183030381529060405280519060200120826040516020016116db9190612bdc565b6040516020818303038152906040528051906020012003611728576040517f6b9108f800000000000000000000000000000000000000000000000000000000815260040160405180910390fd5b808061173390612cb4565b915050611679565b50814260018260405161174e9190612bdc565b908152602001604051809103902060000154108061178c5750426001826040516117789190612bdc565b908152602001604051809103902060010154115b156117c3576040517f60acd97900000000000000000000000000000000000000000000000000000000815260040160405180910390fd5b60006001846040516117d59190612bdc565b9081526020016040518091039020600601546001856040516117f79190612bdc565b9081526020016040518091039020600501546118139190613123565b90508034101561185c5783816040517f2aac8ad50000000000000000000000000000000000000000000000000000000081526004016118539291906131a4565b60405180910390fd5b3360028560405161186d9190612bdc565b908152602001604051809103902060028660405161188b9190612bdc565b908152602001604051809103902080549050815481106118ae576118ad612c56565b5b906000526020600020906003020160000160006101000a81548173ffffffffffffffffffffffffffffffffffffffff021916908373ffffffffffffffffffffffffffffffffffffffff160217905550600060028560405161190f9190612bdc565b908152602001604051809103902060028660405161192d9190612bdc565b908152602001604051809103902080549050815481106119505761194f612c56565b5b906000526020600020906003020160020160006101000a81548160ff021916908360068111156119835761198261288b565b5b02179055507f3d91795a8d93a82cebcc92ac50f202b5aa73244f00228e1cc9cbdafbbdf8fe9b84336002876040516119bb9190612bdc565b90815260200160405180910390206002886040516119d99190612bdc565b908152602001604051809103902080549050815481106119fc576119fb612c56565b5b906000526020600020906003020160020160009054906101000a900460ff16604051611a2a939291906131e3565b60405180910390a150505050565b80600281604051611a499190612bdc565b9081526020016040518091039020611a60826111d7565b81548110611a7157611a70612c56565b5b906000526020600020906003020160000160009054906101000a900473ffffffffffffffffffffffffffffffffffffffff1673ffffffffffffffffffffffffffffffffffffffff163373ffffffffffffffffffffffffffffffffffffffff1603611b4857600061012c61ffff16600183604051611aee9190612bdc565b908152602001604051809103902060030154611b0a9190613123565b905042811115611b46576040517f49107ff700000000000000000000000000000000000000000000000000000000815260040160405180910390fd5b505b600281604051611b589190612bdc565b9081526020016040518091039020611b6f826103e7565b81548110611b8057611b7f612c56565b5b906000526020600020906003020160000160009054906101000a900473ffffffffffffffffffffffffffffffffffffffff1673ffffffffffffffffffffffffffffffffffffffff163373ffffffffffffffffffffffffffffffffffffffff1603611c63576000600261012c611bf5919061322f565b61ffff16600183604051611c099190612bdc565b908152602001604051809103902060030154611c259190613123565b905042811115611c61576040517f49107ff700000000000000000000000000000000000000000000000000000000815260040160405180910390fd5b505b8160026006811115611c7857611c7761288b565b5b600282604051611c889190612bdc565b9081526020016040518091039020611c9f83612271565b81548110611cb057611caf612c56565b5b906000526020600020906003020160020160009054906101000a900460ff166006811115611ce157611ce061288b565b5b14611d18576040517f7963b56f00000000000000000000000000000000000000000000000000000000815260040160405180910390fd5b600283604051611d289190612bdc565b9081526020016040518091039020611d3f846111d7565b81548110611d5057611d4f612c56565b5b906000526020600020906003020160000160009054906101000a900473ffffffffffffffffffffffffffffffffffffffff1673ffffffffffffffffffffffffffffffffffffffff163373ffffffffffffffffffffffffffffffffffffffff1603611e9c576004600284604051611dc69190612bdc565b9081526020016040518091039020611ddd856111d7565b81548110611dee57611ded612c56565b5b906000526020600020906003020160020160006101000a81548160ff02191690836006811115611e2157611e2061288b565b5b021790555060028084604051611e379190612bdc565b9081526020016040518091039020611e4e856103e7565b81548110611e5f57611e5e612c56565b5b906000526020600020906003020160020160006101000a81548160ff02191690836006811115611e9257611e9161288b565b5b0217905550611f0f565b6004600284604051611eae9190612bdc565b9081526020016040518091039020611ec5856103e7565b81548110611ed657611ed5612c56565b5b906000526020600020906003020160020160006101000a81548160ff02191690836006811115611f0957611f0861288b565b5b02179055505b7f87182aaac5dd5ec80140f092551157b9dc8f704ab22b683dc628b3099676d7308333600286604051611f429190612bdc565b9081526020016040518091039020611f5987612271565b81548110611f6a57611f69612c56565b5b906000526020600020906003020160020160009054906101000a900460ff16604051611f98939291906131e3565b60405180910390a1505050565b60008a60005b60008054905081101561206d5760008181548110611fcc57611fcb612c56565b5b90600052602060002001604051602001611fe69190612d94565b604051602081830303815290604052805190602001208260405160200161200d9190612bdc565b604051602081830303815290604052805190602001200361205a576040517f6b9108f800000000000000000000000000000000000000000000000000000000815260040160405180910390fd5b808061206590612cb4565b915050611fab565b508a8a4282108061207e5750808210155b156120b5576040517f5e83d5f800000000000000000000000000000000000000000000000000000000815260040160405180910390fd5b8b8b8082106120f0576040517f7a9971e800000000000000000000000000000000000000000000000000000000815260040160405180910390fd5b8c8c80821061212b576040517fe2049fa500000000000000000000000000000000000000000000000000000000815260040160405180910390fd5b8d8d808210612166576040517fcc2116a000000000000000000000000000000000000000000000000000000000815260040160405180910390fd5b8d600081116121a1576040517fb25c88c500000000000000000000000000000000000000000000000000000000815260040160405180910390fd5b8d600081116121dc576040517fb0f07a6300000000000000000000000000000000000000000000000000000000815260040160405180910390fd5b8d60008111612217576040517ffb833a9900000000000000000000000000000000000000000000000000000000815260040160405180910390fd5b8d60008111612252576040517fa9ed13a300000000000000000000000000000000000000000000000000000000815260040160405180910390fd5b60019d50505050505050505050505050509a9950505050505050505050565b600080600090505b6002836040516122899190612bdc565b908152602001604051809103902080549050811015612352573373ffffffffffffffffffffffffffffffffffffffff166002846040516122c99190612bdc565b908152602001604051809103902082815481106122e9576122e8612c56565b5b906000526020600020906003020160000160009054906101000a900473ffffffffffffffffffffffffffffffffffffffff1673ffffffffffffffffffffffffffffffffffffffff160361233f5780915050612358565b808061234a90612cb4565b915050612279565b50600090505b919050565b6040518061012001604052806000815260200160008152602001600081526020016000815260200160008152602001600081526020016000815260200160008152602001600081525090565b600081519050919050565b600082825260208201905092915050565b6000819050602082019050919050565b600081519050919050565b600082825260208201905092915050565b60005b8381101561240f5780820151818401526020810190506123f4565b60008484015250505050565b6000601f19601f8301169050919050565b6000612437826123d5565b61244181856123e0565b93506124518185602086016123f1565b61245a8161241b565b840191505092915050565b6000612471838361242c565b905092915050565b6000602082019050919050565b6000612491826123a9565b61249b81856123b4565b9350836020820285016124ad856123c5565b8060005b858110156124e957848403895281516124ca8582612465565b94506124d583612479565b925060208a019950506001810190506124b1565b50829750879550505050505092915050565b600060208201905081810360008301526125158184612486565b905092915050565b6000604051905090565b600080fd5b600080fd5b600080fd5b600080fd5b7f4e487b7100000000000000000000000000000000000000000000000000000000600052604160045260246000fd5b6125738261241b565b810181811067ffffffffffffffff821117156125925761259161253b565b5b80604052505050565b60006125a561251d565b90506125b1828261256a565b919050565b600067ffffffffffffffff8211156125d1576125d061253b565b5b6125da8261241b565b9050602081019050919050565b82818337600083830152505050565b6000612609612604846125b6565b61259b565b90508281526020810184848401111561262557612624612536565b5b6126308482856125e7565b509392505050565b600082601f83011261264d5761264c612531565b5b813561265d8482602086016125f6565b91505092915050565b60006020828403121561267c5761267b612527565b5b600082013567ffffffffffffffff81111561269a5761269961252c565b5b6126a684828501612638565b91505092915050565b6000819050919050565b6126c2816126af565b82525050565b60006020820190506126dd60008301846126b9565b92915050565b6126ec816126af565b81146126f757600080fd5b50565b600081359050612709816126e3565b92915050565b60006020828403121561272557612724612527565b5b6000612733848285016126fa565b91505092915050565b612745816126af565b82525050565b61012082016000820151612762600085018261273c565b506020820151612775602085018261273c565b506040820151612788604085018261273c565b50606082015161279b606085018261273c565b5060808201516127ae608085018261273c565b5060a08201516127c160a085018261273c565b5060c08201516127d460c085018261273c565b5060e08201516127e760e085018261273c565b506101008201516127fc61010085018261273c565b50505050565b600061012082019050612818600083018461274b565b92915050565b600081519050919050565b600082825260208201905092915050565b6000819050602082019050919050565b600073ffffffffffffffffffffffffffffffffffffffff82169050919050565b60006128758261284a565b9050919050565b6128858161286a565b82525050565b7f4e487b7100000000000000000000000000000000000000000000000000000000600052602160045260246000fd5b600781106128cb576128ca61288b565b5b50565b60008190506128dc826128ba565b919050565b60006128ec826128ce565b9050919050565b6128fc816128e1565b82525050565b606082016000820151612918600085018261287c565b50602082015161292b602085018261273c565b50604082015161293e60408501826128f3565b50505050565b60006129508383612902565b60608301905092915050565b6000602082019050919050565b60006129748261281e565b61297e8185612829565b93506129898361283a565b8060005b838110156129ba5781516129a18882612944565b97506129ac8361295c565b92505060018101905061298d565b5085935050505092915050565b600060208201905081810360008301526129e18184612969565b905092915050565b6000806000806000806000806000806101408b8d031215612a0d57612a0c612527565b5b60008b013567ffffffffffffffff811115612a2b57612a2a61252c565b5b612a378d828e01612638565b9a50506020612a488d828e016126fa565b9950506040612a598d828e016126fa565b9850506060612a6a8d828e016126fa565b9750506080612a7b8d828e016126fa565b96505060a0612a8c8d828e016126fa565b95505060c0612a9d8d828e016126fa565b94505060e0612aae8d828e016126fa565b935050610100612ac08d828e016126fa565b925050610120612ad28d828e016126fa565b9150509295989b9194979a5092959850565b60008060408385031215612afb57612afa612527565b5b600083013567ffffffffffffffff811115612b1957612b1861252c565b5b612b2585828601612638565b9250506020612b36858286016126fa565b9150509250929050565b7f4e487b7100000000000000000000000000000000000000000000000000000000600052602260045260246000fd5b60006002820490506001821680612b8757607f821691505b602082108103612b9a57612b99612b40565b5b50919050565b600081905092915050565b6000612bb6826123d5565b612bc08185612ba0565b9350612bd08185602086016123f1565b80840191505092915050565b6000612be88284612bab565b915081905092915050565b7f4e487b7100000000000000000000000000000000000000000000000000000000600052601160045260246000fd5b6000612c2d826126af565b9150612c38836126af565b9250828203905081811115612c5057612c4f612bf3565b5b92915050565b7f4e487b7100000000000000000000000000000000000000000000000000000000600052603260045260246000fd5b7f4e487b7100000000000000000000000000000000000000000000000000000000600052603160045260246000fd5b6000612cbf826126af565b91507fffffffffffffffffffffffffffffffffffffffffffffffffffffffffffffffff8203612cf157612cf0612bf3565b5b600182019050919050565b60008190508160005260206000209050919050565b60008154612d1e81612b6f565b612d288186612ba0565b94506001821660008114612d435760018114612d5857612d8b565b60ff1983168652811515820286019350612d8b565b612d6185612cfc565b60005b83811015612d8357815481890152600182019150602081019050612d64565b838801955050505b50505092915050565b6000612da08284612d11565b915081905092915050565b600082825260208201905092915050565b6000612dc7826123d5565b612dd18185612dab565b9350612de18185602086016123f1565b612dea8161241b565b840191505092915050565b60006020820190508181036000830152612e0f8184612dbc565b905092915050565b60006020601f8301049050919050565b600082821b905092915050565b600060088302612e647fffffffffffffffffffffffffffffffffffffffffffffffffffffffffffffffff82612e27565b612e6e8683612e27565b95508019841693508086168417925050509392505050565b6000819050919050565b6000612eab612ea6612ea1846126af565b612e86565b6126af565b9050919050565b6000819050919050565b612ec583612e90565b612ed9612ed182612eb2565b848454612e34565b825550505050565b600090565b612eee612ee1565b612ef9818484612ebc565b505050565b5b81811015612f1d57612f12600082612ee6565b600181019050612eff565b5050565b601f821115612f6257612f3381612cfc565b612f3c84612e17565b81016020851015612f4b578190505b612f5f612f5785612e17565b830182612efe565b50505b505050565b600082821c905092915050565b6000612f8560001984600802612f67565b1980831691505092915050565b6000612f9e8383612f74565b9150826002028217905092915050565b612fb7826123d5565b67ffffffffffffffff811115612fd057612fcf61253b565b5b612fda8254612b6f565b612fe5828285612f21565b600060209050601f8311600181146130185760008415613006578287015190505b6130108582612f92565b865550613078565b601f19841661302686612cfc565b60005b8281101561304e57848901518255600182019150602085019450602081019050613029565b8683101561306b5784890151613067601f891682612f74565b8355505b6001600288020188555050505b505050505050565b600061014082019050818103600083015261309b818d612dbc565b90506130aa602083018c6126b9565b6130b7604083018b6126b9565b6130c4606083018a6126b9565b6130d160808301896126b9565b6130de60a08301886126b9565b6130eb60c08301876126b9565b6130f860e08301866126b9565b6131066101008301856126b9565b6131146101208301846126b9565b9b9a5050505050505050505050565b600061312e826126af565b9150613139836126af565b925082820190508082111561315157613150612bf3565b5b92915050565b6131608161286a565b82525050565b600060608201905081810360008301526131808186612dbc565b905061318f6020830185613157565b61319c60408301846126b9565b949350505050565b600060408201905081810360008301526131be8185612dbc565b90506131cd60208301846126b9565b9392505050565b6131dd816128e1565b82525050565b600060608201905081810360008301526131fd8186612dbc565b905061320c6020830185613157565b61321960408301846131d4565b949350505050565b600061ffff82169050919050565b600061323a82613221565b915061324583613221565b925082820261325381613221565b915080821461326557613264612bf3565b5b509291505056fea2646970667358221220a5155bd153e898e01d20d2f485af15d5135e4073d1faf43352f009be7e65b95e64736f6c63430008110033","opcodes":"PUSH1 0x80 PUSH1 0x40 MSTORE CALLVALUE DUP1 ISZERO PUSH2 0x10 JUMPI PUSH1 0x0 DUP1 REVERT JUMPDEST POP PUSH2 0x32A2 DUP1 PUSH2 0x20 PUSH1 0x0 CODECOPY PUSH1 0x0 RETURN INVALID PUSH1 0x80 PUSH1 0x40 MSTORE PUSH1 0x4 CALLDATASIZE LT PUSH2 0xC2 JUMPI PUSH1 0x0 CALLDATALOAD PUSH1 0xE0 SHR DUP1 PUSH4 0x81666971 GT PUSH2 0x7F JUMPI DUP1 PUSH4 0xAF6FD4A7 GT PUSH2 0x59 JUMPI DUP1 PUSH4 0xAF6FD4A7 EQ PUSH2 0x27D JUMPI DUP1 PUSH4 0xB0610979 EQ PUSH2 0x299 JUMPI DUP1 PUSH4 0xDADDF717 EQ PUSH2 0x2D6 JUMPI DUP1 PUSH4 0xF05981FA EQ PUSH2 0x2F2 JUMPI PUSH2 0xC2 JUMP JUMPDEST DUP1 PUSH4 0x81666971 EQ PUSH2 0x1FB JUMPI DUP1 PUSH4 0xA7EAA241 EQ PUSH2 0x224 JUMPI DUP1 PUSH4 0xA9A7DC63 EQ PUSH2 0x240 JUMPI PUSH2 0xC2 JUMP JUMPDEST DUP1 PUSH4 0x1C46583B EQ PUSH2 0xC7 JUMPI DUP1 PUSH4 0x1D67FA3F EQ PUSH2 0xF2 JUMPI DUP1 PUSH4 0x33A3B9BD EQ PUSH2 0x12F JUMPI DUP1 PUSH4 0x615ADB6A EQ PUSH2 0x158 JUMPI DUP1 PUSH4 0x6821FE22 EQ PUSH2 0x195 JUMPI DUP1 PUSH4 0x693DFCA8 EQ PUSH2 0x1D2 JUMPI JUMPDEST PUSH1 0x0 DUP1 REVERT JUMPDEST CALLVALUE DUP1 ISZERO PUSH2 0xD3 JUMPI PUSH1 0x0 DUP1 REVERT JUMPDEST POP PUSH2 0xDC PUSH2 0x30E JUMP JUMPDEST PUSH1 0x40 MLOAD PUSH2 0xE9 SWAP2 SWAP1 PUSH2 0x24FB JUMP JUMPDEST PUSH1 0x40 MLOAD DUP1 SWAP2 SUB SWAP1 RETURN JUMPDEST CALLVALUE DUP1 ISZERO PUSH2 0xFE JUMPI PUSH1 0x0 DUP1 REVERT JUMPDEST POP PUSH2 0x119 PUSH1 0x4 DUP1 CALLDATASIZE SUB DUP2 ADD SWAP1 PUSH2 0x114 SWAP2 SWAP1 PUSH2 0x2666 JUMP JUMPDEST PUSH2 0x3E7 JUMP JUMPDEST PUSH1 0x40 MLOAD PUSH2 0x126 SWAP2 SWAP1 PUSH2 0x26C8 JUMP JUMPDEST PUSH1 0x40 MLOAD DUP1 SWAP2 SUB SWAP1 RETURN JUMPDEST CALLVALUE DUP1 ISZERO PUSH2 0x13B JUMPI PUSH1 0x0 DUP1 REVERT JUMPDEST POP PUSH2 0x156 PUSH1 0x4 DUP1 CALLDATASIZE SUB DUP2 ADD SWAP1 PUSH2 0x151 SWAP2 SWAP1 PUSH2 0x270F JUMP JUMPDEST PUSH2 0x5FA JUMP JUMPDEST STOP JUMPDEST CALLVALUE DUP1 ISZERO PUSH2 0x164 JUMPI PUSH1 0x0 DUP1 REVERT JUMPDEST POP PUSH2 0x17F PUSH1 0x4 DUP1 CALLDATASIZE SUB DUP2 ADD SWAP1 PUSH2 0x17A SWAP2 SWAP1 PUSH2 0x2666 JUMP JUMPDEST PUSH2 0x634 JUMP JUMPDEST PUSH1 0x40 MLOAD PUSH2 0x18C SWAP2 SWAP1 PUSH2 0x2802 JUMP JUMPDEST PUSH1 0x40 MLOAD DUP1 SWAP2 SUB SWAP1 RETURN JUMPDEST CALLVALUE DUP1 ISZERO PUSH2 0x1A1 JUMPI PUSH1 0x0 DUP1 REVERT JUMPDEST POP PUSH2 0x1BC PUSH1 0x4 DUP1 CALLDATASIZE SUB DUP2 ADD SWAP1 PUSH2 0x1B7 SWAP2 SWAP1 PUSH2 0x2666 JUMP JUMPDEST PUSH2 0x7AC JUMP JUMPDEST PUSH1 0x40 MLOAD PUSH2 0x1C9 SWAP2 SWAP1 PUSH2 0x29C7 JUMP JUMPDEST PUSH1 0x40 MLOAD DUP1 SWAP2 SUB SWAP1 RETURN JUMPDEST CALLVALUE DUP1 ISZERO PUSH2 0x1DE JUMPI PUSH1 0x0 DUP1 REVERT JUMPDEST POP PUSH2 0x1F9 PUSH1 0x4 DUP1 CALLDATASIZE SUB DUP2 ADD SWAP1 PUSH2 0x1F4 SWAP2 SWAP1 PUSH2 0x2666 JUMP JUMPDEST PUSH2 0x9A9 JUMP JUMPDEST STOP JUMPDEST CALLVALUE DUP1 ISZERO PUSH2 0x207 JUMPI PUSH1 0x0 DUP1 REVERT JUMPDEST POP PUSH2 0x222 PUSH1 0x4 DUP1 CALLDATASIZE SUB DUP2 ADD SWAP1 PUSH2 0x21D SWAP2 SWAP1 PUSH2 0x29E9 JUMP JUMPDEST PUSH2 0xCE9 JUMP JUMPDEST STOP JUMPDEST PUSH2 0x23E PUSH1 0x4 DUP1 CALLDATASIZE SUB DUP2 ADD SWAP1 PUSH2 0x239 SWAP2 SWAP1 PUSH2 0x2AE4 JUMP JUMPDEST PUSH2 0xE6C JUMP JUMPDEST STOP JUMPDEST CALLVALUE DUP1 ISZERO PUSH2 0x24C JUMPI PUSH1 0x0 DUP1 REVERT JUMPDEST POP PUSH2 0x267 PUSH1 0x4 DUP1 CALLDATASIZE SUB DUP2 ADD SWAP1 PUSH2 0x262 SWAP2 SWAP1 PUSH2 0x2666 JUMP JUMPDEST PUSH2 0x11D7 JUMP JUMPDEST PUSH1 0x40 MLOAD PUSH2 0x274 SWAP2 SWAP1 PUSH2 0x26C8 JUMP JUMPDEST PUSH1 0x40 MLOAD DUP1 SWAP2 SUB SWAP1 RETURN JUMPDEST PUSH2 0x297 PUSH1 0x4 DUP1 CALLDATASIZE SUB DUP2 ADD SWAP1 PUSH2 0x292 SWAP2 SWAP1 PUSH2 0x2666 JUMP JUMPDEST PUSH2 0x12EF JUMP JUMPDEST STOP JUMPDEST CALLVALUE DUP1 ISZERO PUSH2 0x2A5 JUMPI PUSH1 0x0 DUP1 REVERT JUMPDEST POP PUSH2 0x2C0 PUSH1 0x4 DUP1 CALLDATASIZE SUB DUP2 ADD SWAP1 PUSH2 0x2BB SWAP2 SWAP1 PUSH2 0x2666 JUMP JUMPDEST PUSH2 0x1518 JUMP JUMPDEST PUSH1 0x40 MLOAD PUSH2 0x2CD SWAP2 SWAP1 PUSH2 0x26C8 JUMP JUMPDEST PUSH1 0x40 MLOAD DUP1 SWAP2 SUB SWAP1 RETURN JUMPDEST PUSH2 0x2F0 PUSH1 0x4 DUP1 CALLDATASIZE SUB DUP2 ADD SWAP1 PUSH2 0x2EB SWAP2 SWAP1 PUSH2 0x2666 JUMP JUMPDEST PUSH2 0x1675 JUMP JUMPDEST STOP JUMPDEST PUSH2 0x30C PUSH1 0x4 DUP1 CALLDATASIZE SUB DUP2 ADD SWAP1 PUSH2 0x307 SWAP2 SWAP1 PUSH2 0x2666 JUMP JUMPDEST PUSH2 0x1A38 JUMP JUMPDEST STOP JUMPDEST PUSH1 0x60 PUSH1 0x0 DUP1 SLOAD DUP1 PUSH1 0x20 MUL PUSH1 0x20 ADD PUSH1 0x40 MLOAD SWAP1 DUP2 ADD PUSH1 0x40 MSTORE DUP1 SWAP3 SWAP2 SWAP1 DUP2 DUP2 MSTORE PUSH1 0x20 ADD PUSH1 0x0 SWAP1 JUMPDEST DUP3 DUP3 LT ISZERO PUSH2 0x3DE JUMPI DUP4 DUP3 SWAP1 PUSH1 0x0 MSTORE PUSH1 0x20 PUSH1 0x0 KECCAK256 ADD DUP1 SLOAD PUSH2 0x351 SWAP1 PUSH2 0x2B6F JUMP JUMPDEST DUP1 PUSH1 0x1F ADD PUSH1 0x20 DUP1 SWAP2 DIV MUL PUSH1 0x20 ADD PUSH1 0x40 MLOAD SWAP1 DUP2 ADD PUSH1 0x40 MSTORE DUP1 SWAP3 SWAP2 SWAP1 DUP2 DUP2 MSTORE PUSH1 0x20 ADD DUP3 DUP1 SLOAD PUSH2 0x37D SWAP1 PUSH2 0x2B6F JUMP JUMPDEST DUP1 ISZERO PUSH2 0x3CA JUMPI DUP1 PUSH1 0x1F LT PUSH2 0x39F JUMPI PUSH2 0x100 DUP1 DUP4 SLOAD DIV MUL DUP4 MSTORE SWAP2 PUSH1 0x20 ADD SWAP2 PUSH2 0x3CA JUMP JUMPDEST DUP3 ADD SWAP2 SWAP1 PUSH1 0x0 MSTORE PUSH1 0x20 PUSH1 0x0 KECCAK256 SWAP1 JUMPDEST DUP2 SLOAD DUP2 MSTORE SWAP1 PUSH1 0x1 ADD SWAP1 PUSH1 0x20 ADD DUP1 DUP4 GT PUSH2 0x3AD JUMPI DUP3 SWAP1 SUB PUSH1 0x1F AND DUP3 ADD SWAP2 JUMPDEST POP POP POP POP POP DUP2 MSTORE PUSH1 0x20 ADD SWAP1 PUSH1 0x1 ADD SWAP1 PUSH2 0x332 JUMP JUMPDEST POP POP POP POP SWAP1 POP SWAP1 JUMP JUMPDEST PUSH1 0x0 DUP1 PUSH1 0x2 DUP4 PUSH1 0x40 MLOAD PUSH2 0x3FA SWAP2 SWAP1 PUSH2 0x2BDC JUMP JUMPDEST SWAP1 DUP2 MSTORE PUSH1 0x20 ADD PUSH1 0x40 MLOAD DUP1 SWAP2 SUB SWAP1 KECCAK256 SWAP1 POP PUSH1 0x0 PUSH2 0x415 DUP5 PUSH2 0x1518 JUMP JUMPDEST SWAP1 POP DUP2 DUP1 SLOAD SWAP1 POP DUP2 LT PUSH2 0x427 JUMPI PUSH1 0x0 DUP1 REVERT JUMPDEST DUP2 PUSH1 0x1 DUP4 DUP1 SLOAD SWAP1 POP PUSH2 0x439 SWAP2 SWAP1 PUSH2 0x2C22 JUMP JUMPDEST DUP2 SLOAD DUP2 LT PUSH2 0x44A JUMPI PUSH2 0x449 PUSH2 0x2C56 JUMP JUMPDEST JUMPDEST SWAP1 PUSH1 0x0 MSTORE PUSH1 0x20 PUSH1 0x0 KECCAK256 SWAP1 PUSH1 0x3 MUL ADD DUP3 DUP3 DUP2 SLOAD DUP2 LT PUSH2 0x46B JUMPI PUSH2 0x46A PUSH2 0x2C56 JUMP JUMPDEST JUMPDEST SWAP1 PUSH1 0x0 MSTORE PUSH1 0x20 PUSH1 0x0 KECCAK256 SWAP1 PUSH1 0x3 MUL ADD PUSH1 0x0 DUP3 ADD PUSH1 0x0 SWAP1 SLOAD SWAP1 PUSH2 0x100 EXP SWAP1 DIV PUSH20 0xFFFFFFFFFFFFFFFFFFFFFFFFFFFFFFFFFFFFFFFF AND DUP2 PUSH1 0x0 ADD PUSH1 0x0 PUSH2 0x100 EXP DUP2 SLOAD DUP2 PUSH20 0xFFFFFFFFFFFFFFFFFFFFFFFFFFFFFFFFFFFFFFFF MUL NOT AND SWAP1 DUP4 PUSH20 0xFFFFFFFFFFFFFFFFFFFFFFFFFFFFFFFFFFFFFFFF AND MUL OR SWAP1 SSTORE POP PUSH1 0x1 DUP3 ADD SLOAD DUP2 PUSH1 0x1 ADD SSTORE PUSH1 0x2 DUP3 ADD PUSH1 0x0 SWAP1 SLOAD SWAP1 PUSH2 0x100 EXP SWAP1 DIV PUSH1 0xFF AND DUP2 PUSH1 0x2 ADD PUSH1 0x0 PUSH2 0x100 EXP DUP2 SLOAD DUP2 PUSH1 0xFF MUL NOT AND SWAP1 DUP4 PUSH1 0x6 DUP2 GT ISZERO PUSH2 0x522 JUMPI PUSH2 0x521 PUSH2 0x288B JUMP JUMPDEST JUMPDEST MUL OR SWAP1 SSTORE POP SWAP1 POP POP DUP2 DUP1 SLOAD DUP1 PUSH2 0x53B JUMPI PUSH2 0x53A PUSH2 0x2C85 JUMP JUMPDEST JUMPDEST PUSH1 0x1 SWAP1 SUB DUP2 DUP2 SWAP1 PUSH1 0x0 MSTORE PUSH1 0x20 PUSH1 0x0 KECCAK256 SWAP1 PUSH1 0x3 MUL ADD PUSH1 0x0 DUP1 DUP3 ADD PUSH1 0x0 PUSH2 0x100 EXP DUP2 SLOAD SWAP1 PUSH20 0xFFFFFFFFFFFFFFFFFFFFFFFFFFFFFFFFFFFFFFFF MUL NOT AND SWAP1 SSTORE PUSH1 0x1 DUP3 ADD PUSH1 0x0 SWAP1 SSTORE PUSH1 0x2 DUP3 ADD PUSH1 0x0 PUSH2 0x100 EXP DUP2 SLOAD SWAP1 PUSH1 0xFF MUL NOT AND SWAP1 SSTORE POP POP SWAP1 SSTORE PUSH1 0x0 DUP1 PUSH1 0x0 SWAP1 POP JUMPDEST DUP4 DUP1 SLOAD SWAP1 POP DUP2 LT ISZERO PUSH2 0x5EE JUMPI DUP4 DUP2 DUP2 SLOAD DUP2 LT PUSH2 0x5BE JUMPI PUSH2 0x5BD PUSH2 0x2C56 JUMP JUMPDEST JUMPDEST SWAP1 PUSH1 0x0 MSTORE PUSH1 0x20 PUSH1 0x0 KECCAK256 SWAP1 PUSH1 0x3 MUL ADD PUSH1 0x1 ADD SLOAD DUP3 LT ISZERO PUSH2 0x5DB JUMPI DUP1 SWAP2 POP JUMPDEST DUP1 DUP1 PUSH2 0x5E6 SWAP1 PUSH2 0x2CB4 JUMP JUMPDEST SWAP2 POP POP PUSH2 0x59F JUMP JUMPDEST POP DUP1 SWAP4 POP POP POP POP SWAP2 SWAP1 POP JUMP JUMPDEST PUSH32 0xD3E855657BA4C067A1799F69C531DE26DC531D75EB43875D9B59152D9C5B79D1 DUP2 PUSH1 0x40 MLOAD PUSH2 0x629 SWAP2 SWAP1 PUSH2 0x26C8 JUMP JUMPDEST PUSH1 0x40 MLOAD DUP1 SWAP2 SUB SWAP1 LOG1 POP JUMP JUMPDEST PUSH2 0x63C PUSH2 0x235D JUMP JUMPDEST DUP2 PUSH1 0x0 DUP1 JUMPDEST PUSH1 0x0 DUP1 SLOAD SWAP1 POP DUP2 LT ISZERO PUSH2 0x6E0 JUMPI PUSH1 0x0 DUP2 DUP2 SLOAD DUP2 LT PUSH2 0x662 JUMPI PUSH2 0x661 PUSH2 0x2C56 JUMP JUMPDEST JUMPDEST SWAP1 PUSH1 0x0 MSTORE PUSH1 0x20 PUSH1 0x0 KECCAK256 ADD PUSH1 0x40 MLOAD PUSH1 0x20 ADD PUSH2 0x67C SWAP2 SWAP1 PUSH2 0x2D94 JUMP JUMPDEST PUSH1 0x40 MLOAD PUSH1 0x20 DUP2 DUP4 SUB SUB DUP2 MSTORE SWAP1 PUSH1 0x40 MSTORE DUP1 MLOAD SWAP1 PUSH1 0x20 ADD KECCAK256 DUP4 PUSH1 0x40 MLOAD PUSH1 0x20 ADD PUSH2 0x6A3 SWAP2 SWAP1 PUSH2 0x2BDC JUMP JUMPDEST PUSH1 0x40 MLOAD PUSH1 0x20 DUP2 DUP4 SUB SUB DUP2 MSTORE SWAP1 PUSH1 0x40 MSTORE DUP1 MLOAD SWAP1 PUSH1 0x20 ADD KECCAK256 EQ PUSH2 0x6CD JUMPI DUP2 DUP1 PUSH2 0x6C9 SWAP1 PUSH2 0x2CB4 JUMP JUMPDEST SWAP3 POP POP JUMPDEST DUP1 DUP1 PUSH2 0x6D8 SWAP1 PUSH2 0x2CB4 JUMP JUMPDEST SWAP2 POP POP PUSH2 0x641 JUMP JUMPDEST POP PUSH1 0x0 DUP1 SLOAD SWAP1 POP DUP2 SUB PUSH2 0x71F JUMPI PUSH1 0x40 MLOAD PUSH32 0xC1C7F9A100000000000000000000000000000000000000000000000000000000 DUP2 MSTORE PUSH1 0x4 ADD PUSH1 0x40 MLOAD DUP1 SWAP2 SUB SWAP1 REVERT JUMPDEST PUSH1 0x1 DUP5 PUSH1 0x40 MLOAD PUSH2 0x72F SWAP2 SWAP1 PUSH2 0x2BDC JUMP JUMPDEST SWAP1 DUP2 MSTORE PUSH1 0x20 ADD PUSH1 0x40 MLOAD DUP1 SWAP2 SUB SWAP1 KECCAK256 PUSH1 0x40 MLOAD DUP1 PUSH2 0x120 ADD PUSH1 0x40 MSTORE SWAP1 DUP2 PUSH1 0x0 DUP3 ADD SLOAD DUP2 MSTORE PUSH1 0x20 ADD PUSH1 0x1 DUP3 ADD SLOAD DUP2 MSTORE PUSH1 0x20 ADD PUSH1 0x2 DUP3 ADD SLOAD DUP2 MSTORE PUSH1 0x20 ADD PUSH1 0x3 DUP3 ADD SLOAD DUP2 MSTORE PUSH1 0x20 ADD PUSH1 0x4 DUP3 ADD SLOAD DUP2 MSTORE PUSH1 0x20 ADD PUSH1 0x5 DUP3 ADD SLOAD DUP2 MSTORE PUSH1 0x20 ADD PUSH1 0x6 DUP3 ADD SLOAD DUP2 MSTORE PUSH1 0x20 ADD PUSH1 0x7 DUP3 ADD SLOAD DUP2 MSTORE PUSH1 0x20 ADD PUSH1 0x8 DUP3 ADD SLOAD DUP2 MSTORE POP POP SWAP3 POP POP POP SWAP2 SWAP1 POP JUMP JUMPDEST PUSH1 0x60 DUP2 PUSH1 0x0 DUP1 JUMPDEST PUSH1 0x0 DUP1 SLOAD SWAP1 POP DUP2 LT ISZERO PUSH2 0x852 JUMPI PUSH1 0x0 DUP2 DUP2 SLOAD DUP2 LT PUSH2 0x7D4 JUMPI PUSH2 0x7D3 PUSH2 0x2C56 JUMP JUMPDEST JUMPDEST SWAP1 PUSH1 0x0 MSTORE PUSH1 0x20 PUSH1 0x0 KECCAK256 ADD PUSH1 0x40 MLOAD PUSH1 0x20 ADD PUSH2 0x7EE SWAP2 SWAP1 PUSH2 0x2D94 JUMP JUMPDEST PUSH1 0x40 MLOAD PUSH1 0x20 DUP2 DUP4 SUB SUB DUP2 MSTORE SWAP1 PUSH1 0x40 MSTORE DUP1 MLOAD SWAP1 PUSH1 0x20 ADD KECCAK256 DUP4 PUSH1 0x40 MLOAD PUSH1 0x20 ADD PUSH2 0x815 SWAP2 SWAP1 PUSH2 0x2BDC JUMP JUMPDEST PUSH1 0x40 MLOAD PUSH1 0x20 DUP2 DUP4 SUB SUB DUP2 MSTORE SWAP1 PUSH1 0x40 MSTORE DUP1 MLOAD SWAP1 PUSH1 0x20 ADD KECCAK256 EQ PUSH2 0x83F JUMPI DUP2 DUP1 PUSH2 0x83B SWAP1 PUSH2 0x2CB4 JUMP JUMPDEST SWAP3 POP POP JUMPDEST DUP1 DUP1 PUSH2 0x84A SWAP1 PUSH2 0x2CB4 JUMP JUMPDEST SWAP2 POP POP PUSH2 0x7B3 JUMP JUMPDEST POP PUSH1 0x0 DUP1 SLOAD SWAP1 POP DUP2 SUB PUSH2 0x891 JUMPI PUSH1 0x40 MLOAD PUSH32 0xC1C7F9A100000000000000000000000000000000000000000000000000000000 DUP2 MSTORE PUSH1 0x4 ADD PUSH1 0x40 MLOAD DUP1 SWAP2 SUB SWAP1 REVERT JUMPDEST PUSH1 0x2 DUP5 PUSH1 0x40 MLOAD PUSH2 0x8A1 SWAP2 SWAP1 PUSH2 0x2BDC JUMP JUMPDEST SWAP1 DUP2 MSTORE PUSH1 0x20 ADD PUSH1 0x40 MLOAD DUP1 SWAP2 SUB SWAP1 KECCAK256 DUP1 SLOAD DUP1 PUSH1 0x20 MUL PUSH1 0x20 ADD PUSH1 0x40 MLOAD SWAP1 DUP2 ADD PUSH1 0x40 MSTORE DUP1 SWAP3 SWAP2 SWAP1 DUP2 DUP2 MSTORE PUSH1 0x20 ADD PUSH1 0x0 SWAP1 JUMPDEST DUP3 DUP3 LT ISZERO PUSH2 0x99C JUMPI DUP4 DUP3 SWAP1 PUSH1 0x0 MSTORE PUSH1 0x20 PUSH1 0x0 KECCAK256 SWAP1 PUSH1 0x3 MUL ADD PUSH1 0x40 MLOAD DUP1 PUSH1 0x60 ADD PUSH1 0x40 MSTORE SWAP1 DUP2 PUSH1 0x0 DUP3 ADD PUSH1 0x0 SWAP1 SLOAD SWAP1 PUSH2 0x100 EXP SWAP1 DIV PUSH20 0xFFFFFFFFFFFFFFFFFFFFFFFFFFFFFFFFFFFFFFFF AND PUSH20 0xFFFFFFFFFFFFFFFFFFFFFFFFFFFFFFFFFFFFFFFF AND PUSH20 0xFFFFFFFFFFFFFFFFFFFFFFFFFFFFFFFFFFFFFFFF AND DUP2 MSTORE PUSH1 0x20 ADD PUSH1 0x1 DUP3 ADD SLOAD DUP2 MSTORE PUSH1 0x20 ADD PUSH1 0x2 DUP3 ADD PUSH1 0x0 SWAP1 SLOAD SWAP1 PUSH2 0x100 EXP SWAP1 DIV PUSH1 0xFF AND PUSH1 0x6 DUP2 GT ISZERO PUSH2 0x977 JUMPI PUSH2 0x976 PUSH2 0x288B JUMP JUMPDEST JUMPDEST PUSH1 0x6 DUP2 GT ISZERO PUSH2 0x989 JUMPI PUSH2 0x988 PUSH2 0x288B JUMP JUMPDEST JUMPDEST DUP2 MSTORE POP POP DUP2 MSTORE PUSH1 0x20 ADD SWAP1 PUSH1 0x1 ADD SWAP1 PUSH2 0x8CF JUMP JUMPDEST POP POP POP POP SWAP3 POP POP POP SWAP2 SWAP1 POP JUMP JUMPDEST DUP1 PUSH1 0x0 DUP1 JUMPDEST PUSH1 0x0 DUP1 SLOAD SWAP1 POP DUP2 LT ISZERO PUSH2 0xA4D JUMPI PUSH1 0x0 DUP2 DUP2 SLOAD DUP2 LT PUSH2 0x9CF JUMPI PUSH2 0x9CE PUSH2 0x2C56 JUMP JUMPDEST JUMPDEST SWAP1 PUSH1 0x0 MSTORE PUSH1 0x20 PUSH1 0x0 KECCAK256 ADD PUSH1 0x40 MLOAD PUSH1 0x20 ADD PUSH2 0x9E9 SWAP2 SWAP1 PUSH2 0x2D94 JUMP JUMPDEST PUSH1 0x40 MLOAD PUSH1 0x20 DUP2 DUP4 SUB SUB DUP2 MSTORE SWAP1 PUSH1 0x40 MSTORE DUP1 MLOAD SWAP1 PUSH1 0x20 ADD KECCAK256 DUP4 PUSH1 0x40 MLOAD PUSH1 0x20 ADD PUSH2 0xA10 SWAP2 SWAP1 PUSH2 0x2BDC JUMP JUMPDEST PUSH1 0x40 MLOAD PUSH1 0x20 DUP2 DUP4 SUB SUB DUP2 MSTORE SWAP1 PUSH1 0x40 MSTORE DUP1 MLOAD SWAP1 PUSH1 0x20 ADD KECCAK256 EQ PUSH2 0xA3A JUMPI DUP2 DUP1 PUSH2 0xA36 SWAP1 PUSH2 0x2CB4 JUMP JUMPDEST SWAP3 POP POP JUMPDEST DUP1 DUP1 PUSH2 0xA45 SWAP1 PUSH2 0x2CB4 JUMP JUMPDEST SWAP2 POP POP PUSH2 0x9AE JUMP JUMPDEST POP PUSH1 0x0 DUP1 SLOAD SWAP1 POP DUP2 SUB PUSH2 0xA8C JUMPI PUSH1 0x40 MLOAD PUSH32 0xC1C7F9A100000000000000000000000000000000000000000000000000000000 DUP2 MSTORE PUSH1 0x4 ADD PUSH1 0x40 MLOAD DUP1 SWAP2 SUB SWAP1 REVERT JUMPDEST PUSH1 0x0 PUSH2 0xA97 DUP5 PUSH2 0x11D7 JUMP JUMPDEST SWAP1 POP PUSH1 0x2 DUP1 DUP6 PUSH1 0x40 MLOAD PUSH2 0xAAA SWAP2 SWAP1 PUSH2 0x2BDC JUMP JUMPDEST SWAP1 DUP2 MSTORE PUSH1 0x20 ADD PUSH1 0x40 MLOAD DUP1 SWAP2 SUB SWAP1 KECCAK256 DUP3 DUP2 SLOAD DUP2 LT PUSH2 0xACA JUMPI PUSH2 0xAC9 PUSH2 0x2C56 JUMP JUMPDEST JUMPDEST SWAP1 PUSH1 0x0 MSTORE PUSH1 0x20 PUSH1 0x0 KECCAK256 SWAP1 PUSH1 0x3 MUL ADD PUSH1 0x2 ADD PUSH1 0x0 PUSH2 0x100 EXP DUP2 SLOAD DUP2 PUSH1 0xFF MUL NOT AND SWAP1 DUP4 PUSH1 0x6 DUP2 GT ISZERO PUSH2 0xAFD JUMPI PUSH2 0xAFC PUSH2 0x288B JUMP JUMPDEST JUMPDEST MUL OR SWAP1 SSTORE POP PUSH1 0x0 PUSH2 0xB0D DUP6 PUSH2 0x3E7 JUMP JUMPDEST SWAP1 POP PUSH1 0x1 PUSH1 0x2 DUP7 PUSH1 0x40 MLOAD PUSH2 0xB21 SWAP2 SWAP1 PUSH2 0x2BDC JUMP JUMPDEST SWAP1 DUP2 MSTORE PUSH1 0x20 ADD PUSH1 0x40 MLOAD DUP1 SWAP2 SUB SWAP1 KECCAK256 DUP3 DUP2 SLOAD DUP2 LT PUSH2 0xB41 JUMPI PUSH2 0xB40 PUSH2 0x2C56 JUMP JUMPDEST JUMPDEST SWAP1 PUSH1 0x0 MSTORE PUSH1 0x20 PUSH1 0x0 KECCAK256 SWAP1 PUSH1 0x3 MUL ADD PUSH1 0x2 ADD PUSH1 0x0 PUSH2 0x100 EXP DUP2 SLOAD DUP2 PUSH1 0xFF MUL NOT AND SWAP1 DUP4 PUSH1 0x6 DUP2 GT ISZERO PUSH2 0xB74 JUMPI PUSH2 0xB73 PUSH2 0x288B JUMP JUMPDEST JUMPDEST MUL OR SWAP1 SSTORE POP PUSH1 0x0 JUMPDEST PUSH1 0x2 DUP7 PUSH1 0x40 MLOAD PUSH2 0xB8C SWAP2 SWAP1 PUSH2 0x2BDC JUMP JUMPDEST SWAP1 DUP2 MSTORE PUSH1 0x20 ADD PUSH1 0x40 MLOAD DUP1 SWAP2 SUB SWAP1 KECCAK256 DUP1 SLOAD SWAP1 POP DUP2 LT ISZERO PUSH2 0xCAA JUMPI PUSH1 0x0 PUSH1 0x6 DUP2 GT ISZERO PUSH2 0xBB9 JUMPI PUSH2 0xBB8 PUSH2 0x288B JUMP JUMPDEST JUMPDEST PUSH1 0x2 DUP8 PUSH1 0x40 MLOAD PUSH2 0xBC9 SWAP2 SWAP1 PUSH2 0x2BDC JUMP JUMPDEST SWAP1 DUP2 MSTORE PUSH1 0x20 ADD PUSH1 0x40 MLOAD DUP1 SWAP2 SUB SWAP1 KECCAK256 DUP3 DUP2 SLOAD DUP2 LT PUSH2 0xBE9 JUMPI PUSH2 0xBE8 PUSH2 0x2C56 JUMP JUMPDEST JUMPDEST SWAP1 PUSH1 0x0 MSTORE PUSH1 0x20 PUSH1 0x0 KECCAK256 SWAP1 PUSH1 0x3 MUL ADD PUSH1 0x2 ADD PUSH1 0x0 SWAP1 SLOAD SWAP1 PUSH2 0x100 EXP SWAP1 DIV PUSH1 0xFF AND PUSH1 0x6 DUP2 GT ISZERO PUSH2 0xC1A JUMPI PUSH2 0xC19 PUSH2 0x288B JUMP JUMPDEST JUMPDEST SUB PUSH2 0xC97 JUMPI PUSH1 0x3 PUSH1 0x6 DUP2 GT ISZERO PUSH2 0xC33 JUMPI PUSH2 0xC32 PUSH2 0x288B JUMP JUMPDEST JUMPDEST PUSH1 0x2 DUP8 PUSH1 0x40 MLOAD PUSH2 0xC43 SWAP2 SWAP1 PUSH2 0x2BDC JUMP JUMPDEST SWAP1 DUP2 MSTORE PUSH1 0x20 ADD PUSH1 0x40 MLOAD DUP1 SWAP2 SUB SWAP1 KECCAK256 DUP3 DUP2 SLOAD DUP2 LT PUSH2 0xC63 JUMPI PUSH2 0xC62 PUSH2 0x2C56 JUMP JUMPDEST JUMPDEST SWAP1 PUSH1 0x0 MSTORE PUSH1 0x20 PUSH1 0x0 KECCAK256 SWAP1 PUSH1 0x3 MUL ADD PUSH1 0x2 ADD PUSH1 0x0 SWAP1 SLOAD SWAP1 PUSH2 0x100 EXP SWAP1 DIV PUSH1 0xFF AND PUSH1 0x6 DUP2 GT ISZERO PUSH2 0xC94 JUMPI PUSH2 0xC93 PUSH2 0x288B JUMP JUMPDEST JUMPDEST POP POP JUMPDEST DUP1 DUP1 PUSH2 0xCA2 SWAP1 PUSH2 0x2CB4 JUMP JUMPDEST SWAP2 POP POP PUSH2 0xB7C JUMP JUMPDEST POP PUSH32 0x9D8C4BDA31461C9A9300697C59318BAC02CC954037B51C5DB3AE52347042D2BC DUP6 PUSH1 0x40 MLOAD PUSH2 0xCDA SWAP2 SWAP1 PUSH2 0x2DF5 JUMP JUMPDEST PUSH1 0x40 MLOAD DUP1 SWAP2 SUB SWAP1 LOG1 POP POP POP POP POP JUMP JUMPDEST PUSH2 0xCFB DUP11 DUP11 DUP11 DUP11 DUP11 DUP11 DUP11 DUP11 DUP11 DUP11 PUSH2 0x1FA5 JUMP JUMPDEST ISZERO PUSH2 0xE60 JUMPI PUSH2 0xD08 PUSH2 0x235D JUMP JUMPDEST DUP10 DUP2 PUSH1 0x0 ADD DUP2 DUP2 MSTORE POP POP DUP9 DUP2 PUSH1 0x20 ADD DUP2 DUP2 MSTORE POP POP DUP8 DUP2 PUSH1 0x40 ADD DUP2 DUP2 MSTORE POP POP DUP7 DUP2 PUSH1 0x60 ADD DUP2 DUP2 MSTORE POP POP DUP6 DUP2 PUSH1 0x80 ADD DUP2 DUP2 MSTORE POP POP DUP5 DUP2 PUSH1 0xA0 ADD DUP2 DUP2 MSTORE POP POP DUP4 DUP2 PUSH1 0xC0 ADD DUP2 DUP2 MSTORE POP POP DUP3 DUP2 PUSH1 0xE0 ADD DUP2 DUP2 MSTORE POP POP DUP2 DUP2 PUSH2 0x100 ADD DUP2 DUP2 MSTORE POP POP DUP1 PUSH1 0x1 DUP13 PUSH1 0x40 MLOAD PUSH2 0xD74 SWAP2 SWAP1 PUSH2 0x2BDC JUMP JUMPDEST SWAP1 DUP2 MSTORE PUSH1 0x20 ADD PUSH1 0x40 MLOAD DUP1 SWAP2 SUB SWAP1 KECCAK256 PUSH1 0x0 DUP3 ADD MLOAD DUP2 PUSH1 0x0 ADD SSTORE PUSH1 0x20 DUP3 ADD MLOAD DUP2 PUSH1 0x1 ADD SSTORE PUSH1 0x40 DUP3 ADD MLOAD DUP2 PUSH1 0x2 ADD SSTORE PUSH1 0x60 DUP3 ADD MLOAD DUP2 PUSH1 0x3 ADD SSTORE PUSH1 0x80 DUP3 ADD MLOAD DUP2 PUSH1 0x4 ADD SSTORE PUSH1 0xA0 DUP3 ADD MLOAD DUP2 PUSH1 0x5 ADD SSTORE PUSH1 0xC0 DUP3 ADD MLOAD DUP2 PUSH1 0x6 ADD SSTORE PUSH1 0xE0 DUP3 ADD MLOAD DUP2 PUSH1 0x7 ADD SSTORE PUSH2 0x100 DUP3 ADD MLOAD DUP2 PUSH1 0x8 ADD SSTORE SWAP1 POP POP PUSH1 0x0 DUP12 SWAP1 DUP1 PUSH1 0x1 DUP2 SLOAD ADD DUP1 DUP3 SSTORE DUP1 SWAP2 POP POP PUSH1 0x1 SWAP1 SUB SWAP1 PUSH1 0x0 MSTORE PUSH1 0x20 PUSH1 0x0 KECCAK256 ADD PUSH1 0x0 SWAP1 SWAP2 SWAP1 SWAP2 SWAP1 SWAP2 POP SWAP1 DUP2 PUSH2 0xE14 SWAP2 SWAP1 PUSH2 0x2FAE JUMP JUMPDEST POP PUSH32 0xE5549B694E8EA655C231F5D255127CF7C0F14997A411CCDF6577E3B991167442 DUP12 DUP12 DUP12 DUP12 DUP12 DUP12 DUP12 DUP12 DUP12 DUP12 PUSH1 0x40 MLOAD PUSH2 0xE56 SWAP11 SWAP10 SWAP9 SWAP8 SWAP7 SWAP6 SWAP5 SWAP4 SWAP3 SWAP2 SWAP1 PUSH2 0x3080 JUMP JUMPDEST PUSH1 0x40 MLOAD DUP1 SWAP2 SUB SWAP1 LOG1 POP JUMPDEST POP POP POP POP POP POP POP POP POP POP JUMP JUMPDEST DUP2 PUSH1 0x0 DUP1 PUSH1 0x0 SWAP1 POP JUMPDEST PUSH1 0x0 DUP1 SLOAD SWAP1 POP DUP2 LT ISZERO PUSH2 0xEA3 JUMPI DUP2 DUP1 PUSH2 0xE8D SWAP1 PUSH2 0x2CB4 JUMP JUMPDEST SWAP3 POP POP DUP1 DUP1 PUSH2 0xE9B SWAP1 PUSH2 0x2CB4 JUMP JUMPDEST SWAP2 POP POP PUSH2 0xE75 JUMP JUMPDEST POP PUSH1 0x0 DUP1 SLOAD SWAP1 POP DUP2 SUB PUSH2 0xEE2 JUMPI PUSH1 0x40 MLOAD PUSH32 0x6B9108F800000000000000000000000000000000000000000000000000000000 DUP2 MSTORE PUSH1 0x4 ADD PUSH1 0x40 MLOAD DUP1 SWAP2 SUB SWAP1 REVERT JUMPDEST DUP4 TIMESTAMP PUSH1 0x1 DUP3 PUSH1 0x40 MLOAD PUSH2 0xEF4 SWAP2 SWAP1 PUSH2 0x2BDC JUMP JUMPDEST SWAP1 DUP2 MSTORE PUSH1 0x20 ADD PUSH1 0x40 MLOAD DUP1 SWAP2 SUB SWAP1 KECCAK256 PUSH1 0x2 ADD SLOAD LT DUP1 PUSH2 0xF32 JUMPI POP TIMESTAMP PUSH1 0x1 DUP3 PUSH1 0x40 MLOAD PUSH2 0xF1E SWAP2 SWAP1 PUSH2 0x2BDC JUMP JUMPDEST SWAP1 DUP2 MSTORE PUSH1 0x20 ADD PUSH1 0x40 MLOAD DUP1 SWAP2 SUB SWAP1 KECCAK256 PUSH1 0x3 ADD SLOAD GT JUMPDEST ISZERO PUSH2 0xF69 JUMPI PUSH1 0x40 MLOAD PUSH32 0x355D234800000000000000000000000000000000000000000000000000000000 DUP2 MSTORE PUSH1 0x4 ADD PUSH1 0x40 MLOAD DUP1 SWAP2 SUB SWAP1 REVERT JUMPDEST DUP5 PUSH1 0x0 DUP1 JUMPDEST PUSH1 0x2 DUP4 PUSH1 0x40 MLOAD PUSH2 0xF7E SWAP2 SWAP1 PUSH2 0x2BDC JUMP JUMPDEST SWAP1 DUP2 MSTORE PUSH1 0x20 ADD PUSH1 0x40 MLOAD DUP1 SWAP2 SUB SWAP1 KECCAK256 DUP1 SLOAD SWAP1 POP DUP2 LT ISZERO PUSH2 0x104D JUMPI CALLER PUSH20 0xFFFFFFFFFFFFFFFFFFFFFFFFFFFFFFFFFFFFFFFF AND PUSH1 0x2 DUP5 PUSH1 0x40 MLOAD PUSH2 0xFBE SWAP2 SWAP1 PUSH2 0x2BDC JUMP JUMPDEST SWAP1 DUP2 MSTORE PUSH1 0x20 ADD PUSH1 0x40 MLOAD DUP1 SWAP2 SUB SWAP1 KECCAK256 DUP3 DUP2 SLOAD DUP2 LT PUSH2 0xFDE JUMPI PUSH2 0xFDD PUSH2 0x2C56 JUMP JUMPDEST JUMPDEST SWAP1 PUSH1 0x0 MSTORE PUSH1 0x20 PUSH1 0x0 KECCAK256 SWAP1 PUSH1 0x3 MUL ADD PUSH1 0x0 ADD PUSH1 0x0 SWAP1 SLOAD SWAP1 PUSH2 0x100 EXP SWAP1 DIV PUSH20 0xFFFFFFFFFFFFFFFFFFFFFFFFFFFFFFFFFFFFFFFF AND PUSH20 0xFFFFFFFFFFFFFFFFFFFFFFFFFFFFFFFFFFFFFFFF AND EQ PUSH2 0x103A JUMPI DUP2 DUP1 PUSH2 0x1036 SWAP1 PUSH2 0x2CB4 JUMP JUMPDEST SWAP3 POP POP JUMPDEST DUP1 DUP1 PUSH2 0x1045 SWAP1 PUSH2 0x2CB4 JUMP JUMPDEST SWAP2 POP POP PUSH2 0xF6E JUMP JUMPDEST POP PUSH1 0x2 DUP3 PUSH1 0x40 MLOAD PUSH2 0x105E SWAP2 SWAP1 PUSH2 0x2BDC JUMP JUMPDEST SWAP1 DUP2 MSTORE PUSH1 0x20 ADD PUSH1 0x40 MLOAD DUP1 SWAP2 SUB SWAP1 KECCAK256 DUP1 SLOAD SWAP1 POP DUP2 SUB PUSH2 0x10A8 JUMPI PUSH1 0x40 MLOAD PUSH32 0x2FFD4A0C00000000000000000000000000000000000000000000000000000000 DUP2 MSTORE PUSH1 0x4 ADD PUSH1 0x40 MLOAD DUP1 SWAP2 SUB SWAP1 REVERT JUMPDEST DUP7 DUP7 PUSH1 0x1 DUP3 PUSH1 0x40 MLOAD PUSH2 0x10BA SWAP2 SWAP1 PUSH2 0x2BDC JUMP JUMPDEST SWAP1 DUP2 MSTORE PUSH1 0x20 ADD PUSH1 0x40 MLOAD DUP1 SWAP2 SUB SWAP1 KECCAK256 PUSH1 0x6 ADD SLOAD DUP2 LT DUP1 PUSH2 0x110C JUMPI POP PUSH1 0x1 DUP3 PUSH1 0x40 MLOAD PUSH2 0x10E4 SWAP2 SWAP1 PUSH2 0x2BDC JUMP JUMPDEST SWAP1 DUP2 MSTORE PUSH1 0x20 ADD PUSH1 0x40 MLOAD DUP1 SWAP2 SUB SWAP1 KECCAK256 PUSH1 0x8 ADD SLOAD PUSH2 0x10FF DUP4 PUSH2 0x1518 JUMP JUMPDEST PUSH2 0x1109 SWAP2 SWAP1 PUSH2 0x3123 JUMP JUMPDEST DUP2 LT JUMPDEST ISZERO PUSH2 0x1143 JUMPI PUSH1 0x40 MLOAD PUSH32 0xABDDA60F00000000000000000000000000000000000000000000000000000000 DUP2 MSTORE PUSH1 0x4 ADD PUSH1 0x40 MLOAD DUP1 SWAP2 SUB SWAP1 REVERT JUMPDEST DUP8 PUSH1 0x2 DUP11 PUSH1 0x40 MLOAD PUSH2 0x1154 SWAP2 SWAP1 PUSH2 0x2BDC JUMP JUMPDEST SWAP1 DUP2 MSTORE PUSH1 0x20 ADD PUSH1 0x40 MLOAD DUP1 SWAP2 SUB SWAP1 KECCAK256 PUSH2 0x116B DUP12 PUSH2 0x2271 JUMP JUMPDEST DUP2 SLOAD DUP2 LT PUSH2 0x117C JUMPI PUSH2 0x117B PUSH2 0x2C56 JUMP JUMPDEST JUMPDEST SWAP1 PUSH1 0x0 MSTORE PUSH1 0x20 PUSH1 0x0 KECCAK256 SWAP1 PUSH1 0x3 MUL ADD PUSH1 0x1 ADD DUP2 SWAP1 SSTORE POP PUSH32 0xE886416816C234AD984C20A40B4480B0E1DC31A4DA3EDBAB50626E575B7DBE05 DUP10 CALLER DUP11 PUSH1 0x40 MLOAD PUSH2 0x11C4 SWAP4 SWAP3 SWAP2 SWAP1 PUSH2 0x3166 JUMP JUMPDEST PUSH1 0x40 MLOAD DUP1 SWAP2 SUB SWAP1 LOG1 POP POP POP POP POP POP POP POP POP JUMP JUMPDEST PUSH1 0x0 DUP1 PUSH1 0x0 JUMPDEST PUSH1 0x2 DUP5 PUSH1 0x40 MLOAD PUSH2 0x11ED SWAP2 SWAP1 PUSH2 0x2BDC JUMP JUMPDEST SWAP1 DUP2 MSTORE PUSH1 0x20 ADD PUSH1 0x40 MLOAD DUP1 SWAP2 SUB SWAP1 KECCAK256 DUP1 SLOAD SWAP1 POP DUP2 LT ISZERO PUSH2 0x12E5 JUMPI PUSH1 0x2 DUP5 PUSH1 0x40 MLOAD PUSH2 0x1216 SWAP2 SWAP1 PUSH2 0x2BDC JUMP JUMPDEST SWAP1 DUP2 MSTORE PUSH1 0x20 ADD PUSH1 0x40 MLOAD DUP1 SWAP2 SUB SWAP1 KECCAK256 DUP2 DUP2 SLOAD DUP2 LT PUSH2 0x1236 JUMPI PUSH2 0x1235 PUSH2 0x2C56 JUMP JUMPDEST JUMPDEST SWAP1 PUSH1 0x0 MSTORE PUSH1 0x20 PUSH1 0x0 KECCAK256 SWAP1 PUSH1 0x3 MUL ADD PUSH1 0x1 ADD SLOAD DUP3 LT DUP1 ISZERO PUSH2 0x12C9 JUMPI POP PUSH1 0x4 PUSH1 0x6 DUP2 GT ISZERO PUSH2 0x1265 JUMPI PUSH2 0x1264 PUSH2 0x288B JUMP JUMPDEST JUMPDEST PUSH1 0x2 DUP6 PUSH1 0x40 MLOAD PUSH2 0x1275 SWAP2 SWAP1 PUSH2 0x2BDC JUMP JUMPDEST SWAP1 DUP2 MSTORE PUSH1 0x20 ADD PUSH1 0x40 MLOAD DUP1 SWAP2 SUB SWAP1 KECCAK256 DUP3 DUP2 SLOAD DUP2 LT PUSH2 0x1295 JUMPI PUSH2 0x1294 PUSH2 0x2C56 JUMP JUMPDEST JUMPDEST SWAP1 PUSH1 0x0 MSTORE PUSH1 0x20 PUSH1 0x0 KECCAK256 SWAP1 PUSH1 0x3 MUL ADD PUSH1 0x2 ADD PUSH1 0x0 SWAP1 SLOAD SWAP1 PUSH2 0x100 EXP SWAP1 DIV PUSH1 0xFF AND PUSH1 0x6 DUP2 GT ISZERO PUSH2 0x12C6 JUMPI PUSH2 0x12C5 PUSH2 0x288B JUMP JUMPDEST JUMPDEST EQ ISZERO JUMPDEST ISZERO PUSH2 0x12D2 JUMPI DUP1 SWAP2 POP JUMPDEST DUP1 DUP1 PUSH2 0x12DD SWAP1 PUSH2 0x2CB4 JUMP JUMPDEST SWAP2 POP POP PUSH2 0x11DD JUMP JUMPDEST POP DUP1 SWAP2 POP POP SWAP2 SWAP1 POP JUMP JUMPDEST DUP1 PUSH1 0x2 PUSH1 0x6 DUP2 GT ISZERO PUSH2 0x1304 JUMPI PUSH2 0x1303 PUSH2 0x288B JUMP JUMPDEST JUMPDEST PUSH1 0x2 DUP3 PUSH1 0x40 MLOAD PUSH2 0x1314 SWAP2 SWAP1 PUSH2 0x2BDC JUMP JUMPDEST SWAP1 DUP2 MSTORE PUSH1 0x20 ADD PUSH1 0x40 MLOAD DUP1 SWAP2 SUB SWAP1 KECCAK256 PUSH2 0x132B DUP4 PUSH2 0x2271 JUMP JUMPDEST DUP2 SLOAD DUP2 LT PUSH2 0x133C JUMPI PUSH2 0x133B PUSH2 0x2C56 JUMP JUMPDEST JUMPDEST SWAP1 PUSH1 0x0 MSTORE PUSH1 0x20 PUSH1 0x0 KECCAK256 SWAP1 PUSH1 0x3 MUL ADD PUSH1 0x2 ADD PUSH1 0x0 SWAP1 SLOAD SWAP1 PUSH2 0x100 EXP SWAP1 DIV PUSH1 0xFF AND PUSH1 0x6 DUP2 GT ISZERO PUSH2 0x136D JUMPI PUSH2 0x136C PUSH2 0x288B JUMP JUMPDEST JUMPDEST EQ PUSH2 0x13A4 JUMPI PUSH1 0x40 MLOAD PUSH32 0x7963B56F00000000000000000000000000000000000000000000000000000000 DUP2 MSTORE PUSH1 0x4 ADD PUSH1 0x40 MLOAD DUP1 SWAP2 SUB SWAP1 REVERT JUMPDEST DUP2 PUSH1 0x0 PUSH1 0x1 DUP3 PUSH1 0x40 MLOAD PUSH2 0x13B7 SWAP2 SWAP1 PUSH2 0x2BDC JUMP JUMPDEST SWAP1 DUP2 MSTORE PUSH1 0x20 ADD PUSH1 0x40 MLOAD DUP1 SWAP2 SUB SWAP1 KECCAK256 PUSH1 0x6 ADD SLOAD PUSH1 0x2 DUP4 PUSH1 0x40 MLOAD PUSH2 0x13D9 SWAP2 SWAP1 PUSH2 0x2BDC JUMP JUMPDEST SWAP1 DUP2 MSTORE PUSH1 0x20 ADD PUSH1 0x40 MLOAD DUP1 SWAP2 SUB SWAP1 KECCAK256 PUSH2 0x13F0 DUP5 PUSH2 0x2271 JUMP JUMPDEST DUP2 SLOAD DUP2 LT PUSH2 0x1401 JUMPI PUSH2 0x1400 PUSH2 0x2C56 JUMP JUMPDEST JUMPDEST SWAP1 PUSH1 0x0 MSTORE PUSH1 0x20 PUSH1 0x0 KECCAK256 SWAP1 PUSH1 0x3 MUL ADD PUSH1 0x1 ADD SLOAD PUSH2 0x141D SWAP2 SWAP1 PUSH2 0x2C22 JUMP JUMPDEST SWAP1 POP DUP1 CALLVALUE EQ PUSH2 0x1465 JUMPI DUP2 DUP2 PUSH1 0x40 MLOAD PUSH32 0x1ABCBF8700000000000000000000000000000000000000000000000000000000 DUP2 MSTORE PUSH1 0x4 ADD PUSH2 0x145C SWAP3 SWAP2 SWAP1 PUSH2 0x31A4 JUMP JUMPDEST PUSH1 0x40 MLOAD DUP1 SWAP2 SUB SWAP1 REVERT JUMPDEST PUSH1 0x6 PUSH1 0x2 DUP6 PUSH1 0x40 MLOAD PUSH2 0x1477 SWAP2 SWAP1 PUSH2 0x2BDC JUMP JUMPDEST SWAP1 DUP2 MSTORE PUSH1 0x20 ADD PUSH1 0x40 MLOAD DUP1 SWAP2 SUB SWAP1 KECCAK256 PUSH2 0x148E DUP7 PUSH2 0x2271 JUMP JUMPDEST DUP2 SLOAD DUP2 LT PUSH2 0x149F JUMPI PUSH2 0x149E PUSH2 0x2C56 JUMP JUMPDEST JUMPDEST SWAP1 PUSH1 0x0 MSTORE PUSH1 0x20 PUSH1 0x0 KECCAK256 SWAP1 PUSH1 0x3 MUL ADD PUSH1 0x2 ADD PUSH1 0x0 PUSH2 0x100 EXP DUP2 SLOAD DUP2 PUSH1 0xFF MUL NOT AND SWAP1 DUP4 PUSH1 0x6 DUP2 GT ISZERO PUSH2 0x14D2 JUMPI PUSH2 0x14D1 PUSH2 0x288B JUMP JUMPDEST JUMPDEST MUL OR SWAP1 SSTORE POP PUSH32 0x2951E1D2E4F526E0E6F563C03B8940DA36E4616BBC2EC1933479F7D649E00164 DUP5 CALLER CALLVALUE PUSH1 0x40 MLOAD PUSH2 0x150A SWAP4 SWAP3 SWAP2 SWAP1 PUSH2 0x3166 JUMP JUMPDEST PUSH1 0x40 MLOAD DUP1 SWAP2 SUB SWAP1 LOG1 POP POP POP POP JUMP JUMPDEST PUSH1 0x0 DUP1 PUSH1 0x0 SWAP1 POP PUSH1 0x0 JUMPDEST PUSH1 0x2 DUP5 PUSH1 0x40 MLOAD PUSH2 0x1532 SWAP2 SWAP1 PUSH2 0x2BDC JUMP JUMPDEST SWAP1 DUP2 MSTORE PUSH1 0x20 ADD PUSH1 0x40 MLOAD DUP1 SWAP2 SUB SWAP1 KECCAK256 DUP1 SLOAD SWAP1 POP DUP2 LT ISZERO PUSH2 0x166B JUMPI DUP2 PUSH1 0x2 DUP6 PUSH1 0x40 MLOAD PUSH2 0x155C SWAP2 SWAP1 PUSH2 0x2BDC JUMP JUMPDEST SWAP1 DUP2 MSTORE PUSH1 0x20 ADD PUSH1 0x40 MLOAD DUP1 SWAP2 SUB SWAP1 KECCAK256 DUP3 DUP2 SLOAD DUP2 LT PUSH2 0x157C JUMPI PUSH2 0x157B PUSH2 0x2C56 JUMP JUMPDEST JUMPDEST SWAP1 PUSH1 0x0 MSTORE PUSH1 0x20 PUSH1 0x0 KECCAK256 SWAP1 PUSH1 0x3 MUL ADD PUSH1 0x1 ADD SLOAD GT DUP1 ISZERO PUSH2 0x160E JUMPI POP PUSH1 0x4 PUSH1 0x6 DUP2 GT ISZERO PUSH2 0x15AA JUMPI PUSH2 0x15A9 PUSH2 0x288B JUMP JUMPDEST JUMPDEST PUSH1 0x2 DUP6 PUSH1 0x40 MLOAD PUSH2 0x15BA SWAP2 SWAP1 PUSH2 0x2BDC JUMP JUMPDEST SWAP1 DUP2 MSTORE PUSH1 0x20 ADD PUSH1 0x40 MLOAD DUP1 SWAP2 SUB SWAP1 KECCAK256 DUP3 DUP2 SLOAD DUP2 LT PUSH2 0x15DA JUMPI PUSH2 0x15D9 PUSH2 0x2C56 JUMP JUMPDEST JUMPDEST SWAP1 PUSH1 0x0 MSTORE PUSH1 0x20 PUSH1 0x0 KECCAK256 SWAP1 PUSH1 0x3 MUL ADD PUSH1 0x2 ADD PUSH1 0x0 SWAP1 SLOAD SWAP1 PUSH2 0x100 EXP SWAP1 DIV PUSH1 0xFF AND PUSH1 0x6 DUP2 GT ISZERO PUSH2 0x160B JUMPI PUSH2 0x160A PUSH2 0x288B JUMP JUMPDEST JUMPDEST EQ ISZERO JUMPDEST ISZERO PUSH2 0x1658 JUMPI PUSH1 0x2 DUP5 PUSH1 0x40 MLOAD PUSH2 0x1623 SWAP2 SWAP1 PUSH2 0x2BDC JUMP JUMPDEST SWAP1 DUP2 MSTORE PUSH1 0x20 ADD PUSH1 0x40 MLOAD DUP1 SWAP2 SUB SWAP1 KECCAK256 DUP2 DUP2 SLOAD DUP2 LT PUSH2 0x1643 JUMPI PUSH2 0x1642 PUSH2 0x2C56 JUMP JUMPDEST JUMPDEST SWAP1 PUSH1 0x0 MSTORE PUSH1 0x20 PUSH1 0x0 KECCAK256 SWAP1 PUSH1 0x3 MUL ADD PUSH1 0x1 ADD SLOAD SWAP2 POP JUMPDEST DUP1 DUP1 PUSH2 0x1663 SWAP1 PUSH2 0x2CB4 JUMP JUMPDEST SWAP2 POP POP PUSH2 0x1522 JUMP JUMPDEST POP DUP1 SWAP2 POP POP SWAP2 SWAP1 POP JUMP JUMPDEST DUP1 PUSH1 0x0 JUMPDEST PUSH1 0x0 DUP1 SLOAD SWAP1 POP DUP2 LT ISZERO PUSH2 0x173B JUMPI PUSH1 0x0 DUP2 DUP2 SLOAD DUP2 LT PUSH2 0x169A JUMPI PUSH2 0x1699 PUSH2 0x2C56 JUMP JUMPDEST JUMPDEST SWAP1 PUSH1 0x0 MSTORE PUSH1 0x20 PUSH1 0x0 KECCAK256 ADD PUSH1 0x40 MLOAD PUSH1 0x20 ADD PUSH2 0x16B4 SWAP2 SWAP1 PUSH2 0x2D94 JUMP JUMPDEST PUSH1 0x40 MLOAD PUSH1 0x20 DUP2 DUP4 SUB SUB DUP2 MSTORE SWAP1 PUSH1 0x40 MSTORE DUP1 MLOAD SWAP1 PUSH1 0x20 ADD KECCAK256 DUP3 PUSH1 0x40 MLOAD PUSH1 0x20 ADD PUSH2 0x16DB SWAP2 SWAP1 PUSH2 0x2BDC JUMP JUMPDEST PUSH1 0x40 MLOAD PUSH1 0x20 DUP2 DUP4 SUB SUB DUP2 MSTORE SWAP1 PUSH1 0x40 MSTORE DUP1 MLOAD SWAP1 PUSH1 0x20 ADD KECCAK256 SUB PUSH2 0x1728 JUMPI PUSH1 0x40 MLOAD PUSH32 0x6B9108F800000000000000000000000000000000000000000000000000000000 DUP2 MSTORE PUSH1 0x4 ADD PUSH1 0x40 MLOAD DUP1 SWAP2 SUB SWAP1 REVERT JUMPDEST DUP1 DUP1 PUSH2 0x1733 SWAP1 PUSH2 0x2CB4 JUMP JUMPDEST SWAP2 POP POP PUSH2 0x1679 JUMP JUMPDEST POP DUP2 TIMESTAMP PUSH1 0x1 DUP3 PUSH1 0x40 MLOAD PUSH2 0x174E SWAP2 SWAP1 PUSH2 0x2BDC JUMP JUMPDEST SWAP1 DUP2 MSTORE PUSH1 0x20 ADD PUSH1 0x40 MLOAD DUP1 SWAP2 SUB SWAP1 KECCAK256 PUSH1 0x0 ADD SLOAD LT DUP1 PUSH2 0x178C JUMPI POP TIMESTAMP PUSH1 0x1 DUP3 PUSH1 0x40 MLOAD PUSH2 0x1778 SWAP2 SWAP1 PUSH2 0x2BDC JUMP JUMPDEST SWAP1 DUP2 MSTORE PUSH1 0x20 ADD PUSH1 0x40 MLOAD DUP1 SWAP2 SUB SWAP1 KECCAK256 PUSH1 0x1 ADD SLOAD GT JUMPDEST ISZERO PUSH2 0x17C3 JUMPI PUSH1 0x40 MLOAD PUSH32 0x60ACD97900000000000000000000000000000000000000000000000000000000 DUP2 MSTORE PUSH1 0x4 ADD PUSH1 0x40 MLOAD DUP1 SWAP2 SUB SWAP1 REVERT JUMPDEST PUSH1 0x0 PUSH1 0x1 DUP5 PUSH1 0x40 MLOAD PUSH2 0x17D5 SWAP2 SWAP1 PUSH2 0x2BDC JUMP JUMPDEST SWAP1 DUP2 MSTORE PUSH1 0x20 ADD PUSH1 0x40 MLOAD DUP1 SWAP2 SUB SWAP1 KECCAK256 PUSH1 0x6 ADD SLOAD PUSH1 0x1 DUP6 PUSH1 0x40 MLOAD PUSH2 0x17F7 SWAP2 SWAP1 PUSH2 0x2BDC JUMP JUMPDEST SWAP1 DUP2 MSTORE PUSH1 0x20 ADD PUSH1 0x40 MLOAD DUP1 SWAP2 SUB SWAP1 KECCAK256 PUSH1 0x5 ADD SLOAD PUSH2 0x1813 SWAP2 SWAP1 PUSH2 0x3123 JUMP JUMPDEST SWAP1 POP DUP1 CALLVALUE LT ISZERO PUSH2 0x185C JUMPI DUP4 DUP2 PUSH1 0x40 MLOAD PUSH32 0x2AAC8AD500000000000000000000000000000000000000000000000000000000 DUP2 MSTORE PUSH1 0x4 ADD PUSH2 0x1853 SWAP3 SWAP2 SWAP1 PUSH2 0x31A4 JUMP JUMPDEST PUSH1 0x40 MLOAD DUP1 SWAP2 SUB SWAP1 REVERT JUMPDEST CALLER PUSH1 0x2 DUP6 PUSH1 0x40 MLOAD PUSH2 0x186D SWAP2 SWAP1 PUSH2 0x2BDC JUMP JUMPDEST SWAP1 DUP2 MSTORE PUSH1 0x20 ADD PUSH1 0x40 MLOAD DUP1 SWAP2 SUB SWAP1 KECCAK256 PUSH1 0x2 DUP7 PUSH1 0x40 MLOAD PUSH2 0x188B SWAP2 SWAP1 PUSH2 0x2BDC JUMP JUMPDEST SWAP1 DUP2 MSTORE PUSH1 0x20 ADD PUSH1 0x40 MLOAD DUP1 SWAP2 SUB SWAP1 KECCAK256 DUP1 SLOAD SWAP1 POP DUP2 SLOAD DUP2 LT PUSH2 0x18AE JUMPI PUSH2 0x18AD PUSH2 0x2C56 JUMP JUMPDEST JUMPDEST SWAP1 PUSH1 0x0 MSTORE PUSH1 0x20 PUSH1 0x0 KECCAK256 SWAP1 PUSH1 0x3 MUL ADD PUSH1 0x0 ADD PUSH1 0x0 PUSH2 0x100 EXP DUP2 SLOAD DUP2 PUSH20 0xFFFFFFFFFFFFFFFFFFFFFFFFFFFFFFFFFFFFFFFF MUL NOT AND SWAP1 DUP4 PUSH20 0xFFFFFFFFFFFFFFFFFFFFFFFFFFFFFFFFFFFFFFFF AND MUL OR SWAP1 SSTORE POP PUSH1 0x0 PUSH1 0x2 DUP6 PUSH1 0x40 MLOAD PUSH2 0x190F SWAP2 SWAP1 PUSH2 0x2BDC JUMP JUMPDEST SWAP1 DUP2 MSTORE PUSH1 0x20 ADD PUSH1 0x40 MLOAD DUP1 SWAP2 SUB SWAP1 KECCAK256 PUSH1 0x2 DUP7 PUSH1 0x40 MLOAD PUSH2 0x192D SWAP2 SWAP1 PUSH2 0x2BDC JUMP JUMPDEST SWAP1 DUP2 MSTORE PUSH1 0x20 ADD PUSH1 0x40 MLOAD DUP1 SWAP2 SUB SWAP1 KECCAK256 DUP1 SLOAD SWAP1 POP DUP2 SLOAD DUP2 LT PUSH2 0x1950 JUMPI PUSH2 0x194F PUSH2 0x2C56 JUMP JUMPDEST JUMPDEST SWAP1 PUSH1 0x0 MSTORE PUSH1 0x20 PUSH1 0x0 KECCAK256 SWAP1 PUSH1 0x3 MUL ADD PUSH1 0x2 ADD PUSH1 0x0 PUSH2 0x100 EXP DUP2 SLOAD DUP2 PUSH1 0xFF MUL NOT AND SWAP1 DUP4 PUSH1 0x6 DUP2 GT ISZERO PUSH2 0x1983 JUMPI PUSH2 0x1982 PUSH2 0x288B JUMP JUMPDEST JUMPDEST MUL OR SWAP1 SSTORE POP PUSH32 0x3D91795A8D93A82CEBCC92AC50F202B5AA73244F00228E1CC9CBDAFBBDF8FE9B DUP5 CALLER PUSH1 0x2 DUP8 PUSH1 0x40 MLOAD PUSH2 0x19BB SWAP2 SWAP1 PUSH2 0x2BDC JUMP JUMPDEST SWAP1 DUP2 MSTORE PUSH1 0x20 ADD PUSH1 0x40 MLOAD DUP1 SWAP2 SUB SWAP1 KECCAK256 PUSH1 0x2 DUP9 PUSH1 0x40 MLOAD PUSH2 0x19D9 SWAP2 SWAP1 PUSH2 0x2BDC JUMP JUMPDEST SWAP1 DUP2 MSTORE PUSH1 0x20 ADD PUSH1 0x40 MLOAD DUP1 SWAP2 SUB SWAP1 KECCAK256 DUP1 SLOAD SWAP1 POP DUP2 SLOAD DUP2 LT PUSH2 0x19FC JUMPI PUSH2 0x19FB PUSH2 0x2C56 JUMP JUMPDEST JUMPDEST SWAP1 PUSH1 0x0 MSTORE PUSH1 0x20 PUSH1 0x0 KECCAK256 SWAP1 PUSH1 0x3 MUL ADD PUSH1 0x2 ADD PUSH1 0x0 SWAP1 SLOAD SWAP1 PUSH2 0x100 EXP SWAP1 DIV PUSH1 0xFF AND PUSH1 0x40 MLOAD PUSH2 0x1A2A SWAP4 SWAP3 SWAP2 SWAP1 PUSH2 0x31E3 JUMP JUMPDEST PUSH1 0x40 MLOAD DUP1 SWAP2 SUB SWAP1 LOG1 POP POP POP POP JUMP JUMPDEST DUP1 PUSH1 0x2 DUP2 PUSH1 0x40 MLOAD PUSH2 0x1A49 SWAP2 SWAP1 PUSH2 0x2BDC JUMP JUMPDEST SWAP1 DUP2 MSTORE PUSH1 0x20 ADD PUSH1 0x40 MLOAD DUP1 SWAP2 SUB SWAP1 KECCAK256 PUSH2 0x1A60 DUP3 PUSH2 0x11D7 JUMP JUMPDEST DUP2 SLOAD DUP2 LT PUSH2 0x1A71 JUMPI PUSH2 0x1A70 PUSH2 0x2C56 JUMP JUMPDEST JUMPDEST SWAP1 PUSH1 0x0 MSTORE PUSH1 0x20 PUSH1 0x0 KECCAK256 SWAP1 PUSH1 0x3 MUL ADD PUSH1 0x0 ADD PUSH1 0x0 SWAP1 SLOAD SWAP1 PUSH2 0x100 EXP SWAP1 DIV PUSH20 0xFFFFFFFFFFFFFFFFFFFFFFFFFFFFFFFFFFFFFFFF AND PUSH20 0xFFFFFFFFFFFFFFFFFFFFFFFFFFFFFFFFFFFFFFFF AND CALLER PUSH20 0xFFFFFFFFFFFFFFFFFFFFFFFFFFFFFFFFFFFFFFFF AND SUB PUSH2 0x1B48 JUMPI PUSH1 0x0 PUSH2 0x12C PUSH2 0xFFFF AND PUSH1 0x1 DUP4 PUSH1 0x40 MLOAD PUSH2 0x1AEE SWAP2 SWAP1 PUSH2 0x2BDC JUMP JUMPDEST SWAP1 DUP2 MSTORE PUSH1 0x20 ADD PUSH1 0x40 MLOAD DUP1 SWAP2 SUB SWAP1 KECCAK256 PUSH1 0x3 ADD SLOAD PUSH2 0x1B0A SWAP2 SWAP1 PUSH2 0x3123 JUMP JUMPDEST SWAP1 POP TIMESTAMP DUP2 GT ISZERO PUSH2 0x1B46 JUMPI PUSH1 0x40 MLOAD PUSH32 0x49107FF700000000000000000000000000000000000000000000000000000000 DUP2 MSTORE PUSH1 0x4 ADD PUSH1 0x40 MLOAD DUP1 SWAP2 SUB SWAP1 REVERT JUMPDEST POP JUMPDEST PUSH1 0x2 DUP2 PUSH1 0x40 MLOAD PUSH2 0x1B58 SWAP2 SWAP1 PUSH2 0x2BDC JUMP JUMPDEST SWAP1 DUP2 MSTORE PUSH1 0x20 ADD PUSH1 0x40 MLOAD DUP1 SWAP2 SUB SWAP1 KECCAK256 PUSH2 0x1B6F DUP3 PUSH2 0x3E7 JUMP JUMPDEST DUP2 SLOAD DUP2 LT PUSH2 0x1B80 JUMPI PUSH2 0x1B7F PUSH2 0x2C56 JUMP JUMPDEST JUMPDEST SWAP1 PUSH1 0x0 MSTORE PUSH1 0x20 PUSH1 0x0 KECCAK256 SWAP1 PUSH1 0x3 MUL ADD PUSH1 0x0 ADD PUSH1 0x0 SWAP1 SLOAD SWAP1 PUSH2 0x100 EXP SWAP1 DIV PUSH20 0xFFFFFFFFFFFFFFFFFFFFFFFFFFFFFFFFFFFFFFFF AND PUSH20 0xFFFFFFFFFFFFFFFFFFFFFFFFFFFFFFFFFFFFFFFF AND CALLER PUSH20 0xFFFFFFFFFFFFFFFFFFFFFFFFFFFFFFFFFFFFFFFF AND SUB PUSH2 0x1C63 JUMPI PUSH1 0x0 PUSH1 0x2 PUSH2 0x12C PUSH2 0x1BF5 SWAP2 SWAP1 PUSH2 0x322F JUMP JUMPDEST PUSH2 0xFFFF AND PUSH1 0x1 DUP4 PUSH1 0x40 MLOAD PUSH2 0x1C09 SWAP2 SWAP1 PUSH2 0x2BDC JUMP JUMPDEST SWAP1 DUP2 MSTORE PUSH1 0x20 ADD PUSH1 0x40 MLOAD DUP1 SWAP2 SUB SWAP1 KECCAK256 PUSH1 0x3 ADD SLOAD PUSH2 0x1C25 SWAP2 SWAP1 PUSH2 0x3123 JUMP JUMPDEST SWAP1 POP TIMESTAMP DUP2 GT ISZERO PUSH2 0x1C61 JUMPI PUSH1 0x40 MLOAD PUSH32 0x49107FF700000000000000000000000000000000000000000000000000000000 DUP2 MSTORE PUSH1 0x4 ADD PUSH1 0x40 MLOAD DUP1 SWAP2 SUB SWAP1 REVERT JUMPDEST POP JUMPDEST DUP2 PUSH1 0x2 PUSH1 0x6 DUP2 GT ISZERO PUSH2 0x1C78 JUMPI PUSH2 0x1C77 PUSH2 0x288B JUMP JUMPDEST JUMPDEST PUSH1 0x2 DUP3 PUSH1 0x40 MLOAD PUSH2 0x1C88 SWAP2 SWAP1 PUSH2 0x2BDC JUMP JUMPDEST SWAP1 DUP2 MSTORE PUSH1 0x20 ADD PUSH1 0x40 MLOAD DUP1 SWAP2 SUB SWAP1 KECCAK256 PUSH2 0x1C9F DUP4 PUSH2 0x2271 JUMP JUMPDEST DUP2 SLOAD DUP2 LT PUSH2 0x1CB0 JUMPI PUSH2 0x1CAF PUSH2 0x2C56 JUMP JUMPDEST JUMPDEST SWAP1 PUSH1 0x0 MSTORE PUSH1 0x20 PUSH1 0x0 KECCAK256 SWAP1 PUSH1 0x3 MUL ADD PUSH1 0x2 ADD PUSH1 0x0 SWAP1 SLOAD SWAP1 PUSH2 0x100 EXP SWAP1 DIV PUSH1 0xFF AND PUSH1 0x6 DUP2 GT ISZERO PUSH2 0x1CE1 JUMPI PUSH2 0x1CE0 PUSH2 0x288B JUMP JUMPDEST JUMPDEST EQ PUSH2 0x1D18 JUMPI PUSH1 0x40 MLOAD PUSH32 0x7963B56F00000000000000000000000000000000000000000000000000000000 DUP2 MSTORE PUSH1 0x4 ADD PUSH1 0x40 MLOAD DUP1 SWAP2 SUB SWAP1 REVERT JUMPDEST PUSH1 0x2 DUP4 PUSH1 0x40 MLOAD PUSH2 0x1D28 SWAP2 SWAP1 PUSH2 0x2BDC JUMP JUMPDEST SWAP1 DUP2 MSTORE PUSH1 0x20 ADD PUSH1 0x40 MLOAD DUP1 SWAP2 SUB SWAP1 KECCAK256 PUSH2 0x1D3F DUP5 PUSH2 0x11D7 JUMP JUMPDEST DUP2 SLOAD DUP2 LT PUSH2 0x1D50 JUMPI PUSH2 0x1D4F PUSH2 0x2C56 JUMP JUMPDEST JUMPDEST SWAP1 PUSH1 0x0 MSTORE PUSH1 0x20 PUSH1 0x0 KECCAK256 SWAP1 PUSH1 0x3 MUL ADD PUSH1 0x0 ADD PUSH1 0x0 SWAP1 SLOAD SWAP1 PUSH2 0x100 EXP SWAP1 DIV PUSH20 0xFFFFFFFFFFFFFFFFFFFFFFFFFFFFFFFFFFFFFFFF AND PUSH20 0xFFFFFFFFFFFFFFFFFFFFFFFFFFFFFFFFFFFFFFFF AND CALLER PUSH20 0xFFFFFFFFFFFFFFFFFFFFFFFFFFFFFFFFFFFFFFFF AND SUB PUSH2 0x1E9C JUMPI PUSH1 0x4 PUSH1 0x2 DUP5 PUSH1 0x40 MLOAD PUSH2 0x1DC6 SWAP2 SWAP1 PUSH2 0x2BDC JUMP JUMPDEST SWAP1 DUP2 MSTORE PUSH1 0x20 ADD PUSH1 0x40 MLOAD DUP1 SWAP2 SUB SWAP1 KECCAK256 PUSH2 0x1DDD DUP6 PUSH2 0x11D7 JUMP JUMPDEST DUP2 SLOAD DUP2 LT PUSH2 0x1DEE JUMPI PUSH2 0x1DED PUSH2 0x2C56 JUMP JUMPDEST JUMPDEST SWAP1 PUSH1 0x0 MSTORE PUSH1 0x20 PUSH1 0x0 KECCAK256 SWAP1 PUSH1 0x3 MUL ADD PUSH1 0x2 ADD PUSH1 0x0 PUSH2 0x100 EXP DUP2 SLOAD DUP2 PUSH1 0xFF MUL NOT AND SWAP1 DUP4 PUSH1 0x6 DUP2 GT ISZERO PUSH2 0x1E21 JUMPI PUSH2 0x1E20 PUSH2 0x288B JUMP JUMPDEST JUMPDEST MUL OR SWAP1 SSTORE POP PUSH1 0x2 DUP1 DUP5 PUSH1 0x40 MLOAD PUSH2 0x1E37 SWAP2 SWAP1 PUSH2 0x2BDC JUMP JUMPDEST SWAP1 DUP2 MSTORE PUSH1 0x20 ADD PUSH1 0x40 MLOAD DUP1 SWAP2 SUB SWAP1 KECCAK256 PUSH2 0x1E4E DUP6 PUSH2 0x3E7 JUMP JUMPDEST DUP2 SLOAD DUP2 LT PUSH2 0x1E5F JUMPI PUSH2 0x1E5E PUSH2 0x2C56 JUMP JUMPDEST JUMPDEST SWAP1 PUSH1 0x0 MSTORE PUSH1 0x20 PUSH1 0x0 KECCAK256 SWAP1 PUSH1 0x3 MUL ADD PUSH1 0x2 ADD PUSH1 0x0 PUSH2 0x100 EXP DUP2 SLOAD DUP2 PUSH1 0xFF MUL NOT AND SWAP1 DUP4 PUSH1 0x6 DUP2 GT ISZERO PUSH2 0x1E92 JUMPI PUSH2 0x1E91 PUSH2 0x288B JUMP JUMPDEST JUMPDEST MUL OR SWAP1 SSTORE POP PUSH2 0x1F0F JUMP JUMPDEST PUSH1 0x4 PUSH1 0x2 DUP5 PUSH1 0x40 MLOAD PUSH2 0x1EAE SWAP2 SWAP1 PUSH2 0x2BDC JUMP JUMPDEST SWAP1 DUP2 MSTORE PUSH1 0x20 ADD PUSH1 0x40 MLOAD DUP1 SWAP2 SUB SWAP1 KECCAK256 PUSH2 0x1EC5 DUP6 PUSH2 0x3E7 JUMP JUMPDEST DUP2 SLOAD DUP2 LT PUSH2 0x1ED6 JUMPI PUSH2 0x1ED5 PUSH2 0x2C56 JUMP JUMPDEST JUMPDEST SWAP1 PUSH1 0x0 MSTORE PUSH1 0x20 PUSH1 0x0 KECCAK256 SWAP1 PUSH1 0x3 MUL ADD PUSH1 0x2 ADD PUSH1 0x0 PUSH2 0x100 EXP DUP2 SLOAD DUP2 PUSH1 0xFF MUL NOT AND SWAP1 DUP4 PUSH1 0x6 DUP2 GT ISZERO PUSH2 0x1F09 JUMPI PUSH2 0x1F08 PUSH2 0x288B JUMP JUMPDEST JUMPDEST MUL OR SWAP1 SSTORE POP JUMPDEST PUSH32 0x87182AAAC5DD5EC80140F092551157B9DC8F704AB22B683DC628B3099676D730 DUP4 CALLER PUSH1 0x2 DUP7 PUSH1 0x40 MLOAD PUSH2 0x1F42 SWAP2 SWAP1 PUSH2 0x2BDC JUMP JUMPDEST SWAP1 DUP2 MSTORE PUSH1 0x20 ADD PUSH1 0x40 MLOAD DUP1 SWAP2 SUB SWAP1 KECCAK256 PUSH2 0x1F59 DUP8 PUSH2 0x2271 JUMP JUMPDEST DUP2 SLOAD DUP2 LT PUSH2 0x1F6A JUMPI PUSH2 0x1F69 PUSH2 0x2C56 JUMP JUMPDEST JUMPDEST SWAP1 PUSH1 0x0 MSTORE PUSH1 0x20 PUSH1 0x0 KECCAK256 SWAP1 PUSH1 0x3 MUL ADD PUSH1 0x2 ADD PUSH1 0x0 SWAP1 SLOAD SWAP1 PUSH2 0x100 EXP SWAP1 DIV PUSH1 0xFF AND PUSH1 0x40 MLOAD PUSH2 0x1F98 SWAP4 SWAP3 SWAP2 SWAP1 PUSH2 0x31E3 JUMP JUMPDEST PUSH1 0x40 MLOAD DUP1 SWAP2 SUB SWAP1 LOG1 POP POP POP JUMP JUMPDEST PUSH1 0x0 DUP11 PUSH1 0x0 JUMPDEST PUSH1 0x0 DUP1 SLOAD SWAP1 POP DUP2 LT ISZERO PUSH2 0x206D JUMPI PUSH1 0x0 DUP2 DUP2 SLOAD DUP2 LT PUSH2 0x1FCC JUMPI PUSH2 0x1FCB PUSH2 0x2C56 JUMP JUMPDEST JUMPDEST SWAP1 PUSH1 0x0 MSTORE PUSH1 0x20 PUSH1 0x0 KECCAK256 ADD PUSH1 0x40 MLOAD PUSH1 0x20 ADD PUSH2 0x1FE6 SWAP2 SWAP1 PUSH2 0x2D94 JUMP JUMPDEST PUSH1 0x40 MLOAD PUSH1 0x20 DUP2 DUP4 SUB SUB DUP2 MSTORE SWAP1 PUSH1 0x40 MSTORE DUP1 MLOAD SWAP1 PUSH1 0x20 ADD KECCAK256 DUP3 PUSH1 0x40 MLOAD PUSH1 0x20 ADD PUSH2 0x200D SWAP2 SWAP1 PUSH2 0x2BDC JUMP JUMPDEST PUSH1 0x40 MLOAD PUSH1 0x20 DUP2 DUP4 SUB SUB DUP2 MSTORE SWAP1 PUSH1 0x40 MSTORE DUP1 MLOAD SWAP1 PUSH1 0x20 ADD KECCAK256 SUB PUSH2 0x205A JUMPI PUSH1 0x40 MLOAD PUSH32 0x6B9108F800000000000000000000000000000000000000000000000000000000 DUP2 MSTORE PUSH1 0x4 ADD PUSH1 0x40 MLOAD DUP1 SWAP2 SUB SWAP1 REVERT JUMPDEST DUP1 DUP1 PUSH2 0x2065 SWAP1 PUSH2 0x2CB4 JUMP JUMPDEST SWAP2 POP POP PUSH2 0x1FAB JUMP JUMPDEST POP DUP11 DUP11 TIMESTAMP DUP3 LT DUP1 PUSH2 0x207E JUMPI POP DUP1 DUP3 LT ISZERO JUMPDEST ISZERO PUSH2 0x20B5 JUMPI PUSH1 0x40 MLOAD PUSH32 0x5E83D5F800000000000000000000000000000000000000000000000000000000 DUP2 MSTORE PUSH1 0x4 ADD PUSH1 0x40 MLOAD DUP1 SWAP2 SUB SWAP1 REVERT JUMPDEST DUP12 DUP12 DUP1 DUP3 LT PUSH2 0x20F0 JUMPI PUSH1 0x40 MLOAD PUSH32 0x7A9971E800000000000000000000000000000000000000000000000000000000 DUP2 MSTORE PUSH1 0x4 ADD PUSH1 0x40 MLOAD DUP1 SWAP2 SUB SWAP1 REVERT JUMPDEST DUP13 DUP13 DUP1 DUP3 LT PUSH2 0x212B JUMPI PUSH1 0x40 MLOAD PUSH32 0xE2049FA500000000000000000000000000000000000000000000000000000000 DUP2 MSTORE PUSH1 0x4 ADD PUSH1 0x40 MLOAD DUP1 SWAP2 SUB SWAP1 REVERT JUMPDEST DUP14 DUP14 DUP1 DUP3 LT PUSH2 0x2166 JUMPI PUSH1 0x40 MLOAD PUSH32 0xCC2116A000000000000000000000000000000000000000000000000000000000 DUP2 MSTORE PUSH1 0x4 ADD PUSH1 0x40 MLOAD DUP1 SWAP2 SUB SWAP1 REVERT JUMPDEST DUP14 PUSH1 0x0 DUP2 GT PUSH2 0x21A1 JUMPI PUSH1 0x40 MLOAD PUSH32 0xB25C88C500000000000000000000000000000000000000000000000000000000 DUP2 MSTORE PUSH1 0x4 ADD PUSH1 0x40 MLOAD DUP1 SWAP2 SUB SWAP1 REVERT JUMPDEST DUP14 PUSH1 0x0 DUP2 GT PUSH2 0x21DC JUMPI PUSH1 0x40 MLOAD PUSH32 0xB0F07A6300000000000000000000000000000000000000000000000000000000 DUP2 MSTORE PUSH1 0x4 ADD PUSH1 0x40 MLOAD DUP1 SWAP2 SUB SWAP1 REVERT JUMPDEST DUP14 PUSH1 0x0 DUP2 GT PUSH2 0x2217 JUMPI PUSH1 0x40 MLOAD PUSH32 0xFB833A9900000000000000000000000000000000000000000000000000000000 DUP2 MSTORE PUSH1 0x4 ADD PUSH1 0x40 MLOAD DUP1 SWAP2 SUB SWAP1 REVERT JUMPDEST DUP14 PUSH1 0x0 DUP2 GT PUSH2 0x2252 JUMPI PUSH1 0x40 MLOAD PUSH32 0xA9ED13A300000000000000000000000000000000000000000000000000000000 DUP2 MSTORE PUSH1 0x4 ADD PUSH1 0x40 MLOAD DUP1 SWAP2 SUB SWAP1 REVERT JUMPDEST PUSH1 0x1 SWAP14 POP POP POP POP POP POP POP POP POP POP POP POP POP POP SWAP11 SWAP10 POP POP POP POP POP POP POP POP POP POP JUMP JUMPDEST PUSH1 0x0 DUP1 PUSH1 0x0 SWAP1 POP JUMPDEST PUSH1 0x2 DUP4 PUSH1 0x40 MLOAD PUSH2 0x2289 SWAP2 SWAP1 PUSH2 0x2BDC JUMP JUMPDEST SWAP1 DUP2 MSTORE PUSH1 0x20 ADD PUSH1 0x40 MLOAD DUP1 SWAP2 SUB SWAP1 KECCAK256 DUP1 SLOAD SWAP1 POP DUP2 LT ISZERO PUSH2 0x2352 JUMPI CALLER PUSH20 0xFFFFFFFFFFFFFFFFFFFFFFFFFFFFFFFFFFFFFFFF AND PUSH1 0x2 DUP5 PUSH1 0x40 MLOAD PUSH2 0x22C9 SWAP2 SWAP1 PUSH2 0x2BDC JUMP JUMPDEST SWAP1 DUP2 MSTORE PUSH1 0x20 ADD PUSH1 0x40 MLOAD DUP1 SWAP2 SUB SWAP1 KECCAK256 DUP3 DUP2 SLOAD DUP2 LT PUSH2 0x22E9 JUMPI PUSH2 0x22E8 PUSH2 0x2C56 JUMP JUMPDEST JUMPDEST SWAP1 PUSH1 0x0 MSTORE PUSH1 0x20 PUSH1 0x0 KECCAK256 SWAP1 PUSH1 0x3 MUL ADD PUSH1 0x0 ADD PUSH1 0x0 SWAP1 SLOAD SWAP1 PUSH2 0x100 EXP SWAP1 DIV PUSH20 0xFFFFFFFFFFFFFFFFFFFFFFFFFFFFFFFFFFFFFFFF AND PUSH20 0xFFFFFFFFFFFFFFFFFFFFFFFFFFFFFFFFFFFFFFFF AND SUB PUSH2 0x233F JUMPI DUP1 SWAP2 POP POP PUSH2 0x2358 JUMP JUMPDEST DUP1 DUP1 PUSH2 0x234A SWAP1 PUSH2 0x2CB4 JUMP JUMPDEST SWAP2 POP POP PUSH2 0x2279 JUMP JUMPDEST POP PUSH1 0x0 SWAP1 POP JUMPDEST SWAP2 SWAP1 POP JUMP JUMPDEST PUSH1 0x40 MLOAD DUP1 PUSH2 0x120 ADD PUSH1 0x40 MSTORE DUP1 PUSH1 0x0 DUP2 MSTORE PUSH1 0x20 ADD PUSH1 0x0 DUP2 MSTORE PUSH1 0x20 ADD PUSH1 0x0 DUP2 MSTORE PUSH1 0x20 ADD PUSH1 0x0 DUP2 MSTORE PUSH1 0x20 ADD PUSH1 0x0 DUP2 MSTORE PUSH1 0x20 ADD PUSH1 0x0 DUP2 MSTORE PUSH1 0x20 ADD PUSH1 0x0 DUP2 MSTORE PUSH1 0x20 ADD PUSH1 0x0 DUP2 MSTORE PUSH1 0x20 ADD PUSH1 0x0 DUP2 MSTORE POP SWAP1 JUMP JUMPDEST PUSH1 0x0 DUP2 MLOAD SWAP1 POP SWAP2 SWAP1 POP JUMP JUMPDEST PUSH1 0x0 DUP3 DUP3 MSTORE PUSH1 0x20 DUP3 ADD SWAP1 POP SWAP3 SWAP2 POP POP JUMP JUMPDEST PUSH1 0x0 DUP2 SWAP1 POP PUSH1 0x20 DUP3 ADD SWAP1 POP SWAP2 SWAP1 POP JUMP JUMPDEST PUSH1 0x0 DUP2 MLOAD SWAP1 POP SWAP2 SWAP1 POP JUMP JUMPDEST PUSH1 0x0 DUP3 DUP3 MSTORE PUSH1 0x20 DUP3 ADD SWAP1 POP SWAP3 SWAP2 POP POP JUMP JUMPDEST PUSH1 0x0 JUMPDEST DUP4 DUP2 LT ISZERO PUSH2 0x240F JUMPI DUP1 DUP3 ADD MLOAD DUP2 DUP5 ADD MSTORE PUSH1 0x20 DUP2 ADD SWAP1 POP PUSH2 0x23F4 JUMP JUMPDEST PUSH1 0x0 DUP5 DUP5 ADD MSTORE POP POP POP POP JUMP JUMPDEST PUSH1 0x0 PUSH1 0x1F NOT PUSH1 0x1F DUP4 ADD AND SWAP1 POP SWAP2 SWAP1 POP JUMP JUMPDEST PUSH1 0x0 PUSH2 0x2437 DUP3 PUSH2 0x23D5 JUMP JUMPDEST PUSH2 0x2441 DUP2 DUP6 PUSH2 0x23E0 JUMP JUMPDEST SWAP4 POP PUSH2 0x2451 DUP2 DUP6 PUSH1 0x20 DUP7 ADD PUSH2 0x23F1 JUMP JUMPDEST PUSH2 0x245A DUP2 PUSH2 0x241B JUMP JUMPDEST DUP5 ADD SWAP2 POP POP SWAP3 SWAP2 POP POP JUMP JUMPDEST PUSH1 0x0 PUSH2 0x2471 DUP4 DUP4 PUSH2 0x242C JUMP JUMPDEST SWAP1 POP SWAP3 SWAP2 POP POP JUMP JUMPDEST PUSH1 0x0 PUSH1 0x20 DUP3 ADD SWAP1 POP SWAP2 SWAP1 POP JUMP JUMPDEST PUSH1 0x0 PUSH2 0x2491 DUP3 PUSH2 0x23A9 JUMP JUMPDEST PUSH2 0x249B DUP2 DUP6 PUSH2 0x23B4 JUMP JUMPDEST SWAP4 POP DUP4 PUSH1 0x20 DUP3 MUL DUP6 ADD PUSH2 0x24AD DUP6 PUSH2 0x23C5 JUMP JUMPDEST DUP1 PUSH1 0x0 JUMPDEST DUP6 DUP2 LT ISZERO PUSH2 0x24E9 JUMPI DUP5 DUP5 SUB DUP10 MSTORE DUP2 MLOAD PUSH2 0x24CA DUP6 DUP3 PUSH2 0x2465 JUMP JUMPDEST SWAP5 POP PUSH2 0x24D5 DUP4 PUSH2 0x2479 JUMP JUMPDEST SWAP3 POP PUSH1 0x20 DUP11 ADD SWAP10 POP POP PUSH1 0x1 DUP2 ADD SWAP1 POP PUSH2 0x24B1 JUMP JUMPDEST POP DUP3 SWAP8 POP DUP8 SWAP6 POP POP POP POP POP POP SWAP3 SWAP2 POP POP JUMP JUMPDEST PUSH1 0x0 PUSH1 0x20 DUP3 ADD SWAP1 POP DUP2 DUP2 SUB PUSH1 0x0 DUP4 ADD MSTORE PUSH2 0x2515 DUP2 DUP5 PUSH2 0x2486 JUMP JUMPDEST SWAP1 POP SWAP3 SWAP2 POP POP JUMP JUMPDEST PUSH1 0x0 PUSH1 0x40 MLOAD SWAP1 POP SWAP1 JUMP JUMPDEST PUSH1 0x0 DUP1 REVERT JUMPDEST PUSH1 0x0 DUP1 REVERT JUMPDEST PUSH1 0x0 DUP1 REVERT JUMPDEST PUSH1 0x0 DUP1 REVERT JUMPDEST PUSH32 0x4E487B7100000000000000000000000000000000000000000000000000000000 PUSH1 0x0 MSTORE PUSH1 0x41 PUSH1 0x4 MSTORE PUSH1 0x24 PUSH1 0x0 REVERT JUMPDEST PUSH2 0x2573 DUP3 PUSH2 0x241B JUMP JUMPDEST DUP2 ADD DUP2 DUP2 LT PUSH8 0xFFFFFFFFFFFFFFFF DUP3 GT OR ISZERO PUSH2 0x2592 JUMPI PUSH2 0x2591 PUSH2 0x253B JUMP JUMPDEST JUMPDEST DUP1 PUSH1 0x40 MSTORE POP POP POP JUMP JUMPDEST PUSH1 0x0 PUSH2 0x25A5 PUSH2 0x251D JUMP JUMPDEST SWAP1 POP PUSH2 0x25B1 DUP3 DUP3 PUSH2 0x256A JUMP JUMPDEST SWAP2 SWAP1 POP JUMP JUMPDEST PUSH1 0x0 PUSH8 0xFFFFFFFFFFFFFFFF DUP3 GT ISZERO PUSH2 0x25D1 JUMPI PUSH2 0x25D0 PUSH2 0x253B JUMP JUMPDEST JUMPDEST PUSH2 0x25DA DUP3 PUSH2 0x241B JUMP JUMPDEST SWAP1 POP PUSH1 0x20 DUP2 ADD SWAP1 POP SWAP2 SWAP1 POP JUMP JUMPDEST DUP3 DUP2 DUP4 CALLDATACOPY PUSH1 0x0 DUP4 DUP4 ADD MSTORE POP POP POP JUMP JUMPDEST PUSH1 0x0 PUSH2 0x2609 PUSH2 0x2604 DUP5 PUSH2 0x25B6 JUMP JUMPDEST PUSH2 0x259B JUMP JUMPDEST SWAP1 POP DUP3 DUP2 MSTORE PUSH1 0x20 DUP2 ADD DUP5 DUP5 DUP5 ADD GT ISZERO PUSH2 0x2625 JUMPI PUSH2 0x2624 PUSH2 0x2536 JUMP JUMPDEST JUMPDEST PUSH2 0x2630 DUP5 DUP3 DUP6 PUSH2 0x25E7 JUMP JUMPDEST POP SWAP4 SWAP3 POP POP POP JUMP JUMPDEST PUSH1 0x0 DUP3 PUSH1 0x1F DUP4 ADD SLT PUSH2 0x264D JUMPI PUSH2 0x264C PUSH2 0x2531 JUMP JUMPDEST JUMPDEST DUP2 CALLDATALOAD PUSH2 0x265D DUP5 DUP3 PUSH1 0x20 DUP7 ADD PUSH2 0x25F6 JUMP JUMPDEST SWAP2 POP POP SWAP3 SWAP2 POP POP JUMP JUMPDEST PUSH1 0x0 PUSH1 0x20 DUP3 DUP5 SUB SLT ISZERO PUSH2 0x267C JUMPI PUSH2 0x267B PUSH2 0x2527 JUMP JUMPDEST JUMPDEST PUSH1 0x0 DUP3 ADD CALLDATALOAD PUSH8 0xFFFFFFFFFFFFFFFF DUP2 GT ISZERO PUSH2 0x269A JUMPI PUSH2 0x2699 PUSH2 0x252C JUMP JUMPDEST JUMPDEST PUSH2 0x26A6 DUP5 DUP3 DUP6 ADD PUSH2 0x2638 JUMP JUMPDEST SWAP2 POP POP SWAP3 SWAP2 POP POP JUMP JUMPDEST PUSH1 0x0 DUP2 SWAP1 POP SWAP2 SWAP1 POP JUMP JUMPDEST PUSH2 0x26C2 DUP2 PUSH2 0x26AF JUMP JUMPDEST DUP3 MSTORE POP POP JUMP JUMPDEST PUSH1 0x0 PUSH1 0x20 DUP3 ADD SWAP1 POP PUSH2 0x26DD PUSH1 0x0 DUP4 ADD DUP5 PUSH2 0x26B9 JUMP JUMPDEST SWAP3 SWAP2 POP POP JUMP JUMPDEST PUSH2 0x26EC DUP2 PUSH2 0x26AF JUMP JUMPDEST DUP2 EQ PUSH2 0x26F7 JUMPI PUSH1 0x0 DUP1 REVERT JUMPDEST POP JUMP JUMPDEST PUSH1 0x0 DUP2 CALLDATALOAD SWAP1 POP PUSH2 0x2709 DUP2 PUSH2 0x26E3 JUMP JUMPDEST SWAP3 SWAP2 POP POP JUMP JUMPDEST PUSH1 0x0 PUSH1 0x20 DUP3 DUP5 SUB SLT ISZERO PUSH2 0x2725 JUMPI PUSH2 0x2724 PUSH2 0x2527 JUMP JUMPDEST JUMPDEST PUSH1 0x0 PUSH2 0x2733 DUP5 DUP3 DUP6 ADD PUSH2 0x26FA JUMP JUMPDEST SWAP2 POP POP SWAP3 SWAP2 POP POP JUMP JUMPDEST PUSH2 0x2745 DUP2 PUSH2 0x26AF JUMP JUMPDEST DUP3 MSTORE POP POP JUMP JUMPDEST PUSH2 0x120 DUP3 ADD PUSH1 0x0 DUP3 ADD MLOAD PUSH2 0x2762 PUSH1 0x0 DUP6 ADD DUP3 PUSH2 0x273C JUMP JUMPDEST POP PUSH1 0x20 DUP3 ADD MLOAD PUSH2 0x2775 PUSH1 0x20 DUP6 ADD DUP3 PUSH2 0x273C JUMP JUMPDEST POP PUSH1 0x40 DUP3 ADD MLOAD PUSH2 0x2788 PUSH1 0x40 DUP6 ADD DUP3 PUSH2 0x273C JUMP JUMPDEST POP PUSH1 0x60 DUP3 ADD MLOAD PUSH2 0x279B PUSH1 0x60 DUP6 ADD DUP3 PUSH2 0x273C JUMP JUMPDEST POP PUSH1 0x80 DUP3 ADD MLOAD PUSH2 0x27AE PUSH1 0x80 DUP6 ADD DUP3 PUSH2 0x273C JUMP JUMPDEST POP PUSH1 0xA0 DUP3 ADD MLOAD PUSH2 0x27C1 PUSH1 0xA0 DUP6 ADD DUP3 PUSH2 0x273C JUMP JUMPDEST POP PUSH1 0xC0 DUP3 ADD MLOAD PUSH2 0x27D4 PUSH1 0xC0 DUP6 ADD DUP3 PUSH2 0x273C JUMP JUMPDEST POP PUSH1 0xE0 DUP3 ADD MLOAD PUSH2 0x27E7 PUSH1 0xE0 DUP6 ADD DUP3 PUSH2 0x273C JUMP JUMPDEST POP PUSH2 0x100 DUP3 ADD MLOAD PUSH2 0x27FC PUSH2 0x100 DUP6 ADD DUP3 PUSH2 0x273C JUMP JUMPDEST POP POP POP POP JUMP JUMPDEST PUSH1 0x0 PUSH2 0x120 DUP3 ADD SWAP1 POP PUSH2 0x2818 PUSH1 0x0 DUP4 ADD DUP5 PUSH2 0x274B JUMP JUMPDEST SWAP3 SWAP2 POP POP JUMP JUMPDEST PUSH1 0x0 DUP2 MLOAD SWAP1 POP SWAP2 SWAP1 POP JUMP JUMPDEST PUSH1 0x0 DUP3 DUP3 MSTORE PUSH1 0x20 DUP3 ADD SWAP1 POP SWAP3 SWAP2 POP POP JUMP JUMPDEST PUSH1 0x0 DUP2 SWAP1 POP PUSH1 0x20 DUP3 ADD SWAP1 POP SWAP2 SWAP1 POP JUMP JUMPDEST PUSH1 0x0 PUSH20 0xFFFFFFFFFFFFFFFFFFFFFFFFFFFFFFFFFFFFFFFF DUP3 AND SWAP1 POP SWAP2 SWAP1 POP JUMP JUMPDEST PUSH1 0x0 PUSH2 0x2875 DUP3 PUSH2 0x284A JUMP JUMPDEST SWAP1 POP SWAP2 SWAP1 POP JUMP JUMPDEST PUSH2 0x2885 DUP2 PUSH2 0x286A JUMP JUMPDEST DUP3 MSTORE POP POP JUMP JUMPDEST PUSH32 0x4E487B7100000000000000000000000000000000000000000000000000000000 PUSH1 0x0 MSTORE PUSH1 0x21 PUSH1 0x4 MSTORE PUSH1 0x24 PUSH1 0x0 REVERT JUMPDEST PUSH1 0x7 DUP2 LT PUSH2 0x28CB JUMPI PUSH2 0x28CA PUSH2 0x288B JUMP JUMPDEST JUMPDEST POP JUMP JUMPDEST PUSH1 0x0 DUP2 SWAP1 POP PUSH2 0x28DC DUP3 PUSH2 0x28BA JUMP JUMPDEST SWAP2 SWAP1 POP JUMP JUMPDEST PUSH1 0x0 PUSH2 0x28EC DUP3 PUSH2 0x28CE JUMP JUMPDEST SWAP1 POP SWAP2 SWAP1 POP JUMP JUMPDEST PUSH2 0x28FC DUP2 PUSH2 0x28E1 JUMP JUMPDEST DUP3 MSTORE POP POP JUMP JUMPDEST PUSH1 0x60 DUP3 ADD PUSH1 0x0 DUP3 ADD MLOAD PUSH2 0x2918 PUSH1 0x0 DUP6 ADD DUP3 PUSH2 0x287C JUMP JUMPDEST POP PUSH1 0x20 DUP3 ADD MLOAD PUSH2 0x292B PUSH1 0x20 DUP6 ADD DUP3 PUSH2 0x273C JUMP JUMPDEST POP PUSH1 0x40 DUP3 ADD MLOAD PUSH2 0x293E PUSH1 0x40 DUP6 ADD DUP3 PUSH2 0x28F3 JUMP JUMPDEST POP POP POP POP JUMP JUMPDEST PUSH1 0x0 PUSH2 0x2950 DUP4 DUP4 PUSH2 0x2902 JUMP JUMPDEST PUSH1 0x60 DUP4 ADD SWAP1 POP SWAP3 SWAP2 POP POP JUMP JUMPDEST PUSH1 0x0 PUSH1 0x20 DUP3 ADD SWAP1 POP SWAP2 SWAP1 POP JUMP JUMPDEST PUSH1 0x0 PUSH2 0x2974 DUP3 PUSH2 0x281E JUMP JUMPDEST PUSH2 0x297E DUP2 DUP6 PUSH2 0x2829 JUMP JUMPDEST SWAP4 POP PUSH2 0x2989 DUP4 PUSH2 0x283A JUMP JUMPDEST DUP1 PUSH1 0x0 JUMPDEST DUP4 DUP2 LT ISZERO PUSH2 0x29BA JUMPI DUP2 MLOAD PUSH2 0x29A1 DUP9 DUP3 PUSH2 0x2944 JUMP JUMPDEST SWAP8 POP PUSH2 0x29AC DUP4 PUSH2 0x295C JUMP JUMPDEST SWAP3 POP POP PUSH1 0x1 DUP2 ADD SWAP1 POP PUSH2 0x298D JUMP JUMPDEST POP DUP6 SWAP4 POP POP POP POP SWAP3 SWAP2 POP POP JUMP JUMPDEST PUSH1 0x0 PUSH1 0x20 DUP3 ADD SWAP1 POP DUP2 DUP2 SUB PUSH1 0x0 DUP4 ADD MSTORE PUSH2 0x29E1 DUP2 DUP5 PUSH2 0x2969 JUMP JUMPDEST SWAP1 POP SWAP3 SWAP2 POP POP JUMP JUMPDEST PUSH1 0x0 DUP1 PUSH1 0x0 DUP1 PUSH1 0x0 DUP1 PUSH1 0x0 DUP1 PUSH1 0x0 DUP1 PUSH2 0x140 DUP12 DUP14 SUB SLT ISZERO PUSH2 0x2A0D JUMPI PUSH2 0x2A0C PUSH2 0x2527 JUMP JUMPDEST JUMPDEST PUSH1 0x0 DUP12 ADD CALLDATALOAD PUSH8 0xFFFFFFFFFFFFFFFF DUP2 GT ISZERO PUSH2 0x2A2B JUMPI PUSH2 0x2A2A PUSH2 0x252C JUMP JUMPDEST JUMPDEST PUSH2 0x2A37 DUP14 DUP3 DUP15 ADD PUSH2 0x2638 JUMP JUMPDEST SWAP11 POP POP PUSH1 0x20 PUSH2 0x2A48 DUP14 DUP3 DUP15 ADD PUSH2 0x26FA JUMP JUMPDEST SWAP10 POP POP PUSH1 0x40 PUSH2 0x2A59 DUP14 DUP3 DUP15 ADD PUSH2 0x26FA JUMP JUMPDEST SWAP9 POP POP PUSH1 0x60 PUSH2 0x2A6A DUP14 DUP3 DUP15 ADD PUSH2 0x26FA JUMP JUMPDEST SWAP8 POP POP PUSH1 0x80 PUSH2 0x2A7B DUP14 DUP3 DUP15 ADD PUSH2 0x26FA JUMP JUMPDEST SWAP7 POP POP PUSH1 0xA0 PUSH2 0x2A8C DUP14 DUP3 DUP15 ADD PUSH2 0x26FA JUMP JUMPDEST SWAP6 POP POP PUSH1 0xC0 PUSH2 0x2A9D DUP14 DUP3 DUP15 ADD PUSH2 0x26FA JUMP JUMPDEST SWAP5 POP POP PUSH1 0xE0 PUSH2 0x2AAE DUP14 DUP3 DUP15 ADD PUSH2 0x26FA JUMP JUMPDEST SWAP4 POP POP PUSH2 0x100 PUSH2 0x2AC0 DUP14 DUP3 DUP15 ADD PUSH2 0x26FA JUMP JUMPDEST SWAP3 POP POP PUSH2 0x120 PUSH2 0x2AD2 DUP14 DUP3 DUP15 ADD PUSH2 0x26FA JUMP JUMPDEST SWAP2 POP POP SWAP3 SWAP6 SWAP9 SWAP12 SWAP2 SWAP5 SWAP8 SWAP11 POP SWAP3 SWAP6 SWAP9 POP JUMP JUMPDEST PUSH1 0x0 DUP1 PUSH1 0x40 DUP4 DUP6 SUB SLT ISZERO PUSH2 0x2AFB JUMPI PUSH2 0x2AFA PUSH2 0x2527 JUMP JUMPDEST JUMPDEST PUSH1 0x0 DUP4 ADD CALLDATALOAD PUSH8 0xFFFFFFFFFFFFFFFF DUP2 GT ISZERO PUSH2 0x2B19 JUMPI PUSH2 0x2B18 PUSH2 0x252C JUMP JUMPDEST JUMPDEST PUSH2 0x2B25 DUP6 DUP3 DUP7 ADD PUSH2 0x2638 JUMP JUMPDEST SWAP3 POP POP PUSH1 0x20 PUSH2 0x2B36 DUP6 DUP3 DUP7 ADD PUSH2 0x26FA JUMP JUMPDEST SWAP2 POP POP SWAP3 POP SWAP3 SWAP1 POP JUMP JUMPDEST PUSH32 0x4E487B7100000000000000000000000000000000000000000000000000000000 PUSH1 0x0 MSTORE PUSH1 0x22 PUSH1 0x4 MSTORE PUSH1 0x24 PUSH1 0x0 REVERT JUMPDEST PUSH1 0x0 PUSH1 0x2 DUP3 DIV SWAP1 POP PUSH1 0x1 DUP3 AND DUP1 PUSH2 0x2B87 JUMPI PUSH1 0x7F DUP3 AND SWAP2 POP JUMPDEST PUSH1 0x20 DUP3 LT DUP2 SUB PUSH2 0x2B9A JUMPI PUSH2 0x2B99 PUSH2 0x2B40 JUMP JUMPDEST JUMPDEST POP SWAP2 SWAP1 POP JUMP JUMPDEST PUSH1 0x0 DUP2 SWAP1 POP SWAP3 SWAP2 POP POP JUMP JUMPDEST PUSH1 0x0 PUSH2 0x2BB6 DUP3 PUSH2 0x23D5 JUMP JUMPDEST PUSH2 0x2BC0 DUP2 DUP6 PUSH2 0x2BA0 JUMP JUMPDEST SWAP4 POP PUSH2 0x2BD0 DUP2 DUP6 PUSH1 0x20 DUP7 ADD PUSH2 0x23F1 JUMP JUMPDEST DUP1 DUP5 ADD SWAP2 POP POP SWAP3 SWAP2 POP POP JUMP JUMPDEST PUSH1 0x0 PUSH2 0x2BE8 DUP3 DUP5 PUSH2 0x2BAB JUMP JUMPDEST SWAP2 POP DUP2 SWAP1 POP SWAP3 SWAP2 POP POP JUMP JUMPDEST PUSH32 0x4E487B7100000000000000000000000000000000000000000000000000000000 PUSH1 0x0 MSTORE PUSH1 0x11 PUSH1 0x4 MSTORE PUSH1 0x24 PUSH1 0x0 REVERT JUMPDEST PUSH1 0x0 PUSH2 0x2C2D DUP3 PUSH2 0x26AF JUMP JUMPDEST SWAP2 POP PUSH2 0x2C38 DUP4 PUSH2 0x26AF JUMP JUMPDEST SWAP3 POP DUP3 DUP3 SUB SWAP1 POP DUP2 DUP2 GT ISZERO PUSH2 0x2C50 JUMPI PUSH2 0x2C4F PUSH2 0x2BF3 JUMP JUMPDEST JUMPDEST SWAP3 SWAP2 POP POP JUMP JUMPDEST PUSH32 0x4E487B7100000000000000000000000000000000000000000000000000000000 PUSH1 0x0 MSTORE PUSH1 0x32 PUSH1 0x4 MSTORE PUSH1 0x24 PUSH1 0x0 REVERT JUMPDEST PUSH32 0x4E487B7100000000000000000000000000000000000000000000000000000000 PUSH1 0x0 MSTORE PUSH1 0x31 PUSH1 0x4 MSTORE PUSH1 0x24 PUSH1 0x0 REVERT JUMPDEST PUSH1 0x0 PUSH2 0x2CBF DUP3 PUSH2 0x26AF JUMP JUMPDEST SWAP2 POP PUSH32 0xFFFFFFFFFFFFFFFFFFFFFFFFFFFFFFFFFFFFFFFFFFFFFFFFFFFFFFFFFFFFFFFF DUP3 SUB PUSH2 0x2CF1 JUMPI PUSH2 0x2CF0 PUSH2 0x2BF3 JUMP JUMPDEST JUMPDEST PUSH1 0x1 DUP3 ADD SWAP1 POP SWAP2 SWAP1 POP JUMP JUMPDEST PUSH1 0x0 DUP2 SWAP1 POP DUP2 PUSH1 0x0 MSTORE PUSH1 0x20 PUSH1 0x0 KECCAK256 SWAP1 POP SWAP2 SWAP1 POP JUMP JUMPDEST PUSH1 0x0 DUP2 SLOAD PUSH2 0x2D1E DUP2 PUSH2 0x2B6F JUMP JUMPDEST PUSH2 0x2D28 DUP2 DUP7 PUSH2 0x2BA0 JUMP JUMPDEST SWAP5 POP PUSH1 0x1 DUP3 AND PUSH1 0x0 DUP2 EQ PUSH2 0x2D43 JUMPI PUSH1 0x1 DUP2 EQ PUSH2 0x2D58 JUMPI PUSH2 0x2D8B JUMP JUMPDEST PUSH1 0xFF NOT DUP4 AND DUP7 MSTORE DUP2 ISZERO ISZERO DUP3 MUL DUP7 ADD SWAP4 POP PUSH2 0x2D8B JUMP JUMPDEST PUSH2 0x2D61 DUP6 PUSH2 0x2CFC JUMP JUMPDEST PUSH1 0x0 JUMPDEST DUP4 DUP2 LT ISZERO PUSH2 0x2D83 JUMPI DUP2 SLOAD DUP2 DUP10 ADD MSTORE PUSH1 0x1 DUP3 ADD SWAP2 POP PUSH1 0x20 DUP2 ADD SWAP1 POP PUSH2 0x2D64 JUMP JUMPDEST DUP4 DUP9 ADD SWAP6 POP POP POP JUMPDEST POP POP POP SWAP3 SWAP2 POP POP JUMP JUMPDEST PUSH1 0x0 PUSH2 0x2DA0 DUP3 DUP5 PUSH2 0x2D11 JUMP JUMPDEST SWAP2 POP DUP2 SWAP1 POP SWAP3 SWAP2 POP POP JUMP JUMPDEST PUSH1 0x0 DUP3 DUP3 MSTORE PUSH1 0x20 DUP3 ADD SWAP1 POP SWAP3 SWAP2 POP POP JUMP JUMPDEST PUSH1 0x0 PUSH2 0x2DC7 DUP3 PUSH2 0x23D5 JUMP JUMPDEST PUSH2 0x2DD1 DUP2 DUP6 PUSH2 0x2DAB JUMP JUMPDEST SWAP4 POP PUSH2 0x2DE1 DUP2 DUP6 PUSH1 0x20 DUP7 ADD PUSH2 0x23F1 JUMP JUMPDEST PUSH2 0x2DEA DUP2 PUSH2 0x241B JUMP JUMPDEST DUP5 ADD SWAP2 POP POP SWAP3 SWAP2 POP POP JUMP JUMPDEST PUSH1 0x0 PUSH1 0x20 DUP3 ADD SWAP1 POP DUP2 DUP2 SUB PUSH1 0x0 DUP4 ADD MSTORE PUSH2 0x2E0F DUP2 DUP5 PUSH2 0x2DBC JUMP JUMPDEST SWAP1 POP SWAP3 SWAP2 POP POP JUMP JUMPDEST PUSH1 0x0 PUSH1 0x20 PUSH1 0x1F DUP4 ADD DIV SWAP1 POP SWAP2 SWAP1 POP JUMP JUMPDEST PUSH1 0x0 DUP3 DUP3 SHL SWAP1 POP SWAP3 SWAP2 POP POP JUMP JUMPDEST PUSH1 0x0 PUSH1 0x8 DUP4 MUL PUSH2 0x2E64 PUSH32 0xFFFFFFFFFFFFFFFFFFFFFFFFFFFFFFFFFFFFFFFFFFFFFFFFFFFFFFFFFFFFFFFF DUP3 PUSH2 0x2E27 JUMP JUMPDEST PUSH2 0x2E6E DUP7 DUP4 PUSH2 0x2E27 JUMP JUMPDEST SWAP6 POP DUP1 NOT DUP5 AND SWAP4 POP DUP1 DUP7 AND DUP5 OR SWAP3 POP POP POP SWAP4 SWAP3 POP POP POP JUMP JUMPDEST PUSH1 0x0 DUP2 SWAP1 POP SWAP2 SWAP1 POP JUMP JUMPDEST PUSH1 0x0 PUSH2 0x2EAB PUSH2 0x2EA6 PUSH2 0x2EA1 DUP5 PUSH2 0x26AF JUMP JUMPDEST PUSH2 0x2E86 JUMP JUMPDEST PUSH2 0x26AF JUMP JUMPDEST SWAP1 POP SWAP2 SWAP1 POP JUMP JUMPDEST PUSH1 0x0 DUP2 SWAP1 POP SWAP2 SWAP1 POP JUMP JUMPDEST PUSH2 0x2EC5 DUP4 PUSH2 0x2E90 JUMP JUMPDEST PUSH2 0x2ED9 PUSH2 0x2ED1 DUP3 PUSH2 0x2EB2 JUMP JUMPDEST DUP5 DUP5 SLOAD PUSH2 0x2E34 JUMP JUMPDEST DUP3 SSTORE POP POP POP POP JUMP JUMPDEST PUSH1 0x0 SWAP1 JUMP JUMPDEST PUSH2 0x2EEE PUSH2 0x2EE1 JUMP JUMPDEST PUSH2 0x2EF9 DUP2 DUP5 DUP5 PUSH2 0x2EBC JUMP JUMPDEST POP POP POP JUMP JUMPDEST JUMPDEST DUP2 DUP2 LT ISZERO PUSH2 0x2F1D JUMPI PUSH2 0x2F12 PUSH1 0x0 DUP3 PUSH2 0x2EE6 JUMP JUMPDEST PUSH1 0x1 DUP2 ADD SWAP1 POP PUSH2 0x2EFF JUMP JUMPDEST POP POP JUMP JUMPDEST PUSH1 0x1F DUP3 GT ISZERO PUSH2 0x2F62 JUMPI PUSH2 0x2F33 DUP2 PUSH2 0x2CFC JUMP JUMPDEST PUSH2 0x2F3C DUP5 PUSH2 0x2E17 JUMP JUMPDEST DUP2 ADD PUSH1 0x20 DUP6 LT ISZERO PUSH2 0x2F4B JUMPI DUP2 SWAP1 POP JUMPDEST PUSH2 0x2F5F PUSH2 0x2F57 DUP6 PUSH2 0x2E17 JUMP JUMPDEST DUP4 ADD DUP3 PUSH2 0x2EFE JUMP JUMPDEST POP POP JUMPDEST POP POP POP JUMP JUMPDEST PUSH1 0x0 DUP3 DUP3 SHR SWAP1 POP SWAP3 SWAP2 POP POP JUMP JUMPDEST PUSH1 0x0 PUSH2 0x2F85 PUSH1 0x0 NOT DUP5 PUSH1 0x8 MUL PUSH2 0x2F67 JUMP JUMPDEST NOT DUP1 DUP4 AND SWAP2 POP POP SWAP3 SWAP2 POP POP JUMP JUMPDEST PUSH1 0x0 PUSH2 0x2F9E DUP4 DUP4 PUSH2 0x2F74 JUMP JUMPDEST SWAP2 POP DUP3 PUSH1 0x2 MUL DUP3 OR SWAP1 POP SWAP3 SWAP2 POP POP JUMP JUMPDEST PUSH2 0x2FB7 DUP3 PUSH2 0x23D5 JUMP JUMPDEST PUSH8 0xFFFFFFFFFFFFFFFF DUP2 GT ISZERO PUSH2 0x2FD0 JUMPI PUSH2 0x2FCF PUSH2 0x253B JUMP JUMPDEST JUMPDEST PUSH2 0x2FDA DUP3 SLOAD PUSH2 0x2B6F JUMP JUMPDEST PUSH2 0x2FE5 DUP3 DUP3 DUP6 PUSH2 0x2F21 JUMP JUMPDEST PUSH1 0x0 PUSH1 0x20 SWAP1 POP PUSH1 0x1F DUP4 GT PUSH1 0x1 DUP2 EQ PUSH2 0x3018 JUMPI PUSH1 0x0 DUP5 ISZERO PUSH2 0x3006 JUMPI DUP3 DUP8 ADD MLOAD SWAP1 POP JUMPDEST PUSH2 0x3010 DUP6 DUP3 PUSH2 0x2F92 JUMP JUMPDEST DUP7 SSTORE POP PUSH2 0x3078 JUMP JUMPDEST PUSH1 0x1F NOT DUP5 AND PUSH2 0x3026 DUP7 PUSH2 0x2CFC JUMP JUMPDEST PUSH1 0x0 JUMPDEST DUP3 DUP2 LT ISZERO PUSH2 0x304E JUMPI DUP5 DUP10 ADD MLOAD DUP3 SSTORE PUSH1 0x1 DUP3 ADD SWAP2 POP PUSH1 0x20 DUP6 ADD SWAP5 POP PUSH1 0x20 DUP2 ADD SWAP1 POP PUSH2 0x3029 JUMP JUMPDEST DUP7 DUP4 LT ISZERO PUSH2 0x306B JUMPI DUP5 DUP10 ADD MLOAD PUSH2 0x3067 PUSH1 0x1F DUP10 AND DUP3 PUSH2 0x2F74 JUMP JUMPDEST DUP4 SSTORE POP JUMPDEST PUSH1 0x1 PUSH1 0x2 DUP9 MUL ADD DUP9 SSTORE POP POP POP JUMPDEST POP POP POP POP POP POP JUMP JUMPDEST PUSH1 0x0 PUSH2 0x140 DUP3 ADD SWAP1 POP DUP2 DUP2 SUB PUSH1 0x0 DUP4 ADD MSTORE PUSH2 0x309B DUP2 DUP14 PUSH2 0x2DBC JUMP JUMPDEST SWAP1 POP PUSH2 0x30AA PUSH1 0x20 DUP4 ADD DUP13 PUSH2 0x26B9 JUMP JUMPDEST PUSH2 0x30B7 PUSH1 0x40 DUP4 ADD DUP12 PUSH2 0x26B9 JUMP JUMPDEST PUSH2 0x30C4 PUSH1 0x60 DUP4 ADD DUP11 PUSH2 0x26B9 JUMP JUMPDEST PUSH2 0x30D1 PUSH1 0x80 DUP4 ADD DUP10 PUSH2 0x26B9 JUMP JUMPDEST PUSH2 0x30DE PUSH1 0xA0 DUP4 ADD DUP9 PUSH2 0x26B9 JUMP JUMPDEST PUSH2 0x30EB PUSH1 0xC0 DUP4 ADD DUP8 PUSH2 0x26B9 JUMP JUMPDEST PUSH2 0x30F8 PUSH1 0xE0 DUP4 ADD DUP7 PUSH2 0x26B9 JUMP JUMPDEST PUSH2 0x3106 PUSH2 0x100 DUP4 ADD DUP6 PUSH2 0x26B9 JUMP JUMPDEST PUSH2 0x3114 PUSH2 0x120 DUP4 ADD DUP5 PUSH2 0x26B9 JUMP JUMPDEST SWAP12 SWAP11 POP POP POP POP POP POP POP POP POP POP POP JUMP JUMPDEST PUSH1 0x0 PUSH2 0x312E DUP3 PUSH2 0x26AF JUMP JUMPDEST SWAP2 POP PUSH2 0x3139 DUP4 PUSH2 0x26AF JUMP JUMPDEST SWAP3 POP DUP3 DUP3 ADD SWAP1 POP DUP1 DUP3 GT ISZERO PUSH2 0x3151 JUMPI PUSH2 0x3150 PUSH2 0x2BF3 JUMP JUMPDEST JUMPDEST SWAP3 SWAP2 POP POP JUMP JUMPDEST PUSH2 0x3160 DUP2 PUSH2 0x286A JUMP JUMPDEST DUP3 MSTORE POP POP JUMP JUMPDEST PUSH1 0x0 PUSH1 0x60 DUP3 ADD SWAP1 POP DUP2 DUP2 SUB PUSH1 0x0 DUP4 ADD MSTORE PUSH2 0x3180 DUP2 DUP7 PUSH2 0x2DBC JUMP JUMPDEST SWAP1 POP PUSH2 0x318F PUSH1 0x20 DUP4 ADD DUP6 PUSH2 0x3157 JUMP JUMPDEST PUSH2 0x319C PUSH1 0x40 DUP4 ADD DUP5 PUSH2 0x26B9 JUMP JUMPDEST SWAP5 SWAP4 POP POP POP POP JUMP JUMPDEST PUSH1 0x0 PUSH1 0x40 DUP3 ADD SWAP1 POP DUP2 DUP2 SUB PUSH1 0x0 DUP4 ADD MSTORE PUSH2 0x31BE DUP2 DUP6 PUSH2 0x2DBC JUMP JUMPDEST SWAP1 POP PUSH2 0x31CD PUSH1 0x20 DUP4 ADD DUP5 PUSH2 0x26B9 JUMP JUMPDEST SWAP4 SWAP3 POP POP POP JUMP JUMPDEST PUSH2 0x31DD DUP2 PUSH2 0x28E1 JUMP JUMPDEST DUP3 MSTORE POP POP JUMP JUMPDEST PUSH1 0x0 PUSH1 0x60 DUP3 ADD SWAP1 POP DUP2 DUP2 SUB PUSH1 0x0 DUP4 ADD MSTORE PUSH2 0x31FD DUP2 DUP7 PUSH2 0x2DBC JUMP JUMPDEST SWAP1 POP PUSH2 0x320C PUSH1 0x20 DUP4 ADD DUP6 PUSH2 0x3157 JUMP JUMPDEST PUSH2 0x3219 PUSH1 0x40 DUP4 ADD DUP5 PUSH2 0x31D4 JUMP JUMPDEST SWAP5 SWAP4 POP POP POP POP JUMP JUMPDEST PUSH1 0x0 PUSH2 0xFFFF DUP3 AND SWAP1 POP SWAP2 SWAP1 POP JUMP JUMPDEST PUSH1 0x0 PUSH2 0x323A DUP3 PUSH2 0x3221 JUMP JUMPDEST SWAP2 POP PUSH2 0x3245 DUP4 PUSH2 0x3221 JUMP JUMPDEST SWAP3 POP DUP3 DUP3 MUL PUSH2 0x3253 DUP2 PUSH2 0x3221 JUMP JUMPDEST SWAP2 POP DUP1 DUP3 EQ PUSH2 0x3265 JUMPI PUSH2 0x3264 PUSH2 0x2BF3 JUMP JUMPDEST JUMPDEST POP SWAP3 SWAP2 POP POP JUMP INVALID LOG2 PUSH5 0x6970667358 0x22 SLT KECCAK256 0xA5 ISZERO JUMPDEST 0xD1 MSTORE8 0xE8 SWAP9 0xE0 SAR KECCAK256 0xD2 DELEGATECALL DUP6 0xAF ISZERO 0xD5 SGT 0x5E BLOCKHASH PUSH20 0xD1FAF43352F009BE7E65B95E64736F6C63430008 GT STOP CALLER "},"gasEstimates":{"creation":{"codeDepositCost":"2592400","executionCost":"2808","totalCost":"2595208"},"external":{"cancelAuctionResult(string)":"infinite","closeAuction(string)":"infinite","createAuction(string,uint256,uint256,uint256,uint256,uint256,uint256,uint256,uint256,uint256)":"infinite","getAuctionInformationById(string)":"infinite","getBidInformationByAuctionId(string)":"infinite","getHightestBidOfAuction(string)":"infinite","getIndexOfHighestBidOfAuction(string)":"infinite","getIndexOfSecondWinnerOfAuction(string)":"infinite","getListAuctionId()":"infinite","payment(string)":"infinite","placeBid(string,uint256)":"infinite","registerToBid(string)":"infinite","testDB(uint256)":"infinite"},"internal":{"getIndexOfBidder(string memory)":"infinite","isValidatedInput(string memory,uint256,uint256,uint256,uint256,uint256,uint256,uint256,uint256,uint256)":"infinite","withdaw(string memory)":"infinite"}},"methodIdentifiers":{"cancelAuctionResult(string)":"f05981fa","closeAuction(string)":"693dfca8","createAuction(string,uint256,uint256,uint256,uint256,uint256,uint256,uint256,uint256,uint256)":"81666971","getAuctionInformationById(string)":"615adb6a","getBidInformationByAuctionId(string)":"6821fe22","getHightestBidOfAuction(string)":"b0610979","getIndexOfHighestBidOfAuction(string)":"a9a7dc63","getIndexOfSecondWinnerOfAuction(string)":"1d67fa3f","getListAuctionId()":"1c46583b","payment(string)":"af6fd4a7","placeBid(string,uint256)":"a7eaa241","registerToBid(string)":"daddf717","testDB(uint256)":"33a3b9bd"}},"storageLayout":{"storage":[{"astId":53,"contract":"contracts/Auction.sol:Auction","label":"s_auctionList","offset":0,"slot":"0","type":"t_array(t_string_storage)dyn_storage"},{"astId":166,"contract":"contracts/Auction.sol:Auction","label":"s_AuctionInformations","offset":0,"slot":"1","type":"t_mapping(t_string_memory_ptr,t_struct(AuctionInformation)83_storage)"},{"astId":172,"contract":"contracts/Auction.sol:Auction","label":"s_BidInformations","offset":0,"slot":"2","type":"t_mapping(t_string_memory_ptr,t_array(t_struct(BidInformation)91_storage)dyn_storage)"}],"types":{"t_address":{"encoding":"inplace","label":"address","numberOfBytes":"20"},"t_array(t_string_storage)dyn_storage":{"base":"t_string_storage","encoding":"dynamic_array","label":"string[]","numberOfBytes":"32"},"t_array(t_struct(BidInformation)91_storage)dyn_storage":{"base":"t_struct(BidInformation)91_storage","encoding":"dynamic_array","label":"struct Auction.BidInformation[]","numberOfBytes":"32"},"t_enum(BidderState)64":{"encoding":"inplace","label":"enum Auction.BidderState","numberOfBytes":"1"},"t_mapping(t_string_memory_ptr,t_array(t_struct(BidInformation)91_storage)dyn_storage)":{"encoding":"mapping","key":"t_string_memory_ptr","label":"mapping(string => struct Auction.BidInformation[])","numberOfBytes":"32","value":"t_array(t_struct(BidInformation)91_storage)dyn_storage"},"t_mapping(t_string_memory_ptr,t_struct(AuctionInformation)83_storage)":{"encoding":"mapping","key":"t_string_memory_ptr","label":"mapping(string => struct Auction.AuctionInformation)","numberOfBytes":"32","value":"t_struct(AuctionInformation)83_storage"},"t_string_memory_ptr":{"encoding":"bytes","label":"string","numberOfBytes":"32"},"t_string_storage":{"encoding":"bytes","label":"string","numberOfBytes":"32"},"t_struct(AuctionInformation)83_storage":{"encoding":"inplace","label":"struct Auction.AuctionInformation","members":[{"astId":66,"contract":"contracts/Auction.sol:Auction","label":"startRegistrationTime","offset":0,"slot":"0","type":"t_uint256"},{"astId":68,"contract":"contracts/Auction.sol:Auction","label":"endRegistrationTime","offset":0,"slot":"1","type":"t_uint256"},{"astId":70,"contract":"contracts/Auction.sol:Auction","label":"startAuctionTime","offset":0,"slot":"2","type":"t_uint256"},{"astId":72,"contract":"contracts/Auction.sol:Auction","label":"endAuctionTime","offset":0,"slot":"3","type":"t_uint256"},{"astId":74,"contract":"contracts/Auction.sol:Auction","label":"duePaymentTime","offset":0,"slot":"4","type":"t_uint256"},{"astId":76,"contract":"contracts/Auction.sol:Auction","label":"registrationFee","offset":0,"slot":"5","type":"t_uint256"},{"astId":78,"contract":"contracts/Auction.sol:Auction","label":"depositAmount","offset":0,"slot":"6","type":"t_uint256"},{"astId":80,"contract":"contracts/Auction.sol:Auction","label":"startBid","offset":0,"slot":"7","type":"t_uint256"},{"astId":82,"contract":"contracts/Auction.sol:Auction","label":"priceStep","offset":0,"slot":"8","type":"t_uint256"}],"numberOfBytes":"288"},"t_struct(BidInformation)91_storage":{"encoding":"inplace","label":"struct Auction.BidInformation","members":[{"astId":85,"contract":"contracts/Auction.sol:Auction","label":"bidder","offset":0,"slot":"0","type":"t_address"},{"astId":87,"contract":"contracts/Auction.sol:Auction","label":"bidAmount","offset":0,"slot":"1","type":"t_uint256"},{"astId":90,"contract":"contracts/Auction.sol:Auction","label":"bidderState","offset":0,"slot":"2","type":"t_enum(BidderState)64"}],"numberOfBytes":"96"},"t_uint256":{"encoding":"inplace","label":"uint256","numberOfBytes":"32"}}},"userdoc":{"kind":"user","methods":{},"notice":"This contract is for Decentralized Auction Platform","version":1}}}}