{
  "address": "0x558f9b5579502c615897a23255Bf9E805e5D1eA6",
  "abi": [
    {
      "inputs": [],
      "stateMutability": "nonpayable",
      "type": "constructor"
    },
    {
      "inputs": [],
      "name": "Auction__AlreadyRegisteredBidder",
      "type": "error"
    },
    {
      "inputs": [],
      "name": "Auction__BidderRetractedBid",
      "type": "error"
    },
    {
      "inputs": [],
      "name": "Auction__InvalidAuctionId",
      "type": "error"
    },
    {
      "inputs": [],
      "name": "Auction__InvalidAuctionTime",
      "type": "error"
    },
    {
      "inputs": [],
      "name": "Auction__InvalidBidAmount",
      "type": "error"
    },
    {
      "inputs": [],
      "name": "Auction__InvalidDepositAmount",
      "type": "error"
    },
    {
      "inputs": [],
      "name": "Auction__InvalidDuePaymentTime",
      "type": "error"
    },
    {
      "inputs": [],
      "name": "Auction__InvalidPriceStep",
      "type": "error"
    },
    {
      "inputs": [],
      "name": "Auction__InvalidRegistrationFee",
      "type": "error"
    },
    {
      "inputs": [],
      "name": "Auction__InvalidRegistrationTime",
      "type": "error"
    },
    {
      "inputs": [],
      "name": "Auction__InvalidStartAuctionTime",
      "type": "error"
    },
    {
      "inputs": [],
      "name": "Auction__InvalidStartBid",
      "type": "error"
    },
    {
      "inputs": [],
      "name": "Auction__NoProceeds",
      "type": "error"
    },
    {
      "inputs": [],
      "name": "Auction__NotExistAuctionId",
      "type": "error"
    },
    {
      "inputs": [],
      "name": "Auction__NotOwner",
      "type": "error"
    },
    {
      "inputs": [],
      "name": "Auction__NotRegisteredBidder",
      "type": "error"
    },
    {
      "inputs": [],
      "name": "Auction__OutOfAuctionTime",
      "type": "error"
    },
    {
      "inputs": [],
      "name": "Auction__OutOfRegistrationTime",
      "type": "error"
    },
    {
      "inputs": [
        {
          "internalType": "string",
          "name": "auctionId",
          "type": "string"
        },
        {
          "internalType": "uint256",
          "name": "requirePaymentAmount",
          "type": "uint256"
        }
      ],
      "name": "Auction__RequireAmountToPaymentNotMet",
      "type": "error"
    },
    {
      "inputs": [
        {
          "internalType": "string",
          "name": "auctionId",
          "type": "string"
        },
        {
          "internalType": "uint256",
          "name": "value",
          "type": "uint256"
        },
        {
          "internalType": "uint256",
          "name": "requireAmountToRegister",
          "type": "uint256"
        }
      ],
      "name": "Auction__RequireAmountToRegisterNotMet",
      "type": "error"
    },
    {
      "inputs": [],
      "name": "Auction__WithdrawDeposit",
      "type": "error"
    },
    {
      "anonymous": false,
      "inputs": [
        {
          "indexed": false,
          "internalType": "string",
          "name": "auctionId",
          "type": "string"
        },
        {
          "indexed": false,
          "internalType": "address",
          "name": "bidder",
          "type": "address"
        }
      ],
      "name": "CanceledAuctionResult",
      "type": "event"
    },
    {
      "anonymous": false,
      "inputs": [
        {
          "indexed": false,
          "internalType": "string",
          "name": "auctionId",
          "type": "string"
        },
        {
          "indexed": false,
          "internalType": "uint256",
          "name": "startRegistrationTime",
          "type": "uint256"
        },
        {
          "indexed": false,
          "internalType": "uint256",
          "name": "endRegistrationTime",
          "type": "uint256"
        },
        {
          "indexed": false,
          "internalType": "uint256",
          "name": "startAuctionTime",
          "type": "uint256"
        },
        {
          "indexed": false,
          "internalType": "uint256",
          "name": "endAuctionTime",
          "type": "uint256"
        },
        {
          "indexed": false,
          "internalType": "uint256",
          "name": "duePaymentTime",
          "type": "uint256"
        },
        {
          "indexed": false,
          "internalType": "uint256",
          "name": "registrationFee",
          "type": "uint256"
        },
        {
          "indexed": false,
          "internalType": "uint256",
          "name": "depositAmount",
          "type": "uint256"
        },
        {
          "indexed": false,
          "internalType": "uint256",
          "name": "startBid",
          "type": "uint256"
        },
        {
          "indexed": false,
          "internalType": "uint256",
          "name": "priceStep",
          "type": "uint256"
        }
      ],
      "name": "CreatedAuction",
      "type": "event"
    },
    {
      "anonymous": false,
      "inputs": [
        {
          "indexed": false,
          "internalType": "string",
          "name": "auctionId",
          "type": "string"
        },
        {
          "indexed": false,
          "internalType": "address",
          "name": "bidder",
          "type": "address"
        },
        {
          "indexed": false,
          "internalType": "uint256",
          "name": "paidAmount",
          "type": "uint256"
        }
      ],
      "name": "PaymentCompleted",
      "type": "event"
    },
    {
      "anonymous": false,
      "inputs": [
        {
          "indexed": false,
          "internalType": "string",
          "name": "auctionId",
          "type": "string"
        },
        {
          "indexed": false,
          "internalType": "address",
          "name": "bidder",
          "type": "address"
        },
        {
          "indexed": false,
          "internalType": "uint256",
          "name": "bidAmount",
          "type": "uint256"
        }
      ],
      "name": "PlacedBid",
      "type": "event"
    },
    {
      "anonymous": false,
      "inputs": [
        {
          "indexed": false,
          "internalType": "string",
          "name": "auctionId",
          "type": "string"
        },
        {
          "indexed": false,
          "internalType": "address",
          "name": "bidder",
          "type": "address"
        }
      ],
      "name": "RegisteredToBid",
      "type": "event"
    },
    {
      "anonymous": false,
      "inputs": [
        {
          "indexed": false,
          "internalType": "string",
          "name": "auctionId",
          "type": "string"
        },
        {
          "indexed": false,
          "internalType": "address",
          "name": "bidder",
          "type": "address"
        }
      ],
      "name": "RetractedBid",
      "type": "event"
    },
    {
      "anonymous": false,
      "inputs": [
        {
          "indexed": false,
          "internalType": "string",
          "name": "auctionId",
          "type": "string"
        },
        {
          "indexed": false,
          "internalType": "address",
          "name": "bidder",
          "type": "address"
        }
      ],
      "name": "Withdraw",
      "type": "event"
    },
    {
      "inputs": [
        {
          "internalType": "string",
          "name": "auctionId",
          "type": "string"
        }
      ],
      "name": "cancelAuctionResult",
      "outputs": [],
      "stateMutability": "payable",
      "type": "function"
    },
    {
      "inputs": [
        {
          "internalType": "string",
          "name": "auctionId",
          "type": "string"
        },
        {
          "internalType": "uint256",
          "name": "startRegistrationTime",
          "type": "uint256"
        },
        {
          "internalType": "uint256",
          "name": "endRegistrationTime",
          "type": "uint256"
        },
        {
          "internalType": "uint256",
          "name": "startAuctionTime",
          "type": "uint256"
        },
        {
          "internalType": "uint256",
          "name": "endAuctionTime",
          "type": "uint256"
        },
        {
          "internalType": "uint256",
          "name": "duePaymentTime",
          "type": "uint256"
        },
        {
          "internalType": "uint256",
          "name": "registrationFee",
          "type": "uint256"
        },
        {
          "internalType": "uint256",
          "name": "depositAmount",
          "type": "uint256"
        },
        {
          "internalType": "uint256",
          "name": "startBid",
          "type": "uint256"
        },
        {
          "internalType": "uint256",
          "name": "priceStep",
          "type": "uint256"
        }
      ],
      "name": "createAuction",
      "outputs": [],
      "stateMutability": "nonpayable",
      "type": "function"
    },
    {
      "inputs": [
        {
          "internalType": "string",
          "name": "auctionId",
          "type": "string"
        }
      ],
      "name": "getAuctionInformationById",
      "outputs": [
        {
          "components": [
            {
              "internalType": "uint256",
              "name": "startRegistrationTime",
              "type": "uint256"
            },
            {
              "internalType": "uint256",
              "name": "endRegistrationTime",
              "type": "uint256"
            },
            {
              "internalType": "uint256",
              "name": "startAuctionTime",
              "type": "uint256"
            },
            {
              "internalType": "uint256",
              "name": "endAuctionTime",
              "type": "uint256"
            },
            {
              "internalType": "uint256",
              "name": "duePaymentTime",
              "type": "uint256"
            },
            {
              "internalType": "uint256",
              "name": "registrationFee",
              "type": "uint256"
            },
            {
              "internalType": "uint256",
              "name": "depositAmount",
              "type": "uint256"
            },
            {
              "internalType": "uint256",
              "name": "startBid",
              "type": "uint256"
            },
            {
              "internalType": "uint256",
              "name": "priceStep",
              "type": "uint256"
            }
          ],
          "internalType": "struct Auction.AuctionInformation",
          "name": "",
          "type": "tuple"
        }
      ],
      "stateMutability": "view",
      "type": "function"
    },
    {
      "inputs": [],
      "name": "getBalance",
      "outputs": [
        {
          "internalType": "uint256",
          "name": "",
          "type": "uint256"
        }
      ],
      "stateMutability": "view",
      "type": "function"
    },
    {
      "inputs": [
        {
          "internalType": "string",
          "name": "auctionId",
          "type": "string"
        }
      ],
      "name": "getBidInformationByAuctionId",
      "outputs": [
        {
          "components": [
            {
              "internalType": "address",
              "name": "bidder",
              "type": "address"
            },
            {
              "internalType": "uint256",
              "name": "bidAmount",
              "type": "uint256"
            },
            {
              "internalType": "enum Auction.BidderState",
              "name": "bidderState",
              "type": "uint8"
            }
          ],
          "internalType": "struct Auction.BidInformation[]",
          "name": "",
          "type": "tuple[]"
        }
      ],
      "stateMutability": "view",
      "type": "function"
    },
    {
      "inputs": [
        {
          "internalType": "string",
          "name": "auctionId",
          "type": "string"
        }
      ],
      "name": "getHighestBidOfAuction",
      "outputs": [
        {
          "internalType": "uint256",
          "name": "",
          "type": "uint256"
        }
      ],
      "stateMutability": "view",
      "type": "function"
    },
    {
      "inputs": [],
      "name": "getListAuctionId",
      "outputs": [
        {
          "internalType": "string[]",
          "name": "",
          "type": "string[]"
        }
      ],
      "stateMutability": "view",
      "type": "function"
    },
    {
      "inputs": [],
      "name": "getOwner",
      "outputs": [
        {
          "internalType": "address",
          "name": "",
          "type": "address"
        }
      ],
      "stateMutability": "view",
      "type": "function"
    },
    {
      "inputs": [],
      "name": "getProceeds",
      "outputs": [
        {
          "internalType": "uint256",
          "name": "",
          "type": "uint256"
        }
      ],
      "stateMutability": "view",
      "type": "function"
    },
    {
      "inputs": [
        {
          "internalType": "string",
          "name": "auctionId",
          "type": "string"
        }
      ],
      "name": "payment",
      "outputs": [],
      "stateMutability": "payable",
      "type": "function"
    },
    {
      "inputs": [
        {
          "internalType": "string",
          "name": "auctionId",
          "type": "string"
        },
        {
          "internalType": "uint256",
          "name": "bidAmount",
          "type": "uint256"
        }
      ],
      "name": "placeBid",
      "outputs": [],
      "stateMutability": "payable",
      "type": "function"
    },
    {
      "inputs": [
        {
          "internalType": "string",
          "name": "auctionId",
          "type": "string"
        }
      ],
      "name": "registerToBid",
      "outputs": [],
      "stateMutability": "payable",
      "type": "function"
    },
    {
      "inputs": [
        {
          "internalType": "string",
          "name": "auctionId",
          "type": "string"
        }
      ],
      "name": "retractBid",
      "outputs": [],
      "stateMutability": "payable",
      "type": "function"
    },
    {
      "inputs": [],
      "name": "withdraw",
      "outputs": [],
      "stateMutability": "nonpayable",
      "type": "function"
    },
    {
      "inputs": [
        {
          "internalType": "string",
          "name": "auctionId",
          "type": "string"
        }
      ],
      "name": "withdrawDeposit",
      "outputs": [],
      "stateMutability": "nonpayable",
      "type": "function"
    },
    {
      "inputs": [],
      "name": "withdrawProceeds",
      "outputs": [],
      "stateMutability": "nonpayable",
      "type": "function"
    }
  ],
  "transactionHash": "0x30865711a0ba7853d9c2407f00d9169d0bb04d87ad118403763b27f21edd763b",
  "args": [],
  "numDeployments": 9,
  "solcInputHash": "3a38ce6950150123eb841aa3727b942f",
  "bytecode": "0x60a060405234801561001057600080fd5b503373ffffffffffffffffffffffffffffffffffffffff1660808173ffffffffffffffffffffffffffffffffffffffff16815250506080516137ef61007c6000396000818161044a015281816104d10152818161114a01528181611170015261123301526137ef6000f3fe6080604052600436106100f35760003560e01c806383bd95871161008a578063af6fd4a711610059578063af6fd4a7146102ea578063daddf71714610306578063e4ece6b014610322578063f05981fa1461034b576100f3565b806383bd958714610261578063893d20e81461028c5780639038e693146102b7578063a7eaa241146102ce576100f3565b80636821fe22116100c65780636821fe22146101a257806373e295ea146101df5780637ea717ff146101fb5780638166697114610238576100f3565b806312065fe0146100f85780631c46583b146101235780633ccfd60b1461014e578063615adb6a14610165575b600080fd5b34801561010457600080fd5b5061010d610367565b60405161011a91906128ea565b60405180910390f35b34801561012f57600080fd5b5061013861036f565b6040516101459190612a57565b60405180910390f35b34801561015a57600080fd5b50610163610448565b005b34801561017157600080fd5b5061018c60048036038101906101879190612bc2565b61059c565b6040516101999190612cd1565b60405180910390f35b3480156101ae57600080fd5b506101c960048036038101906101c49190612bc2565b610714565b6040516101d69190612e96565b60405180910390f35b6101f960048036038101906101f49190612bc2565b610911565b005b34801561020757600080fd5b50610222600480360381019061021d9190612bc2565b610ddd565b60405161022f91906128ea565b60405180910390f35b34801561024457600080fd5b5061025f600480360381019061025a9190612ee4565b610fb9565b005b34801561026d57600080fd5b5061027661113c565b60405161028391906128ea565b60405180910390f35b34801561029857600080fd5b506102a1611146565b6040516102ae9190612fee565b60405180910390f35b3480156102c357600080fd5b506102cc61116e565b005b6102e860048036038101906102e39190613009565b611300565b005b61030460048036038101906102ff9190612bc2565b61180e565b005b610320600480360381019061031b9190612bc2565b6119d5565b005b34801561032e57600080fd5b5061034960048036038101906103449190612bc2565b611e9c565b005b61036560048036038101906103609190612bc2565b6121de565b005b600047905090565b60606000805480602002602001604051908101604052809291908181526020016000905b8282101561043f5783829060005260206000200180546103b290613094565b80601f01602080910402602001604051908101604052809291908181526020018280546103de90613094565b801561042b5780601f106104005761010080835404028352916020019161042b565b820191906000526020600020905b81548152906001019060200180831161040e57829003601f168201915b505050505081526020019060010190610393565b50505050905090565b7f000000000000000000000000000000000000000000000000000000000000000073ffffffffffffffffffffffffffffffffffffffff163373ffffffffffffffffffffffffffffffffffffffff16146104cd576040517f3e77415600000000000000000000000000000000000000000000000000000000815260040160405180910390fd5b60007f000000000000000000000000000000000000000000000000000000000000000073ffffffffffffffffffffffffffffffffffffffff1647604051610513906130f6565b60006040518083038185875af1925050503d8060008114610550576040519150601f19603f3d011682016040523d82523d6000602084013e610555565b606091505b5050905080610599576040517f08c379a000000000000000000000000000000000000000000000000000000000815260040161059090613168565b60405180910390fd5b50565b6105a461283c565b816000805b60008054905081101561064857600081815481106105ca576105c9613188565b5b906000526020600020016040516020016105e4919061325a565b604051602081830303815290604052805190602001208360405160200161060b91906132a2565b6040516020818303038152906040528051906020012014610635578180610631906132e8565b9250505b8080610640906132e8565b9150506105a9565b506000805490508103610687576040517fc1c7f9a100000000000000000000000000000000000000000000000000000000815260040160405180910390fd5b60028460405161069791906132a2565b908152602001604051809103902060405180610120016040529081600082015481526020016001820154815260200160028201548152602001600382015481526020016004820154815260200160058201548152602001600682015481526020016007820154815260200160088201548152505092505050919050565b6060816000805b6000805490508110156107ba576000818154811061073c5761073b613188565b5b90600052602060002001604051602001610756919061325a565b604051602081830303815290604052805190602001208360405160200161077d91906132a2565b60405160208183030381529060405280519060200120146107a75781806107a3906132e8565b9250505b80806107b2906132e8565b91505061071b565b5060008054905081036107f9576040517fc1c7f9a100000000000000000000000000000000000000000000000000000000815260040160405180910390fd5b60038460405161080991906132a2565b9081526020016040518091039020805480602002602001604051908101604052809291908181526020016000905b8282101561090457838290600052602060002090600302016040518060600160405290816000820160009054906101000a900473ffffffffffffffffffffffffffffffffffffffff1673ffffffffffffffffffffffffffffffffffffffff1673ffffffffffffffffffffffffffffffffffffffff168152602001600182015481526020016002820160009054906101000a900460ff1660048111156108df576108de612d5a565b5b60048111156108f1576108f0612d5a565b5b8152505081526020019060010190610837565b5050505092505050919050565b806000805b6000805490508110156109b5576000818154811061093757610936613188565b5b90600052602060002001604051602001610951919061325a565b604051602081830303815290604052805190602001208360405160200161097891906132a2565b60405160208183030381529060405280519060200120146109a257818061099e906132e8565b9250505b80806109ad906132e8565b915050610916565b5060008054905081036109f4576040517fc1c7f9a100000000000000000000000000000000000000000000000000000000815260040160405180910390fd5b8242600282604051610a0691906132a2565b9081526020016040518091039020600201541180610a44575042600282604051610a3091906132a2565b908152602001604051809103902060030154105b15610a7b576040517f355d234800000000000000000000000000000000000000000000000000000000815260040160405180910390fd5b836000805b600383604051610a9091906132a2565b908152602001604051809103902080549050811015610bdf573373ffffffffffffffffffffffffffffffffffffffff16600384604051610ad091906132a2565b90815260200160405180910390208281548110610af057610aef613188565b5b906000526020600020906003020160000160009054906101000a900473ffffffffffffffffffffffffffffffffffffffff1673ffffffffffffffffffffffffffffffffffffffff1614158015610bb8575060006004811115610b5557610b54612d5a565b5b600384604051610b6591906132a2565b90815260200160405180910390208281548110610b8557610b84613188565b5b906000526020600020906003020160020160009054906101000a900460ff166004811115610bb657610bb5612d5a565b5b145b15610bcc578180610bc8906132e8565b9250505b8080610bd7906132e8565b915050610a80565b50600382604051610bf091906132a2565b9081526020016040518091039020805490508103610c3a576040517f2ffd4a0c00000000000000000000000000000000000000000000000000000000815260040160405180910390fd5b8560006004811115610c4f57610c4e612d5a565b5b600382604051610c5f91906132a2565b9081526020016040518091039020610c7683612487565b81548110610c8757610c86613188565b5b906000526020600020906003020160020160009054906101000a900460ff166004811115610cb857610cb7612d5a565b5b14610cef576040517fd5556f7600000000000000000000000000000000000000000000000000000000815260040160405180910390fd5b6001600388604051610d0191906132a2565b9081526020016040518091039020610d1889612487565b81548110610d2957610d28613188565b5b906000526020600020906003020160020160006101000a81548160ff02191690836004811115610d5c57610d5b612d5a565b5b0217905550600287604051610d7191906132a2565b90815260200160405180910390206006015460016000828254610d949190613330565b925050819055507f34a0a77595fe52e5375623399b257387f5de5854fd9f102d981e81214835a4108733604051610dcc92919061339d565b60405180910390a150505050505050565b6000806000905060005b600384604051610df791906132a2565b908152602001604051809103902080549050811015610faf5781600385604051610e2191906132a2565b90815260200160405180910390208281548110610e4157610e40613188565b5b906000526020600020906003020160010154118015610ed3575060016004811115610e6f57610e6e612d5a565b5b600385604051610e7f91906132a2565b90815260200160405180910390208281548110610e9f57610e9e613188565b5b906000526020600020906003020160020160009054906101000a900460ff166004811115610ed057610ecf612d5a565b5b14155b8015610f52575060026004811115610eee57610eed612d5a565b5b600385604051610efe91906132a2565b90815260200160405180910390208281548110610f1e57610f1d613188565b5b906000526020600020906003020160020160009054906101000a900460ff166004811115610f4f57610f4e612d5a565b5b14155b15610f9c57600384604051610f6791906132a2565b90815260200160405180910390208181548110610f8757610f86613188565b5b90600052602060002090600302016001015491505b8080610fa7906132e8565b915050610de7565b5080915050919050565b610fcb8a8a8a8a8a8a8a8a8a8a612570565b1561113057610fd861283c565b8981600001818152505088816020018181525050878160400181815250508681606001818152505085816080018181525050848160a0018181525050838160c0018181525050828160e001818152505081816101000181815250508060028c60405161104491906132a2565b9081526020016040518091039020600082015181600001556020820151816001015560408201518160020155606082015181600301556080820151816004015560a0820151816005015560c0820151816006015560e08201518160070155610100820151816008015590505060008b9080600181540180825580915050600190039060005260206000200160009091909190915090816110e49190613564565b507fe5549b694e8ea655c231f5d255127cf7c0f14997a411ccdf6577e3b9911674428b8b8b8b8b8b8b8b8b8b6040516111269a99989796959493929190613636565b60405180910390a1505b50505050505050505050565b6000600154905090565b60007f0000000000000000000000000000000000000000000000000000000000000000905090565b7f000000000000000000000000000000000000000000000000000000000000000073ffffffffffffffffffffffffffffffffffffffff163373ffffffffffffffffffffffffffffffffffffffff16146111f3576040517f3e77415600000000000000000000000000000000000000000000000000000000815260040160405180910390fd5b60006001541161122f576040517f9bfe640f00000000000000000000000000000000000000000000000000000000815260040160405180910390fd5b60007f000000000000000000000000000000000000000000000000000000000000000073ffffffffffffffffffffffffffffffffffffffff16600154604051611277906130f6565b60006040518083038185875af1925050503d80600081146112b4576040519150601f19603f3d011682016040523d82523d6000602084013e6112b9565b606091505b50509050806112fd576040517f08c379a00000000000000000000000000000000000000000000000000000000081526004016112f490613168565b60405180910390fd5b50565b816000805b6000805490508110156113a4576000818154811061132657611325613188565b5b90600052602060002001604051602001611340919061325a565b604051602081830303815290604052805190602001208360405160200161136791906132a2565b604051602081830303815290604052805190602001201461139157818061138d906132e8565b9250505b808061139c906132e8565b915050611305565b5060008054905081036113e3576040517fc1c7f9a100000000000000000000000000000000000000000000000000000000815260040160405180910390fd5b83426002826040516113f591906132a2565b908152602001604051809103902060020154118061143357504260028260405161141f91906132a2565b908152602001604051809103902060030154105b1561146a576040517f355d234800000000000000000000000000000000000000000000000000000000815260040160405180910390fd5b846000805b60038360405161147f91906132a2565b9081526020016040518091039020805490508110156115ce573373ffffffffffffffffffffffffffffffffffffffff166003846040516114bf91906132a2565b908152602001604051809103902082815481106114df576114de613188565b5b906000526020600020906003020160000160009054906101000a900473ffffffffffffffffffffffffffffffffffffffff1673ffffffffffffffffffffffffffffffffffffffff16141580156115a757506000600481111561154457611543612d5a565b5b60038460405161155491906132a2565b9081526020016040518091039020828154811061157457611573613188565b5b906000526020600020906003020160020160009054906101000a900460ff1660048111156115a5576115a4612d5a565b5b145b156115bb5781806115b7906132e8565b9250505b80806115c6906132e8565b91505061146f565b506003826040516115df91906132a2565b9081526020016040518091039020805490508103611629576040517f2ffd4a0c00000000000000000000000000000000000000000000000000000000815260040160405180910390fd5b868660028260405161163b91906132a2565b90815260200160405180910390206007015481108061168d575060028260405161166591906132a2565b90815260200160405180910390206008015461168083610ddd565b61168a9190613330565b81105b156116c4576040517fabdda60f00000000000000000000000000000000000000000000000000000000815260040160405180910390fd5b88600060048111156116d9576116d8612d5a565b5b6003826040516116e991906132a2565b908152602001604051809103902061170083612487565b8154811061171157611710613188565b5b906000526020600020906003020160020160009054906101000a900460ff16600481111561174257611741612d5a565b5b14611779576040517fd5556f7600000000000000000000000000000000000000000000000000000000815260040160405180910390fd5b8860038b60405161178a91906132a2565b90815260200160405180910390206117a18c612487565b815481106117b2576117b1613188565b5b9060005260206000209060030201600101819055507fe886416816c234ad984c20a40b4480b0e1dc31a4da3edbab50626e575b7dbe058a338b6040516117fa939291906136d9565b60405180910390a150505050505050505050565b80600060028260405161182191906132a2565b90815260200160405180910390206006015460038360405161184391906132a2565b908152602001604051809103902061185a84612487565b8154811061186b5761186a613188565b5b9060005260206000209060030201600101546118879190613717565b9050803410156118d05781816040517f1abcbf870000000000000000000000000000000000000000000000000000000081526004016118c792919061374b565b60405180910390fd5b60046003846040516118e291906132a2565b90815260200160405180910390206118f985612487565b8154811061190a57611909613188565b5b906000526020600020906003020160020160006101000a81548160ff0219169083600481111561193d5761193c612d5a565b5b021790555060028360405161195291906132a2565b908152602001604051809103902060060154600160008282546119759190613330565b92505081905550346001600082825461198e9190613330565b925050819055507f13d1118d2532a9b21c3e26bd2ba1b959263d90ea306c910ff6339e405192f1f28333346040516119c8939291906136d9565b60405180910390a1505050565b806000805b600080549050811015611a7957600081815481106119fb576119fa613188565b5b90600052602060002001604051602001611a15919061325a565b6040516020818303038152906040528051906020012083604051602001611a3c91906132a2565b6040516020818303038152906040528051906020012014611a66578180611a62906132e8565b9250505b8080611a71906132e8565b9150506119da565b506000805490508103611ab8576040517fc1c7f9a100000000000000000000000000000000000000000000000000000000815260040160405180910390fd5b8242600282604051611aca91906132a2565b9081526020016040518091039020600001541180611b08575042600282604051611af491906132a2565b908152602001604051809103902060010154105b15611b3f576040517f60acd97900000000000000000000000000000000000000000000000000000000815260040160405180910390fd5b8360005b600382604051611b5391906132a2565b908152602001604051809103902080549050811015611c45573373ffffffffffffffffffffffffffffffffffffffff16600383604051611b9391906132a2565b90815260200160405180910390208281548110611bb357611bb2613188565b5b906000526020600020906003020160000160009054906101000a900473ffffffffffffffffffffffffffffffffffffffff1673ffffffffffffffffffffffffffffffffffffffff1603611c32576040517fd0335efa00000000000000000000000000000000000000000000000000000000815260040160405180910390fd5b8080611c3d906132e8565b915050611b43565b506000600286604051611c5891906132a2565b908152602001604051809103902060060154600287604051611c7a91906132a2565b908152602001604051809103902060050154611c969190613330565b9050803414611ce0578534826040517fa60b61bc000000000000000000000000000000000000000000000000000000008152600401611cd79392919061377b565b60405180910390fd5b611ce8612888565b33816000019073ffffffffffffffffffffffffffffffffffffffff16908173ffffffffffffffffffffffffffffffffffffffff1681525050600081604001906004811115611d3957611d38612d5a565b5b90816004811115611d4d57611d4c612d5a565b5b81525050600387604051611d6191906132a2565b908152602001604051809103902081908060018154018082558091505060019003906000526020600020906003020160009091909190915060008201518160000160006101000a81548173ffffffffffffffffffffffffffffffffffffffff021916908373ffffffffffffffffffffffffffffffffffffffff1602179055506020820151816001015560408201518160020160006101000a81548160ff02191690836004811115611e1557611e14612d5a565b5b02179055505050600287604051611e2c91906132a2565b90815260200160405180910390206005015460016000828254611e4f9190613330565b925050819055507f5d651e42334513dc1749c7bd6a34d9586dd43fb0ad19fb0e100b6cd36af6b877878260000151604051611e8b92919061339d565b60405180910390a150505050505050565b8060036004811115611eb157611eb0612d5a565b5b600382604051611ec191906132a2565b9081526020016040518091039020611ed883612487565b81548110611ee957611ee8613188565b5b906000526020600020906003020160020160009054906101000a900460ff166004811115611f1a57611f19612d5a565b5b1480611fa0575060026004811115611f3557611f34612d5a565b5b600382604051611f4591906132a2565b9081526020016040518091039020611f5c83612487565b81548110611f6d57611f6c613188565b5b906000526020600020906003020160020160009054906101000a900460ff166004811115611f9e57611f9d612d5a565b5b145b80612025575060016004811115611fba57611fb9612d5a565b5b600382604051611fca91906132a2565b9081526020016040518091039020611fe183612487565b81548110611ff257611ff1613188565b5b906000526020600020906003020160020160009054906101000a900460ff16600481111561202357612022612d5a565b5b145b1561205c576040517f68c4171400000000000000000000000000000000000000000000000000000000815260040160405180910390fd5b600060028360405161206e91906132a2565b90815260200160405180910390206006015490506003808460405161209391906132a2565b90815260200160405180910390206120aa85612487565b815481106120bb576120ba613188565b5b906000526020600020906003020160020160006101000a81548160ff021916908360048111156120ee576120ed612d5a565b5b021790555060003373ffffffffffffffffffffffffffffffffffffffff1682604051612119906130f6565b60006040518083038185875af1925050503d8060008114612156576040519150601f19603f3d011682016040523d82523d6000602084013e61215b565b606091505b505090508061219f576040517f08c379a000000000000000000000000000000000000000000000000000000000815260040161219690613168565b60405180910390fd5b7f8703deb082bbe9dd18bf858af977f1d7ced58bd7803c949a6e1011ae2d79f1ac84336040516121d092919061339d565b60405180910390a150505050565b806000805b6003836040516121f391906132a2565b908152602001604051809103902080549050811015612342573373ffffffffffffffffffffffffffffffffffffffff1660038460405161223391906132a2565b9081526020016040518091039020828154811061225357612252613188565b5b906000526020600020906003020160000160009054906101000a900473ffffffffffffffffffffffffffffffffffffffff1673ffffffffffffffffffffffffffffffffffffffff161415801561231b5750600060048111156122b8576122b7612d5a565b5b6003846040516122c891906132a2565b908152602001604051809103902082815481106122e8576122e7613188565b5b906000526020600020906003020160020160009054906101000a900460ff16600481111561231957612318612d5a565b5b145b1561232f57818061232b906132e8565b9250505b808061233a906132e8565b9150506121e3565b5060038260405161235391906132a2565b908152602001604051809103902080549050810361239d576040517f2ffd4a0c00000000000000000000000000000000000000000000000000000000815260040160405180910390fd5b60026003846040516123af91906132a2565b90815260200160405180910390206123c685612487565b815481106123d7576123d6613188565b5b906000526020600020906003020160020160006101000a81548160ff0219169083600481111561240a57612409612d5a565b5b021790555060028360405161241f91906132a2565b908152602001604051809103902060060154600160008282546124429190613330565b925050819055507f25c419f07583c37deac8720645fc345e1e2aff8cd9af6b65eae9ef7c86988d14833360405161247a92919061339d565b60405180910390a1505050565b60008061270f905060005b6003846040516124a291906132a2565b908152602001604051809103902080549050811015612566573373ffffffffffffffffffffffffffffffffffffffff166003856040516124e291906132a2565b9081526020016040518091039020828154811061250257612501613188565b5b906000526020600020906003020160000160009054906101000a900473ffffffffffffffffffffffffffffffffffffffff1673ffffffffffffffffffffffffffffffffffffffff1603612553578091505b808061255e906132e8565b915050612492565b5080915050919050565b60008a60005b600080549050811015612638576000818154811061259757612596613188565b5b906000526020600020016040516020016125b1919061325a565b60405160208183030381529060405280519060200120826040516020016125d891906132a2565b6040516020818303038152906040528051906020012003612625576040517f6b9108f800000000000000000000000000000000000000000000000000000000815260040160405180910390fd5b8080612630906132e8565b915050612576565b508a8a428210806126495750808210155b15612680576040517f5e83d5f800000000000000000000000000000000000000000000000000000000815260040160405180910390fd5b8b8b8082106126bb576040517f7a9971e800000000000000000000000000000000000000000000000000000000815260040160405180910390fd5b8c8c8082106126f6576040517fe2049fa500000000000000000000000000000000000000000000000000000000815260040160405180910390fd5b8d8d808210612731576040517fcc2116a000000000000000000000000000000000000000000000000000000000815260040160405180910390fd5b8d6000811161276c576040517fb25c88c500000000000000000000000000000000000000000000000000000000815260040160405180910390fd5b8d600081116127a7576040517fb0f07a6300000000000000000000000000000000000000000000000000000000815260040160405180910390fd5b8d600081116127e2576040517ffb833a9900000000000000000000000000000000000000000000000000000000815260040160405180910390fd5b8d6000811161281d576040517fa9ed13a300000000000000000000000000000000000000000000000000000000815260040160405180910390fd5b60019d50505050505050505050505050509a9950505050505050505050565b6040518061012001604052806000815260200160008152602001600081526020016000815260200160008152602001600081526020016000815260200160008152602001600081525090565b6040518060600160405280600073ffffffffffffffffffffffffffffffffffffffff16815260200160008152602001600060048111156128cb576128ca612d5a565b5b81525090565b6000819050919050565b6128e4816128d1565b82525050565b60006020820190506128ff60008301846128db565b92915050565b600081519050919050565b600082825260208201905092915050565b6000819050602082019050919050565b600081519050919050565b600082825260208201905092915050565b60005b8381101561296b578082015181840152602081019050612950565b60008484015250505050565b6000601f19601f8301169050919050565b600061299382612931565b61299d818561293c565b93506129ad81856020860161294d565b6129b681612977565b840191505092915050565b60006129cd8383612988565b905092915050565b6000602082019050919050565b60006129ed82612905565b6129f78185612910565b935083602082028501612a0985612921565b8060005b85811015612a455784840389528151612a2685826129c1565b9450612a31836129d5565b925060208a01995050600181019050612a0d565b50829750879550505050505092915050565b60006020820190508181036000830152612a7181846129e2565b905092915050565b6000604051905090565b600080fd5b600080fd5b600080fd5b600080fd5b7f4e487b7100000000000000000000000000000000000000000000000000000000600052604160045260246000fd5b612acf82612977565b810181811067ffffffffffffffff82111715612aee57612aed612a97565b5b80604052505050565b6000612b01612a79565b9050612b0d8282612ac6565b919050565b600067ffffffffffffffff821115612b2d57612b2c612a97565b5b612b3682612977565b9050602081019050919050565b82818337600083830152505050565b6000612b65612b6084612b12565b612af7565b905082815260208101848484011115612b8157612b80612a92565b5b612b8c848285612b43565b509392505050565b600082601f830112612ba957612ba8612a8d565b5b8135612bb9848260208601612b52565b91505092915050565b600060208284031215612bd857612bd7612a83565b5b600082013567ffffffffffffffff811115612bf657612bf5612a88565b5b612c0284828501612b94565b91505092915050565b612c14816128d1565b82525050565b61012082016000820151612c316000850182612c0b565b506020820151612c446020850182612c0b565b506040820151612c576040850182612c0b565b506060820151612c6a6060850182612c0b565b506080820151612c7d6080850182612c0b565b5060a0820151612c9060a0850182612c0b565b5060c0820151612ca360c0850182612c0b565b5060e0820151612cb660e0850182612c0b565b50610100820151612ccb610100850182612c0b565b50505050565b600061012082019050612ce76000830184612c1a565b92915050565b600081519050919050565b600082825260208201905092915050565b6000819050602082019050919050565b600073ffffffffffffffffffffffffffffffffffffffff82169050919050565b6000612d4482612d19565b9050919050565b612d5481612d39565b82525050565b7f4e487b7100000000000000000000000000000000000000000000000000000000600052602160045260246000fd5b60058110612d9a57612d99612d5a565b5b50565b6000819050612dab82612d89565b919050565b6000612dbb82612d9d565b9050919050565b612dcb81612db0565b82525050565b606082016000820151612de76000850182612d4b565b506020820151612dfa6020850182612c0b565b506040820151612e0d6040850182612dc2565b50505050565b6000612e1f8383612dd1565b60608301905092915050565b6000602082019050919050565b6000612e4382612ced565b612e4d8185612cf8565b9350612e5883612d09565b8060005b83811015612e89578151612e708882612e13565b9750612e7b83612e2b565b925050600181019050612e5c565b5085935050505092915050565b60006020820190508181036000830152612eb08184612e38565b905092915050565b612ec1816128d1565b8114612ecc57600080fd5b50565b600081359050612ede81612eb8565b92915050565b6000806000806000806000806000806101408b8d031215612f0857612f07612a83565b5b60008b013567ffffffffffffffff811115612f2657612f25612a88565b5b612f328d828e01612b94565b9a50506020612f438d828e01612ecf565b9950506040612f548d828e01612ecf565b9850506060612f658d828e01612ecf565b9750506080612f768d828e01612ecf565b96505060a0612f878d828e01612ecf565b95505060c0612f988d828e01612ecf565b94505060e0612fa98d828e01612ecf565b935050610100612fbb8d828e01612ecf565b925050610120612fcd8d828e01612ecf565b9150509295989b9194979a5092959850565b612fe881612d39565b82525050565b60006020820190506130036000830184612fdf565b92915050565b600080604083850312156130205761301f612a83565b5b600083013567ffffffffffffffff81111561303e5761303d612a88565b5b61304a85828601612b94565b925050602061305b85828601612ecf565b9150509250929050565b7f4e487b7100000000000000000000000000000000000000000000000000000000600052602260045260246000fd5b600060028204905060018216806130ac57607f821691505b6020821081036130bf576130be613065565b5b50919050565b600081905092915050565b50565b60006130e06000836130c5565b91506130eb826130d0565b600082019050919050565b6000613101826130d3565b9150819050919050565b600082825260208201905092915050565b7f5472616e73666572206661696c65640000000000000000000000000000000000600082015250565b6000613152600f8361310b565b915061315d8261311c565b602082019050919050565b6000602082019050818103600083015261318181613145565b9050919050565b7f4e487b7100000000000000000000000000000000000000000000000000000000600052603260045260246000fd5b600081905092915050565b60008190508160005260206000209050919050565b600081546131e481613094565b6131ee81866131b7565b94506001821660008114613209576001811461321e57613251565b60ff1983168652811515820286019350613251565b613227856131c2565b60005b838110156132495781548189015260018201915060208101905061322a565b838801955050505b50505092915050565b600061326682846131d7565b915081905092915050565b600061327c82612931565b61328681856131b7565b935061329681856020860161294d565b80840191505092915050565b60006132ae8284613271565b915081905092915050565b7f4e487b7100000000000000000000000000000000000000000000000000000000600052601160045260246000fd5b60006132f3826128d1565b91507fffffffffffffffffffffffffffffffffffffffffffffffffffffffffffffffff8203613325576133246132b9565b5b600182019050919050565b600061333b826128d1565b9150613346836128d1565b925082820190508082111561335e5761335d6132b9565b5b92915050565b600061336f82612931565b613379818561310b565b935061338981856020860161294d565b61339281612977565b840191505092915050565b600060408201905081810360008301526133b78185613364565b90506133c66020830184612fdf565b9392505050565b60006020601f8301049050919050565b600082821b905092915050565b60006008830261341a7fffffffffffffffffffffffffffffffffffffffffffffffffffffffffffffffff826133dd565b61342486836133dd565b95508019841693508086168417925050509392505050565b6000819050919050565b600061346161345c613457846128d1565b61343c565b6128d1565b9050919050565b6000819050919050565b61347b83613446565b61348f61348782613468565b8484546133ea565b825550505050565b600090565b6134a4613497565b6134af818484613472565b505050565b5b818110156134d3576134c860008261349c565b6001810190506134b5565b5050565b601f821115613518576134e9816131c2565b6134f2846133cd565b81016020851015613501578190505b61351561350d856133cd565b8301826134b4565b50505b505050565b600082821c905092915050565b600061353b6000198460080261351d565b1980831691505092915050565b6000613554838361352a565b9150826002028217905092915050565b61356d82612931565b67ffffffffffffffff81111561358657613585612a97565b5b6135908254613094565b61359b8282856134d7565b600060209050601f8311600181146135ce57600084156135bc578287015190505b6135c68582613548565b86555061362e565b601f1984166135dc866131c2565b60005b82811015613604578489015182556001820191506020850194506020810190506135df565b86831015613621578489015161361d601f89168261352a565b8355505b6001600288020188555050505b505050505050565b6000610140820190508181036000830152613651818d613364565b9050613660602083018c6128db565b61366d604083018b6128db565b61367a606083018a6128db565b61368760808301896128db565b61369460a08301886128db565b6136a160c08301876128db565b6136ae60e08301866128db565b6136bc6101008301856128db565b6136ca6101208301846128db565b9b9a5050505050505050505050565b600060608201905081810360008301526136f38186613364565b90506137026020830185612fdf565b61370f60408301846128db565b949350505050565b6000613722826128d1565b915061372d836128d1565b9250828203905081811115613745576137446132b9565b5b92915050565b600060408201905081810360008301526137658185613364565b905061377460208301846128db565b9392505050565b600060608201905081810360008301526137958186613364565b90506137a460208301856128db565b6137b160408301846128db565b94935050505056fea264697066735822122050ca482e9144e7c4cd5d651db9b5091f7c6d816424382c870bd2221ad28ecb1364736f6c63430008110033",
  "devdoc": {
    "author": "Decentralized Auction Platform Team",
    "details": "This implements the auctioneer job",
    "kind": "dev",
    "methods": {},
    "title": "Decentralized Auction Platform",
    "version": 1
  },
  "userdoc": {
    "kind": "user",
    "methods": {},
    "notice": "This contract is for Decentralized Auction Platform",
    "version": 1
  },
  "storageLayout": {
    "storage": [
      {
        "astId": 67,
        "contract": "contracts/Auction.sol:Auction",
        "label": "s_auctionList",
        "offset": 0,
        "slot": "0",
        "type": "t_array(t_string_storage)dyn_storage"
      },
      {
        "astId": 69,
        "contract": "contracts/Auction.sol:Auction",
        "label": "s_proceeds",
        "offset": 0,
        "slot": "1",
        "type": "t_uint256"
      },
      {
        "astId": 183,
        "contract": "contracts/Auction.sol:Auction",
        "label": "s_auctionInformations",
        "offset": 0,
        "slot": "2",
        "type": "t_mapping(t_string_memory_ptr,t_struct(AuctionInformation)99_storage)"
      },
      {
        "astId": 189,
        "contract": "contracts/Auction.sol:Auction",
        "label": "s_bidInformations",
        "offset": 0,
        "slot": "3",
        "type": "t_mapping(t_string_memory_ptr,t_array(t_struct(BidInformation)116_storage)dyn_storage)"
      }
    ],
    "types": {
      "t_address": {
        "encoding": "inplace",
        "label": "address",
        "numberOfBytes": "20"
      },
      "t_array(t_string_storage)dyn_storage": {
        "base": "t_string_storage",
        "encoding": "dynamic_array",
        "label": "string[]",
        "numberOfBytes": "32"
      },
      "t_array(t_struct(BidInformation)116_storage)dyn_storage": {
        "base": "t_struct(BidInformation)116_storage",
        "encoding": "dynamic_array",
        "label": "struct Auction.BidInformation[]",
        "numberOfBytes": "32"
      },
      "t_enum(BidderState)80": {
        "encoding": "inplace",
        "label": "enum Auction.BidderState",
        "numberOfBytes": "1"
      },
      "t_mapping(t_string_memory_ptr,t_array(t_struct(BidInformation)116_storage)dyn_storage)": {
        "encoding": "mapping",
        "key": "t_string_memory_ptr",
        "label": "mapping(string => struct Auction.BidInformation[])",
        "numberOfBytes": "32",
        "value": "t_array(t_struct(BidInformation)116_storage)dyn_storage"
      },
      "t_mapping(t_string_memory_ptr,t_struct(AuctionInformation)99_storage)": {
        "encoding": "mapping",
        "key": "t_string_memory_ptr",
        "label": "mapping(string => struct Auction.AuctionInformation)",
        "numberOfBytes": "32",
        "value": "t_struct(AuctionInformation)99_storage"
      },
      "t_string_memory_ptr": {
        "encoding": "bytes",
        "label": "string",
        "numberOfBytes": "32"
      },
      "t_string_storage": {
        "encoding": "bytes",
        "label": "string",
        "numberOfBytes": "32"
      },
      "t_struct(AuctionInformation)99_storage": {
        "encoding": "inplace",
        "label": "struct Auction.AuctionInformation",
        "members": [
          {
            "astId": 82,
            "contract": "contracts/Auction.sol:Auction",
            "label": "startRegistrationTime",
            "offset": 0,
            "slot": "0",
            "type": "t_uint256"
          },
          {
            "astId": 84,
            "contract": "contracts/Auction.sol:Auction",
            "label": "endRegistrationTime",
            "offset": 0,
            "slot": "1",
            "type": "t_uint256"
          },
          {
            "astId": 86,
            "contract": "contracts/Auction.sol:Auction",
            "label": "startAuctionTime",
            "offset": 0,
            "slot": "2",
            "type": "t_uint256"
          },
          {
            "astId": 88,
            "contract": "contracts/Auction.sol:Auction",
            "label": "endAuctionTime",
            "offset": 0,
            "slot": "3",
            "type": "t_uint256"
          },
          {
            "astId": 90,
            "contract": "contracts/Auction.sol:Auction",
            "label": "duePaymentTime",
            "offset": 0,
            "slot": "4",
            "type": "t_uint256"
          },
          {
            "astId": 92,
            "contract": "contracts/Auction.sol:Auction",
            "label": "registrationFee",
            "offset": 0,
            "slot": "5",
            "type": "t_uint256"
          },
          {
            "astId": 94,
            "contract": "contracts/Auction.sol:Auction",
            "label": "depositAmount",
            "offset": 0,
            "slot": "6",
            "type": "t_uint256"
          },
          {
            "astId": 96,
            "contract": "contracts/Auction.sol:Auction",
            "label": "startBid",
            "offset": 0,
            "slot": "7",
            "type": "t_uint256"
          },
          {
            "astId": 98,
            "contract": "contracts/Auction.sol:Auction",
            "label": "priceStep",
            "offset": 0,
            "slot": "8",
            "type": "t_uint256"
          }
        ],
        "numberOfBytes": "288"
      },
      "t_struct(BidInformation)116_storage": {
        "encoding": "inplace",
        "label": "struct Auction.BidInformation",
        "members": [
          {
            "astId": 110,
            "contract": "contracts/Auction.sol:Auction",
            "label": "bidder",
            "offset": 0,
            "slot": "0",
            "type": "t_address"
          },
          {
            "astId": 112,
            "contract": "contracts/Auction.sol:Auction",
            "label": "bidAmount",
            "offset": 0,
            "slot": "1",
            "type": "t_uint256"
          },
          {
            "astId": 115,
            "contract": "contracts/Auction.sol:Auction",
            "label": "bidderState",
            "offset": 0,
            "slot": "2",
            "type": "t_enum(BidderState)80"
          }
        ],
        "numberOfBytes": "96"
      },
      "t_uint256": {
        "encoding": "inplace",
        "label": "uint256",
        "numberOfBytes": "32"
      }
    }
  }
}